:020000040800F2
:10000000005000209D8F0108E9A50008311D00085F
:10001000E7A50008E5A50008E3A50008000000002A
:10002000000000000000000000000000E1A5000842
:10003000DFA5000800000000DDA50008511200083F
:100040003990010839900108399001083990010868
:1000500039900108399001085F1F0008731F0008DC
:100060006F1F00086B1F0008671F0008554F00082E
:10007000454F0008354F0008254F0008154F000870
:10008000014F0008ED4E0008399001083990010831
:10009000B9AB00083990010839900108631F0008C6
:1000A000399001081110000839900108011000086A
:1000B000F50F0008E50F0008D50F0008B77100081C
:1000C000BD710008AD710008B371000839900108D6
:1000D00039900108E512000839900108D91200088A
:1000E0005B1F000839900108CDA500080000000042
:1000F0000000000000000000000000000000000000
:0C01000000000000000000005FF808F1A3
:10010C0003685A1C02601878704738B50546064CCF
:10011C00206800B938BD4368EB1A002BFADB836802
:10012C00236003689847F3E7180D0020034610B5C9
:10013C005C6B4069D96844B15A6C8C1A013A08BF9F
:10014C000A46005D5A64C0B210BD1A6A805C013266
:10015C008A4228BF2246C0B21A62F5E7836B13B1FC
:10016C0090F854007047836A406A1B1A58425841F1
:10017C0070470269D0E90913994238BF8918CB1A24
:10018C00816B501E19B14A681344834201D2C01AC4
:10019C00704700207047436B4BB1426C5B689A42CE
:1001AC00A3EB020392BF1846C068C0187047D0E991
:1001BC0007239A422FBFD01AC0688018C01A704704
:1001CC0070B5EFF31182502383F31288836BD2B294
:1001DC00196811F0010F08D15E68DEB9D0E9094148
:1001EC008C4205D1012380F8543082F3118870BD04
:1001FC00856998BF04690D448CBF611A611ADD6072
:10020C008CBF596059604FF000018CBF84628662CC
:10021C0080F85410196841F001011960E5E7436A50
:10022C008269D154436A02690133934228BF002387
:10023C004362836B03B1C3E7026DD36843F0800361
:10024C00D36070470A4B30B503F1100493F90020CA
:10025C005D78072AC8BF143A81180D739D78043352
:10026C00855413F8012C9C420A76EFD130BD00BFA7
:10027C001C98010823230370002343708370C37000
:10028C00704738B1002914BF0021102183880268FF
:10029C008B4013617047074B984201BF064A538B42
:1002AC0001339BB203BF5383508B80B24FF0FF30AE
:1002BC00704700BF003800406433002070B5012443
:1002CC00B0FBF4F58D4202D21CB91C7070BD4C43CE
:1002DC00F6E7B0FBF4F6092E0BDD002A14BF372528
:1002EC005725354404FB160003F8015BB4FBF1F40D
:1002FC00EAE73025F5E7026810B51146531C036098
:10030C0011F8024BD31C01605178036093781B04E5
:10031C0043EA0123111D0160D078234343EA0060B6
:10032C0010BD03685A1C02601A4612F8021B0260C8
:10033C00587841EA0020704703685A1C0260197013
:10034C007047002B2DE9F04106460F46144614BFAA
:10035C004FF030084FF02008069B13F8012B3AB9E8
:10036C002546002D0FDC24EAE47404E0013CF4E79C
:10037C00002CFBDC0024069D641B281915F8011BBE
:10038C0031B9BDE8F08141463046B847013DE8E758
:10039C003046B847F1E770B50446A56808462B1DF2
:1003AC00013544F82310E168A56018F08DFA6668F1
:1003BC00E060B54204BF0023A360A368043354F883
:1003CC00231018F07FFA0546E0602068864207DBB0
:1003DC00304618F02DFB0146284618F031FC70BD54
:1003EC000130206018F024FB0146284618F028FC48
:1003FC004FF07E5118F068FAF1E7F8B50E46044656
:10040C000168304618F068FB616918F05DFA6168A4
:10041C000546304618F060FBA16918F055FAE16802
:10042C000746284618F058FB0146384618F04AFA99
:10043C00A1686061304618F04FFB216906462846DA
:10044C0018F04AFB0146304618F03CFAA0612846E9
:10045C00F8BD38B5044625680846294618F032FA26
:10046C00616818F039FB294618F02EFA206038BD67
:10047C00084670472C2303700223437070470123F6
:10048C0080F854307047437F13B1012B04D0704770
:10049C004FF48063838270474FF40063FAE7026D78
:1004AC0070B515880446ADB2A90606D5436B23B9C1
:1004BC00C36AA3B19088216B98472B060ED5A26A0C
:1004CC00616A236D8A4217D0511CA069A162825CBB
:1004DC009A802369994201D30023A36270BDE1691C
:1004EC00928840694E1CD2B2E6614254E169E268DE
:1004FC00914228BFE361E0E7DA6822F08002DA601B
:10050C00ECE70346022210B41C7B1968A240006978
:10051C004A605A6810BC136823F001031B041B0CBF
:10052C0013604DE6022310B50168047B0A68A340F2
:10053C001A420AD00024054A40681470026822F05E
:10054C0001021204120C02604B6010BD9C140020BE
:10055C0008B540F2E933028992070BD540F2E93332
:10056C0089B281810289D2070CD4013B9BB2002B4A
:10057C00F8D103E0013B9BB2002BECD1FFF78BFED3
:10058C00C0B208BD8089FBE724234343F0B59A4CE5
:10059C009A4AE118E3585B689F8ABFB2FEB216F024
:1005AC00010F4BD01D8825F400652D042D0C1D80EA
:1005BC001D8845F480651D80002515708D7E85B3E2
:1005CC00557815B9C97DFF292BD1012151702421F2
:1005DC0001FB0041097E022902BF198841F4006128
:1005EC001980242101FB0041897D41F00101198210
:1005FC00242101FB0041097E92F9005001318D420A
:10060C000ED10021517092782AB19A8822F440724E
:10061C001204120C9A80242303FB00400023437520
:10062C00F0BD242101FB00418D7D05F0FE051D82EE
:10063C00C97DFF29DCD0FF211170D9E7B50742D560
:10064C00BFF35F8F0D7EEDB2012D16D1897EA1B166
:10065C00517891B1198821F480610904090C198031
:10066C00BFF35F8F198B1988957041F40071198055
:10067C00998841F480619980BAE7198BBFF35F8F39
:10068C00242101FB00410D7E022D0FD1897E69B121
:10069C00517859B1198821F480610904090C198029
:1006AC00998821F480610904090CE4E7242101FBF9
:1006BC0000410D7E032DDBD1897E0029D8D05178E5
:1006CC000029D5D0ECE716F0040F92F9005051D068
:1006DC0001268F7E96705678002F37D0002E36D09C
:1006EC000F7EEEB206F1010C022F4FFA8CFCD1F802
:1006FC0020E01F881BD927F480673F043F0C1F8024
:10070C001F8A0236FFB20EF805701D880F6A45F479
:10071C0000751D801D8A1670E9B207F80C109988B7
:10072C0041F4806199801988C905FCD460E747F4CD
:10073C0000771F801F8A0336FFB20EF805701D8AE2
:10074C000F6AE9B207F80C101670ECE726B92421F1
:10075C0001FB0041497E31B11988013541F400712A
:10076C0019801570DFE7198841F480711980012117
:10077C005170D8E716F0400622D0B3F810E00F6A9B
:10078C005FFA85FC5FFA8EFE0CF1010607F805E0B6
:10079C0076B20D7EF11C8D42167005D1998821F42C
:1007AC0080610904090C9980242101FB0041097E18
:1007BC008E427FF41DAF0CF1020C82F800C017E7DB
:1007CC003F067FF515AF6F1C0AD0CF696E1C7D5D9F
:1007DC0076B21D82097E1670B1427FF409AF5FE7D5
:1007EC00CD7D16701D828D7E002D7FF459AF097E54
:1007FC0000297FF4FDAE53E7843300207C060020F3
:10080C0010B5064C228822EA00009042208002D0CB
:10081C0001200FF07FFA208810BD00BF24180020A3
:10082C00F8B5684B07461B78674C13F0010F674E01
:10083C00674D43D1674AE178138852889A1A002A87
:10084C00B8BF52428B4202D32078984275D2B3EB98
:10085C00410FCCBF012100213078A0F1030CBCF179
:10086C00010F71D800296AD0022A1ADC21785A4863
:10087C0093FBF1F30133082BA8BF08230370A07876
:10088C009BB25843DFF870C10021ACF800006078CF
:10089C00317043435148297003806420504B587089
:1008AC005960504B1B78022B08D1022ACCBF002276
:1008BC00012249494C4B0978DA8099803378012B15
:1008CC005CD050D3022B69D0E37A53B1238943B166
:1008DC00414B1B782BB10EF05BFD002865D1022338
:1008EC002B702179327863291AD8022A3C4B06D115
:1008FC00187820B90120187064205F60587018783F
:10090C0070B15868394E381AB042DDBFC1F164017C
:10091C00484337495970DEBF90FBF1F06430587092
:10092C002B78934238BF1346324A1370A27A1AB10D
:10093C00012B40D0022B43D0F8BD01218CE70328BA
:10094C00AFD0022A04DDACE7022AAADC0029A8D128
:10095C00032333702B7000231F490B7026490B8027
:10096C001E490B809DE71B4B617B1A88224B1B8811
:10097C005B1A9A42A8DC01233370A5E7154B617B07
:10098C001A88164B1B885B1A9A4201DC0223F3E788
:10099C00194B1B88934297D20023EDE70D4B1A8815
:1009AC000E4B1B889A42E6D88EE7237B83422CBFE2
:1009BC000123002394E70820BDE8F8400FF03CB871
:1009CC000720F9E7980A0020B80A0020B434002068
:1009DC00C4340020880E0020990F0020B834002069
:1009EC00BC340020BD0B0020BE0B00207F9698006D
:1009FC00806967FFB30A0020B63400202DE9F04768
:100A0C00054689464FF000474FF00008038A868957
:100A1C001E400EB9BDE8F087B6FA86F327FA03F24A
:100A2C00D2431B3B91B229821640042BF1D8DFE84C
:100A3C0003F02824201A0300D9F8244084B1013C87
:100A4C00A4B2C9F82480D9F820A0BAF1000FE0D0E4
:100A5C00DAF80030504621469847DAF804A0F4E75B
:100A6C00AC8DA4B2EFE7D9F80000A98E03689847C3
:100A7C00CFE7D9F80400298FF8E7D9F80800A98F37
:100A8C00F4E7D9F80C00B5F84010EFE72DE9F04188
:100A9C0001270B4DDFF82C802C686A6914400CB9C7
:100AAC00BDE8F081B4FA84F3C3F11F0358F82300B6
:100ABC0007FA03F60368984724EA06046E61EEE72A
:100ACC0000040140F43100202DE9F341056906468C
:100ADC000F46002D3BD1D0F80080C8F3090373B347
:100AEC0000234FF40050D6F80080019309F047FF23
:100AFC00042821D12A4C4FF40050236943F0010300
:100B0C002361BBB2A8F8003009F039FF04283CD1AE
:100B1C0008F102030193019B3F0C1F804FF400501E
:100B2C0009F02DFF2369042823F001034FEAC34386
:100B3C004FEAD34323612FD06FF0010507E04FF448
:100B4C00302009F01CFF042805D04FF0FF35284653
:100B5C0002B0BDE8F081124C4FF43020236943F011
:100B6C0002032361C4F81480236943F0400323611A
:100B7C0009F005FF2369042823F002034FEAC3435D
:100B8C004FEAD3432361ABD0DFE7236923F00103A2
:100B9C00DB04DB0C2361CFE7336804333360D6E727
:100BAC0000200240F8B504460D4600278E18B542C9
:100BBC0001D12069F8BDE368591CE16015F8012BDF
:100BCC00234404291A72F2D1A1682046FFF77CFF56
:100BDC00C4E90370EBE710B5054C22881043904232
:100BEC00208002D001200FF095F8208810BD00BFA6
:100BFC0024180020024A136823EA00001060704792
:100C0C00EC0A0020024A136818431060704700BFBA
:100C1C00EC0A0020022828BF0220064B064A187056
:100C2C004E2303FB0023054A0130C0B213600FF0C2
:100C3C0071B800BF3A0F00205C3C0020F81900206E
:100C4C00F8B53D4B9A89D989914228BF0022598A1F
:100C5C0028BF9A811A8A914228BF0022D97828BFCE
:100C6C001A8239B1072905D0012234489A700270D2
:100C7C000022DA71D8799A7860B1102AB8BF1022A4
:100C8C009A702F4A92F85C200A2A07D00C2A2AD094
:100C9C002C4C04E0032AB8BF0322F1E72A4C29B1FB
:100CAC00072903D00A2A0CBF284C294C00B1294C27
:100CBC00294DAA78022A97BF2849264E01EB8201BA
:100CCC000E69297989B1013A032A0BD831464FF0C4
:100CDC007E5017F0B5FF18F0BBFC2B88984228BF4C
:100CEC0018462880F8BD1E4CD9E7987817F0A0FE5E
:100CFC00214617F0F1FE0746104D2C78204617F0D0
:100D0C0097FE394617F0E8FE0146304618F0A0F879
:100D1C000028E7D03946304617F092FF18F0B8F8A3
:100D2C001028A8BF10200128B8BF0120C3B29C42D4
:100D3C0088BF20462870D5E726110020840F00209C
:100D4C00441100206F1203395304E9380F506E3AE6
:100D5C006F12833A6F120338641800201C98010834
:100D6C000AD7A33938B50C4C0C4DAC420DD300222C
:100D7C000B4B0C491A705A700B4B0C4A0C481A60EE
:100D8C00BDE8384008600AF037BD616820460EF0B7
:100D9C003DFB1434E9E700BFD4D7010894DB01080C
:100DAC003A0F0020F819002034350020683A002052
:100DBC005C3C002070B50C2946D8DFE801F00745F3
:100DCC0045454645454582454545BC00038C15883F
:100DDC0023F001031B041B0C0384038C8488018BFC
:100DEC0023F0020321F073010904090C29435688EE
:100DFC0015891B0435431B0C2B43664DA4B2A8422A
:100E0C000FD005F50065A8420BD005F54065A8424A
:100E1C0007D005F58065A84203D005F58065A8428A
:100E2C000DD1558923F008032B43958823F0040337
:100E3C002B43D689958924F4407435432C43D288AE
:100E4C00848001838286038470BD038C148823F014
:100E5C0010031B041B0C0384038C8588018B23F06B
:100E6C00200321F4E6410904090C41EA04215688C7
:100E7C0014891B0434431B0C43EA0413454CADB2D8
:100E8C00A04289B29BB203D004F50064A04213D1F6
:100E9C00548923F0800343EA04134FF6BF741C40BB
:100EAC009388D68944EA0313948925F44065344326
:100EBC0045EA84059BB2ADB2D28885800183028756
:100ECC00C1E7038C148823F480731B041B0C03846C
:100EDC00038C8588818B23F4007321F07301090442
:100EEC00090C2143568814891B0434431B0C43EA18
:100EFC000423284CADB2A0429BB203D004F500648D
:100F0C00A04213D1548923F4006343EA04234FF61F
:100F1C00FF341C409388D68944EA0323948925F432
:100F2C004055344345EA04159BB2ADB2D288858056
:100F3C008183828787E7038C158823F480531B04F5
:100F4C001B0C0384038C8488818B23F4005321F4C1
:100F5C00E6410904090C41EA0521568815891B0450
:100F6C0035431B0C43EA05330A4DA4B2A84289B29F
:100F7C009BB203D005F50065A84205D1958924F4F0
:100F8C00804444EA8514A4B2D28884808183A0F87A
:100F9C00402058E7002C014030B580B10022094CAC
:100FAC0004EB02131D79854203D19D79294204D1AA
:100FBC0019B101320C2AF3D10023184630BD034677
:100FCC00FBE700BF6C9901080149024816E500BF18
:100FDC009428002000080040014902480EE500BF9B
:100FEC006C2800200004004001494FF0804005E5CA
:100FFC00442800200149024800E500BF1C280020BD
:10100C00002C0140FFF7F6BF1FB50023ADF80A30E6
:10101C00ADF806308DF80C30074B01391B68ADF874
:10102C000810B3FBF2F204A9013A21F80C2D09F0D7
:10103C00A8F805B05DF804FB0004002073B5044665
:10104C000068FFF7E1FF22681649138843F001039B
:10105C001380002351F8334001EBC300A2421CD192
:10106C0045790124002601A88DF804508DF805401F
:10107C008DF806608DF8074009F036FD1B2D0AD15E
:10108C0040F2191301A8ADF804308DF806608DF804
:10109C00074009F029FD02B070BD0133042BD9D1F2
:1010AC000025DEE79CAD01080B4B800A98420FD05F
:1010BC0004D8B0F5801F09D0FE207047074B98422A
:1010CC0008D049339842F7D100207047012070476F
:1010DC00022070470320704701001000020010002E
:1010EC00F8B5046805462046FFF7DEFF032840D814
:1010FC006E794FEA960C31B965460227A389AF4049
:10110C0023EA0703A3810A2505FB00C51C4B43F802
:10111C002510043543F8252031B10222A189B608E7
:10112C00B2400A4392B2A2812825454305F1200220
:10113C001A44EFF31186502181F31288114F05F1F7
:10114C000C0119443D4451F8047F17B117600A682B
:10115C000432A942F7D100211160F2B282F3118856
:10116C00282202FB0030036A23B1A38943F0010358
:10117C00A381F8BDA38923F001031B041B0CF7E723
:10118C001C280020382800201E4B30B55B681E4AF6
:10119C00C3F308039BB9EFF3118383B91B491068A0
:1011AC008C6800BF13689842F9D14FF47A72184BCF
:1011BC00196802FB01F31B1BB3FBF1F31EE0EFF309
:1011CC001181102383F31288104CA568236813F443
:1011DC00803F18BF01200F4B1CBF5860A5681468D6
:1011EC005868CAB282F311884FF47A72084B2044C3
:1011FC00196802FB01F35B1BB3FBF1F302FB00303C
:10120C0030BD00BF00ED00E00809002010E000E058
:10121C00DC3100207C06002038B50446FFF7B4FF13
:10122C000546FFF7B1FF401BA042FAD338BD10B5FD
:10123C00044614F1FF3400D210BD4FF47A70FFF75E
:10124C00EBFFF6E7EFF31183102282F312880649C5
:10125C00DBB20A6801320A600021044A5160044A78
:10126C00126883F311887047080900207C0600205F
:10127C0010E000E00F4B01461B8843B90E4B186879
:10128C000E4B1B780BB981F00101FEF7FABF0C4A2B
:10129C0053696BB1106849B10A4B19880A4B93FB1F
:1012AC00F1F39BB203800123537470470180517496
:1012BC00704700BF30330020343300203833002017
:1012CC003C3300205433002020A10700014B9868C8
:1012DC00FFF7E5B8C82C0020014B1868FFF7DFB802
:1012EC00C82C002003685B6A03B118477047036879
:1012FC001B6A03B11847704703689B69184703685A
:10130C005B6918470368DB68184703689B681847D4
:10131C0003685B68184703681B6818472DE9F74F8B
:10132C0005460AF055F9B54B1E78002E40F0FC82AC
:10133C00B34B1A68984612F4806F00F0F582B14BEB
:10134C001B78012B40F0CD80AF4B1B68002B00F0BD
:10135C00C880AE4CAE4AA368EB1A934240F3C180EE
:10136C00237BA56001332373AA4B1B6899071CD5FB
:10137C002427DFF8F092DFF8F0A2A9F1240BBBF8D8
:10138C00140017F055FB014659F8040F17F058FCE0
:10139C00514617F0A1FB17F07BFD01B2384601371F
:1013AC00FFB20AF055F8272FE9D1237B5A0773D1E6
:1013BC00994B0220B3F956100A2391FBF3F10AF072
:1013CC0047F8964B964F1B7813F0010F00F00F81E6
:1013DC0014F062F9934B94498146D86817F07CFB62
:1013EC0017F07CFD80B2B9F1000F05D1D8F80030B0
:1013FC0013F0100F18BF002001B203200AF028F8D8
:10140C007B79002B48D0894BDFF83CA219789946A0
:10141C00002900F0F180E28992FBF1F301FB132328
:10142C006422E381BAF8003002FB03134900B3FBDA
:10143C00F1F1E38906201B019BB243EA0123C1F3BE
:10144C000321194309B20AF003F8794AE389507A67
:10145C0001330128E381BAF8001099F8003040F00C
:10146C000981392009B209F0F3FFBB79A3B10A2332
:10147C00DFF8DC912820D9F8001091FBF3F109B2C8
:10148C0009F0E6FF3B89002B00F011810DF080FF85
:10149C0001B2042009F0DCFF237B282B1DD1002393
:1014AC004EF660212373634B3C271C681720B4FB5A
:1014BC00F1F3B3FBF7F107FB1131090209B209F0A3
:1014CC00C7FF4FF47A71B4FBF1F1B1FBF7F307FBF3
:1014DC001311182009B209F0BBFF574B5E201B6893
:1014EC009847564B534F1B78002B6ED0474C544AA1
:1014FC002369EB1A93423ED90022524B9A701A710F
:10150C00514A1288D1B2120A9977DA7719755A753D
:10151C0039686269891A464A907A4FF47A72424362
:10152C0091420AD33A686261484A1278013A012A18
:10153C009FBF10229A7002221A710A20444A256118
:10154C001168926891FBF0F192FBF0F283F8202085
:10155C00121283F82120F4229A760122DA763022B4
:10156C0083F82220752283F8232078221977091218
:10157C00597783F82420374ADFF8F0901378934694
:10158C0001939BB9344A10680092FFF7C1FEC0B2B8
:10159C0001280BD9DDE900230228DFF8D4A000F0E4
:1015AC008C8009F029FF01238AF80030D9F800203B
:1015BC005AB19BF80030002B00F0A88040F6B731F0
:1015CC00236AEB1A8B4200F2B8803B680093234BE2
:1015DC001B78012B40F00D81214D2B68002B00F066
:1015EC0008810A4CDFF888904FF0000ADFE00521F3
:1015FC003889B0FBF1F0FFE6E1811AE70C1100200D
:10160C00500C0020811400203C0D00207C06002092
:10161C0047E80100FC19002044110020980A002022
:10162C00B80A00209C0A0020CDCC4C3E990F00201B
:10163C00440D002008090020140900208A14002001
:10164C003F0D030071340020880E0020B30A0020E7
:10165C00900E00204C140020401400208B1400200D
:10166C00380D0020500E002000007A444814002051
:10167C0000000020127B01EB81011FFA81FA12B1EC
:10168C000BB19AFBF3FA4FF0640BBAFBFBF93A205F
:10169C000FFA89F109F0DCFE0BFB19A14FF00A09D6
:1016AC0089B2053191FBF9F13B2009B2DBE6D9F89F
:1016BC00081081F3100109B2EBE69AF8001009B199
:1016CC00A56171E7A369EB1AB3F57A6FFFF46EAFFE
:1016DC00012310688AF800300092FFF713FE82464F
:1016EC00009A1068FFF70EFE1AF07F0F7FF45EAFC2
:1016FC008E287FF45BAF9BF80030002B7FF456AF45
:10170C00B14BC9F800302D2323774FE7AF4B0221A3
:10171C001868AF4B1B689B781E3B012B0AD9043011
:10172C0009F046FE01238BF80030002384F82430A6
:10173C0025624AE7FFF7E0FDF4E7237F13B909F0D0
:10174C006BFEF5E794F825C0013BA048DBB20CF129
:10175C00010C237794F8241000685FFA8CFC3BB9D9
:10176C004B1C84F8243084F825C0FFF7D4FDDFE748
:10177C00134613F801EB84F825C001EB0E0284F834
:10178C002420C9F800307146EFE72868FFF7BAFD4E
:10179C0081B27E2940F0CB80012384F826B084F8F6
:1017AC0027B084F8283089F801B0C4F82CB0286828
:1017BC00FFF7AEFD20B1D4F82CB0BBF1000FE4D094
:1017CC00FFF7E2FCE36BC01AB0F5FA7F11DBDFF830
:1017DC002C92DFF82CA294F8263043B1009A3B6887
:1017EC0001329A4200F21081002384F82630002343
:1017FC00E362784B1B78002B00F09680764B1B68CD
:10180C00002B00F09180754C3D68636CEB1A632BD8
:10181C0040F28A800A27DFF8EC81412009F09DFD17
:10182C00B8F9020090FBF7F080B209F08DFDB8F921
:10183C00000090FBF7F080B209F086FDB8F90400C7
:10184C0090FBF7F080B209F07FFD09F055FD94F89C
:10185C004830D80745D4624B1B88D90513D4DA0617
:10186C0000F103829F0600F10282580600F101820A
:10187C00190700F10082DA0700F1FF8113F0020F63
:10188C000CBF01260326574B1F78574B07F0010757
:10189C00DB780BB147F00207532009F05EFD534B88
:1018AC00188800EB800000EB8000800080B209F00B
:1018BC004BFD002009F048FDFE204D4B1B88584382
:1018CC0040F2FF3390FBF3F0C0B209F01FFD002093
:1018DC0009F01CFD47EA8600C0B209F017FD09F0BB
:1018EC000BFD94F848309BB94F2009F036FD09F0F8
:1018FC001DFD09F01BFD09F019FD012009F006FD85
:10190C003C4B187800F0010009F000FD09F0F4FCE4
:10191C000A2194F8483065640133DBB2B3FBF1F271
:10192C0001FB123384F8483003B0BDE8F08F99F80E
:10193C000130CBB994F82820CAB11B2984F828307F
:10194C000AD12868FFF7E4FC58B90123E06284F857
:10195C00263089F801302AE70D2902D12386E3626B
:10196C0025E7012389F80130C4F82CA01FE77D2955
:10197C0004D10123E26284F8323018E794F8323053
:10198C0023B180F02000C1B284F8322094F82730C3
:10199C00228E062B0A4492B207D8581C234484F892
:1019AC00270083F833102286DEE7012389F8013003
:1019BC00D3B203EB1222FF2A2286D5D10E4BE3625F
:1019CC00FFF7E2FBE0630FE67134002040140020C7
:1019DC004414002098140020381400207C060020A9
:1019EC0024180020980A0020C80A0020880E002025
:1019FC00B00A00203C180020AF060020FC19002083
:101A0C000000C842E636002094F840309C4A02EBB5
:101A1C0043039D8B1DB984F840504FF4036594F833
:101A2C004030B5F5826F03F1010384F8403000F0CB
:101A3C00C48059D8B5F5007F00F09F800DD8B5F55E
:101A4C00807F03D0B5F5887F7FF4C5AED9F8003020
:101A5C005B077FF5C0AE002199E0B5F5047F70D02F
:101A6C00B5F5806F7FF4B7AE94F8413042F2107147
:101A7C000133DBB2032B88BF012384F8413094F887
:101A8C00413059437F4B1B68002B40F0948001314F
:101A9C007D4B1B78D8077D4B48BF04311B88DA0778
:101AAC0048BF0A319D0748BF1431180648BF28317A
:101ABC00DA0548BF28315D0748BF6431180748BFB5
:101ACC00C8319A0548BF01F5C8719D0648BF01F59C
:101ADC007A71D80648BF01F5FA615A0648BF01F57C
:101AEC007A614FF480603FE0B5F5E26F5FD019D8B2
:101AFC00B5F5C06F4DD0B5F5E06F7FF46CAE5146C7
:101B0C00634B986A019316F0E7FF019B8346988A12
:101B1C0016F08EFF0146584617F092F817F0DEF9D2
:101B2C00014634E0B5F5046F3BD0B5F5116F00F00C
:101B3C008B80B5F5E46F7FF44EAE554B5146186B68
:101B4C00E0E7544B5B79002B3FF445AE524B1B7BCB
:101B5C0083B1524B197819B1514B1B8893FBF1F19E
:101B6C000A234FF40470594309F010FC002384F845
:101B7C00263030E64A4B1988F2E7464B9B79002B0E
:101B8C003FF429AE474B19680A2391FBF3F1284621
:101B9C00EAE7404B9B79002B3FF41DAE414B996813
:101BAC00F5E70A21404BB3F904305943EFE7384BC2
:101BBC005146D86AA6E702316AE7D9F8001011F04D
:101BCC00200B7FF408AED8F80020130606D5594632
:101BDC00284609F0DBFB84F826B0FCE52E4BDB7ABB
:101BEC00002B3FF4F8AD94F84230032B2AD8DFE8F1
:101BFC0003F002171D232D4A12681078D5789179BD
:101C0C00090401EB0521014401EB03610133DBB253
:101C1C00042B08BF00234FF4826084F84230A3E702
:101C2C00224A126850781579D179E9E71F4A12686F
:101C3C0090785579117AE3E71D4A1268507A957AB3
:101C4C00D17ADDE70021DFE7124B5B79002B3FF403
:101C5C00C2AD124B197829B1114B1A880A23534380
:101C6C0093FBF1F14FF411607EE70D260BE609268C
:101C7C0009E6042607E6082605E6022603E600BF69
:101C8C001C980108EC0A0020980A00202418002057
:101C9C002C0E0020B80A0020440D0020990F0020C3
:101CAC00880E0020900E0020E6360020F819002047
:101CBC0034350020036870B5DB6906460C461546C2
:101CCC007BB90D442B1B002B00DC70BD3046FFF79D
:101CDC001CFB0028FAD014F8011B3046FFF71BFB45
:101CEC00F0E7BDE870401847E4E7024BD86CFFF70B
:101CFC0012BB00BF7C0600200123084A83401278E7
:101D0C001340074A52F8200021B1191C18BF0121B9
:101D1C00FEF7B7BAB3FA83F14909F9E7E1310020CC
:101D2C00E831002080B501210220FFF7E5FF144BBC
:101D3C001B7803F00503052B12D1124B00241868F5
:101D4C0017F0A6F8104B114F1D7806B2AC4210DB01
:101D5C000F4B1B780BB112F06BFE3220FFF767FABA
:101D6C0000210120FFF7C8FF00210846FFF7C4FF40
:101D7C00FEE7304616F05CFE47F824000134E5E738
:101D8C00E031002010110020640E0020680E0020AD
:101D9C00D71A0020054B53F8202032B193881268D3
:101DAC00D1680B4218BF1B0413617047E831002047
:101DBC0038B50D46012104460846FFF79DFF00216A
:101DCC000846FFF799FF013CE4B2FF2C00D138BD67
:101DDC000120FFF7DFFF0020FFF7DCFF0120FFF7FA
:101DEC0049FA2846FFF723FA0120FFF7D3FF00201A
:101DFC00FFF7D0FF0020FFF73DFA2846FFF717FA50
:101E0C00E1E738B50C460130C5B214F1FF3400D20D
:101E1C0038BD32210520FFF7CBFF4FF4FA70FFF7E6
:101E2C0006FA2846FA21FFF7C3FF4FF47A70FFF742
:101E3C00FEF9EAE708B50A21FFF7E3FF034B044A72
:101E4C001A60044B044ADA6008BD00BFF04F002052
:101E5C00EFBEADDE00ED00E00400FA0510B504099C
:101E6C00013C022C00F00F0216D80C4B33F8141066
:101E7C0041FA02F313F001000DD00120904001381B
:101E8C00084017F04BF8064B1C4494F842300344BE
:101E9C00044800EBC30010BD0020FCE794AD010822
:101EAC001C980108F41A002010B5074B0C461B684F
:101EBC001844007EFFF7D2FF20B12146BDE8104048
:101ECC00FEF7DFB910BD00BF5833002037B50D4603
:101EDC000446D0B103680E4A03F14043A3F58433A2
:101EEC0002EB932393F8450008F000F9A38801A9AD
:101EFC00ADF80430206805F0030305F07C058DF87F
:101F0C0006308DF8075008F0E7FC03B030BD00BF79
:101F1C001C98010810B1036882885A61704710B18F
:101F2C00036882881A61704730B1036882889B68A5
:101F3C001A4214BF01200020704728B18088B0FAE3
:101F4C0080F0C0F11F0070474FF0FF307047FEF774
:101F5C009DBDFEF79BBDFEF799BDFEF797BDFEF745
:101F6C0095BDFEF793BDFEF791BD10B5427A0446C0
:101F7C0032B1036800F10A0140689847002363728C
:101F8C0010BD034A136823EA00001060704700BFBD
:101F9C00F01A00202DE9F8430AF046FFB64CB74F73
:101FAC00DFF85083A4F11400B842C0F05381B44A56
:101FBC001178A1F11703022B12D9B24BC80013F8F8
:101FCC00314024B11C1864680CB9172414700344F4
:101FDC005B782BB1AC4B13F831300BB91823137061
:101FEC00AA4BAB4E5A78052A84BF00225A705978F6
:101FFC0005299FBFA74A02EB0112A7490A601A786C
:10200C00022A84BF00221A701B78022B9FBF4E211C
:10201C00A24A01FB0323336033685A8C998C91429A
:10202C0024BF00225A849E4B9A78042A40F01481D3
:10203C009A8AB2F57A7F02D24FF47A729A82FEF7BC
:10204C00FFFD9849984A0B681A4012B943F00103F6
:10205C000B600B68DC0702D59448FFF792FF0B6806
:10206C00580402D59248FFF78CFF0B681A0702D56B
:10207C009048FFF786FF0B689B040FD58E48FFF73F
:10208C0080FF4FF40040FFF77CFF8C4B40209A7987
:10209C00012A04BF00229A71FFF773FF0025884FB5
:1020AC002C46B9464FF0FF08EA5B530803F0773330
:1020BC00900800F03330D31A1B1AD00800F01130FE
:1020CC001B1A03EB231303F00F3393FBF8F012F0FE
:1020DC000101C0EB002018BF0134A3EB000318BFB3
:1020EC00E4B2012B0ADD022B0ED111B112F42F7FB9
:1020FC0004D109EB050009F0C3F928B10835282DE6
:10210C00D2D1013C022C02D96D480CF090FE8020FB
:10211C00FFF737FF4FF40070FFF733FF4FF48040A9
:10212C00FFF72FFF4FF40030FFF72BFF4FF4802009
:10213C00FFF727FF4FF40010FFF723FF4FF000705D
:10214C00FFF71FFF4FF08060FFF71BFF5D4C4FF058
:10215C000060FFF716FF4FF00050FFF712FF15F06D
:10216C00D3FC3022002104F1500017F0C7F930687D
:10217C0012F03CFC002013F0F9F8534A534B117940
:10218C0064224A4380F001001870514BC8325A60E7
:10219C0000223568C3E90222C3E90422C3E90622FE
:1021AC0083F8202083F821204A4BC4F880504A4DF4
:1021BC00C4F884300AF0D4FD484B28881E8816F0E9
:1021CC0037FC474916F088FC464C6060688816F06E
:1021DC002FFC434916F080FC6B79206023722B791D
:1021EC003046637216F024FC01463F4816F028FD79
:1021FC003E4B1860BDE8F8430AF000BE15462E8829
:10220C00AEB3AA19424532D2052E30D934F8143C5B
:10221C006988C3F30B039942F0D16B799B07EDD11D
:10222C0054F8101C95F804900DF0F0F834F8143CA8
:10223C00B9EB133F0CD134F8123CB21FC3F30B03B0
:10224C009A42A8BF1A46A91D54F8100C17F03CF876
:10225C001434A7E6264DD2E7002A7FF4F0AE1A8894
:10226C00B2F5F07F84BF4FF4F0721A80E7E654F8B1
:10227C00101C0DF0CBF8EBE7E8D7010894DB010854
:10228C00001A0020DCB3010804B301083A0F002047
:10229C00F8190020683A0020343500205C3C0020FE
:1022AC0064180020F01A0020096000020860000287
:1022BC00092000020160000209400002B80A002057
:1022CC00CE1300207C06002050370020A0040020F4
:1022DC00C80A0020301A0020082D0020F8390020F0
:1022EC0017B7D13834370020C0C9FB48FC3900205F
:1022FC0002F80108000002082DE9F84302780346B1
:10230C00202A00F10100F9D0092AF7D02D2A4ED14C
:10231C000346464D1C460026DFF81481234614F86C
:10232C00012BA2F13007F9B2092946D92E2A09D17D
:10233C0027463F4CA0463B4617F8010B3038C2B23B
:10234C00092A47D91A7802F0DF02452A66D15A7851
:10235C002D2A4FD10127023300240A20013B13F808
:10236C00012F303AD1B209294AD9B4F59A7F28BF46
:10237C004FF49A744FF07E50A046DFF8B890B8F145
:10238C00070F40D86FF00702E30802FB0344DFF8A5
:10239C00A080002C3DD1002F42D00146304616F0D3
:1023AC004FFC0146284616F097FBBDE8F8832B2A14
:1023BC0008BF03464FF07E55ACE74146304616F059
:1023CC008BFB0646384616F033FB314616F07CFA8A
:1023DC000646A3E716F02CFB214616F031FC01460D
:1023EC00304616F071FA41460646204616F074FB4C
:1023FC000446A0E72B2A14BF013302330027ABE7B6
:10240C0000FB0424ABE7494616F066FBA8F108086C
:10241C00B5E7414616F060FB013CBAE74FF07E5041
:10242C000146304616F058FBBBE700BF000080BFEA
:10243C000000204120BCBE4C002330B50C4687B0B8
:10244C0000210546CDE90033029316F001FD294920
:10245C0000283DD0284616F037FA274916F03CFBE9
:10246C0016F016FD054680EAE07003A9A0EBE570B6
:10247C0008F012F8002DACBF20232D2303A88DF8F3
:10248C00003015F0F5FD012826D130238DF80130F0
:10249C008DF802308DF8033003A9684617F036F832
:1024AC00684615F0E5FD0338C5B22A466946204654
:1024BC0017F05AF8002311496355204617F026F8F7
:1024CC000DEB0501204617F021F8204607B030BD72
:1024DC00284616F0F7F9C0E7022805D130238DF80D
:1024EC0001308DF80230D7E7032804BF30238DF874
:1024FC000130D1E76F12033A00007A44AFD10108E2
:10250C0070B50646B6FBF2F40846154614B12046E3
:10251C00FFF7F6FF05FB1464024B1B5D00F8013B53
:10252C0070BD00BF2FB70108A0F16103192B98BF34
:10253C0020387047A0F14103192B98BF2030704709
:10254C0038B505460A44914201D100240CE015F837
:10255C00010BFFF7EFFF044611F8010BFFF7EAFF41
:10256C00241A01D10028EED1204638BD4FF0FF329D
:10257C00FFF7E6BF202805D0093804288CBF0020BF
:10258C000120704701207047613819288CBF00204A
:10259C0001207047413819288CBF0020012070475A
:1025AC00303809288CBF002001207047A0F130037F
:1025BC00092B07D920F02000413819288CBF0020A6
:1025CC00012070470120704738B504461546006855
:1025DC0016F07AFE22682A44226038BD03685A1C21
:1025EC000260197003685A1C02600A0A1A700368A8
:1025FC005A1C02600A0C1A700368090E5A1C0260FD
:10260C001970704703685A1C026019700368090A34
:10261C005A1C0260197070472DE9F04F82468B46A8
:10262C0015461C46002789B00DF1140829786E1C3C
:10263C0019B3252903D05046D847013746E06A78AC
:10264C004FF00009302A12BF00230123AA7802930D
:10265C00A2F1300314BFAE1CEE1C092B16D96C2A48
:10266C0040F08F803278751C642A4ED030D8252AE1
:10267C0000F084801FD8002AD8D1384609B0BDE8B4
:10268C00F08F0A2202FB093916F8012BA2F1300354
:10269C00D9B20929F5D9A2F16103052B04D8A2F10D
:1026AC0057030A2BEDDDDAE7A2F14103052BD6D84F
:1026BC00A2F13703F5E7582A18D0632AB6D12E4673
:1026CC0021785046D847251D01372C463546ADE7B5
:1026DC00732A47D006D86E2AA8D12E462368043414
:1026EC001F60F3E7752A0AD0782A9FD1A2F158000F
:1026FC00424204F1040643464241102103E04346A2
:10270C0000220A21261D206806E02068261D0028CC
:10271C001ADB434600220A21FDF7D0FD3446CDF8E2
:10272C000080029B4A4659465046FDF70AFE074474
:10273C007CE7206800280EDB434600220A21043483
:10274C00FDF7BCFD3546EAE72D2340428DF81430E9
:10275C000DF11503DEE72D2340428DF814300DF1F9
:10276C001503EAE72E4623684A4600935946002390
:10277C005046FDF7E6FD251D0744A6E72E4625210C
:10278C0059E7642AD5D00BD8252AF8D003D8002ACB
:10279C003FF473AF9AE7582A0CD0632A90D095E790
:1027AC00732AE0D002D86E2A98D08FE7752A0DD004
:1027BC00782A8BD1A2F158014A424A412068251D42
:1027CC0043461021FDF77AFD2C46BBE7231D0393EE
:1027DC002068434600220A21FDF770FD3546039C14
:1027EC009DE70FB437B50B4906AB0B4853F8042BD8
:1027FC00096800680193FFF70FFF0446074DE86C6A
:10280C00FEF77DFD0028FAD0204603B0BDE830402D
:10281C0004B07047D4310020D83100207C06002051
:10282C0070B520F00044214605464FF07E5016F05E
:10283C0049F816F047FF06461149204616F04CF9A8
:10284C00104916F041F8214616F046F90E4916F0DB
:10285C0039F8214616F040F90C4916F035F8314696
:10286C0016F03AF900210446284616F0D3FA20B1A6
:10287C002146074816F026F80446204670BD00BFD6
:10288C00306E99BC2716983D8434593EA40DC93F2F
:10289C00DB0F49402DE9F84321F0004520F00046BC
:1028AC0007468846284631462C4616F0C7FA00B92A
:1028BC0034460021204616F0A3FA002857D13146A1
:1028CC002846A94616F0B0FA00B9B146214648464A
:1028DC0016F0B6F904462749204616F0FDF80146D5
:1028EC00254815F0EFFF214616F0F6F8234915F0B0
:1028FC00EBFF214616F0F0F8214915F0E5FF2146D3
:10290C0016F0EAF81F4915F0DFFF1F4981462046F3
:10291C0016F0E2F81D4915F0D7FF214616F0DCF849
:10292C004FF07E5115F0D0FF0146484616F088F95D
:10293C0031460446284616F06DFA20B1214614485B
:10294C0015F0C0FF04460021404616F063FA20B192
:10295C002146104815F0B6FF04460021384616F003
:10296C0059FA08B104F100442046BDE8F88300246C
:10297C00B1E700BF39094E3DE3B59E3E88FA163EDD
:10298C0045FE7F3FA7DFA83499FB243F69A2163E82
:10299C00DB0FC93FDB0F494070B5044616F078FADF
:1029AC00203040284DD8284D284E2946204616F078
:1029BC004FFA002830D1264D244E2946204616F0D9
:1029CC0029FA00282ED12349204616F041FA002876
:1029DC002ED021461C4815F075FF04462146204692
:1029EC0016F07AF805461C4916F076F81B4915F0D6
:1029FC006BFF294616F070F8194915F063FF29464C
:102A0C000646204616F068F80146304616F064F883
:102A1C00214615F059FF70BD2046314615F052FF86
:102A2C000446C2E72046314615F04EFF0446C4E783
:102A3C000C49204616F0EEF90028CFD02146044868
:102A4C00C9E70020E7E700BFDB0F4940DB0FC940B7
:102A5C00DB0F49C0DB0FC93F92E741B99730083C07
:102A6C0015A82A3EDB0FC9BF2DE9F84304461046D2
:102A7C001E460F4615F0D8FF38490546384616F065
:102A8C002BF80146284616F027F80746FFF784FF77
:102A9C0033490546384615F017FFFFF77DFF3146E1
:102AAC008046304615F010FF0146284616F0C8F84F
:102ABC009DF820300646012B3AD041464FF07E500F
:102ACC0015F000FF4FF07C51074616F005F84FF05B
:102ADC007E518146304615F0F7FE4FF040410546D9
:102AEC00404615F0F9FF314680464FF07E5015F008
:102AFC00E9FE06462946484616F0A2F829468146C4
:102B0C002060384616F09CF829466060C4F808909E
:102B1C00404616F095F82946E060304616F090F8DD
:102B2C0000232061A36163612362E361BDE8F88344
:102B3C004FF04041404615F0CFFF4FF07E51074615
:102B4C00304615F0C1FE314605464FF07E5015F06B
:102B5C00B9FEB84606464FF07E59CBE727D4D2369D
:102B6C00DB0FC93F002307B50093034BFFF77CFF36
:102B7C0003B05DF804FB00BFF304353F70B50D46A0
:102B8C00064615F051FF0446304615F051FF01463C
:102B9C00204615F0A1FF0446284615F045FF0546D2
:102BAC000146204615F098FF29460646284615F0A2
:102BBC0093FF0146204615F085FE0146304616F07F
:102BCC003FF870BD38B50C468D18AC4200D138BDFD
:102BDC0014F8011B0AF042F9F7E7F8B5174D2B78FA
:102BEC00A92B28D16B78BE2B25D1022229464FF672
:102BFC00FF70FFF7E7FF124FAC1C22884AB1A618F2
:102C0C00BE4218D2052A16D92146FFF7DBFF3446FF
:102C1C00F3E721460222FFF7D5FF0222A118FFF7A6
:102C2C00D1FF0634074B641B1C8041F60F53C31AAB
:102C3C0058425841F8BD0020FCE700BF00F80108DD
:102C4C00000002089C0F00202DE9F04F8BB00AF019
:102C5C00EBF80326DFF840914A4FA7EB0907102247
:102C6C00002106A816F04AFC474B484ACDE90497C8
:102C7C005A6002F188325A6001228DF824203422E5
:102C8C00DA60434B02221B88694604A8ADF8003079
:102C9C00FDF788FF022269464FF6FF70FFF792FF9F
:102CAC004FF0000B80463B4CDFF8F0A0544536D378
:102CBC0000250AAC24F8245D0222214604A8FDF765
:102CCC0071FF022221464046FFF77CFF40BAC04309
:102CDC000222ADF8080002A904A8FDF763FF0798CB
:102CEC0060B106ABC0F104022946184416F006FC8C
:102CFC00069904A8FDF7E8FECDE907509DF82430AD
:102D0C00089A23B120490B6943F080030B61013E03
:102D1C002DD0002AA3D1FFF760FF50B32CE06588BB
:102D2C0002A9C5F30B05AB1DADF80830238804A828
:102D3C00C3F30B02ADF80A201B0B06228DF80C30E6
:102D4C008DF80DB0FDF72EFF062202A94046FFF7C5
:102D5C0039FF804661682A4604A8FDF723FF6168A5
:102D6C0040462A46FFF72EFF143480469EE7002A81
:102D7C00D1D00520FFF75EF80AF040F80BB0BDE8A3
:102D8C00F08F00BF000002080020024023016745BD
:102D9C0068980108D4D7010800F8010894DB0108F1
:102DAC0008B5FFF751FFFFF7F5F8BDE80840012023
:102DBC000CF0B0BF2DE9F04FA64D85B06B682846DE
:102DCC009847002800F04381012305F12407B846F9
:102DDC00002485F83430A04BDFF8A0A293F80090C3
:102DEC0005F11606B9F1040F08BF338836F9020B4A
:102DFC0008BF2AF8143015F01BFE0134032C48F8D8
:102E0C00040FEFD1954B1B889BB13E4600244FF02D
:102E1C002409DFF86C8256F8041F09FB0480FDF7C7
:102E2C00ECFA16F015FC15F003FE0134032C30609F
:102E3C00F1D18B4EA97F8B4809F002FF33888A4C65
:102E4C00002B4FD0A0463B464FF0000A58F8849F09
:102E5C00A9F1020B09F104023188CDE90132B1F577
:102E6C00C87F08BFC8F804A058F8040F15F0E0FD9F
:102E7C00019B53F8041F0193039315F025FD16F0E5
:102E8C0007F80022019BC8F800001A60029A2BF880
:102E9C0002AF9345E0D13388012B20D14FF4C87198
:102EAC00D4F8883003F1C80292FBF1F2A9F80020A3
:102EBC00D4F88C20D4F89030C83292FBF1F2C8339D
:102ECC0093FBF1F3A9F80220AA8A9B1AA9F8043003
:102EDC00664BA3F80CA0A3F80EA0FFF761FF338894
:102EEC00013B3380624B1B685B077CD5B4F8948044
:102EFC00D4F88460B8F1320F53D13288A4F89620FC
:102F0C007288A4F89820B288A4F89A20574A91891C
:102F1C00D289A4F89C10A4F89E204FF0000B00233B
:102F2C00DFF86091A6F1020A0436B8F1320F08BF3F
:102F3C00C9F804B059F8040F019315F079FD57F84E
:102F4C00041F15F0C1FC15F0A3FF019BC9F800008C
:102F5C003B602AF802BF5645E7D1B8F1010F1AD1F0
:102F6C004FF000030B2084F8AC3084F8AD800CF0EB
:102F7C0063FDD4F88430B4F896201A80B4F8982005
:102F8C005A80B4F89A209A80384BB4F89C209A81D5
:102F9C00B4F89E20DA81B4F89430013BA4F8943054
:102FAC0002E0B8F1000FB8D194F8AE30DBB13220AA
:102FBC00D4F8A030D4F8841093FBF0F30B80D4F841
:102FCC00A430002293FBF0F34B80D4F8A83084F8A3
:102FDC00AE2093FBF0F3A88A1B1A8B80234B9A81AB
:102FEC00DA81FFF7DDFED4F88440B4F9000015F067
:102FFC001FFD0146A86A15F065FC8046A862B4F96D
:10300C00020015F015FD0146E86A15F05BFC074659
:10301C00E862B4F9040015F00BFD0146286B15F0BD
:10302C0051FC144A144C1368064601331360286390
:10303C004146206815F048FC39462060606815F060
:10304C0043FC31466060A06815F03EFCA06005B002
:10305C00BDE8F08F2C0E0020BD0B0020281A00209C
:10306C000A290020540E00207C0600202A1A002079
:10307C00500C00202437002028370020BE0B0020E5
:10308C003C1A00201807002001234A0901F01F01F7
:10309C0003FA01F150F822300B4340F8223070470C
:1030AC0001234A0901F01F0103FA01F150F8223003
:1030BC00194214BF0120002070472DE9F04FB04C8D
:1030CC0095B0237883462BB1AE48C368984780F0FF
:1030DC0001002070AC4B1A780192002A01F092800A
:1030EC0000220BF59C471A70A84B20371F60A84B89
:1030FC001C78002C00F0DB80A64A1268934501D99D
:10310C00013C1C70A44B1A68009312F4805F05D02C
:10311C00002012F067F908B90CF06CFD9F4B1B787E
:10312C00022B00F06A81042B00F0B481012B40F0DB
:10313C0081819B4CD4F83831ABEB0303002BC0F2EC
:10314C007981984BC4F838715A7C974B974D33F86A
:10315C00120015F06DFC4FF0894115F0BDFC0646D0
:10316C00A87D15F065FC924915F0B6FC0146304679
:10317C0015F066FD15F0B2FE40F2FF3380B2EA7D29
:10318C00984228BF18460AB1181A80B294F85821F0
:10319C00D4F85C3104EB4201B1F86051013202F019
:1031AC000F025B1B034484F85821824AC4F85C313B
:1031BC001B09A1F8600113803CE1072CD4BFA15D71
:1031CC00E1B2D8F804306F489847032C1ADCC8B128
:1031DC00794B33F8242003EB8401831A4FF47A7073
:1031EC0058434B889B1A90FBF3F040F6CA0300F54A
:1031FC007A709842A8BF184640F2EE239842B8BFA6
:10320C00184680B26D4B23F81400013495F80090E9
:10321C004C45D2DB6A4B1B6800936A4B1D781DB181
:10322C00694B1D7885F001050123684A0024137051
:10323C005E4B5B4E998CDB8CDFF8A8A10393564B4D
:10324C0002911B68069223F4FF5323F01E039B0488
:10325C009B0C04935E4B93F800800323B8FBF3F3B1
:10326C0003EB4303A8EB0303DBB25B00059306F10E
:10327C00D4034C4520D1554B514D1B78554C002B4C
:10328C0069D00A2012F0AEF8002864D12B68E268ED
:10329C00A3609B1AC82B05D90123042084F8213084
:1032AC00FDF7A8FC4A4A1378013313702AE74A4DFC
:1032BC003E4EDFF8D080A9E7002D36D03F4A32F8D9
:1032CC001400029A904230D3039A90422DD8009A5F
:1032DC0002F596724AF82420049A0FFA80FE002A0E
:1032EC0035D0062202FB04FC059903EB0C0222F8F4
:1032FC0001E096F81C1129B9B8F1020F10D901217F
:10330C0086F81C11508833F80C109288084410442D
:10331C00324A00B222F81400032290FBF2F080B281
:10332C002F4A22F814000134A3E75AF824200099FC
:10333C008A1A002AF7DBE0B2079309F035FD032C5B
:10334C00DCBF00220699079BD8BF0A70C4E7244A49
:10335C0022F814E0E7E701221B4B04201A70FDF75A
:10336C0051FC2B68A268E3609B1A6268934202D9F5
:10337C00002384F82130184B00241D78184E39E0B6
:10338C008C0C0020740C0020560C0020900C00209B
:10339C00D01A0020CC1A0020500C0020102D002038
:1033AC007C060020C4280020D828002050140020BF
:1033BC000000C842B00A0020882100202C07002001
:1033CC0008090020990A00206F0000203D180020F9
:1033DC00DD330020C80A0020703400209A0700203A
:1033EC00FC170020E0330020E0B209F0DDFC26F8E9
:1033FC0014000134AC42F7DB54E7B14AB149537DB8
:10340C00013B31F91300D37D1BB1C0F53B60083093
:10341C0000B2A0F57A7015F00BFBAB4915F05CFB14
:10342C0015F05CFD40F2FF3380B2984228BF18467D
:10343C00A64B1880A64BDFF8BCA29B4505D99AF881
:10344C00022012B901228AF802209AF80220DFF831
:10345C00A892002A68D09AF821500A2011F0C2FFD5
:10346C00012D08BF4FF0000899F80060994C9A4F55
:10347C0018BF06F00208029006F001069AF8202008
:10348C00052A4BD8DFE812F0130085008F00B0003E
:10349C00BD00D700FDF778FE904BD3F83C31C01A35
:1034AC008F4B9842C2BF0022884B1A80C2E75EB392
:1034BC0012F0F2F8012806D1642021687A8800FB0A
:1034CC000212CAF81020029B5BB1BA794AB111F012
:1034DC002FFF03228AF820204FF47A72CAF81C209E
:1034EC00CCE7012D1AD02268DAF81010914207D2DD
:1034FC0011F01EFF03228AF8202040F6B832EDE7C7
:10350C0001228AF82020B9E7029B4FF48060002B3F
:10351C003CD0FDF760FB0022CAF81020B8F1000F78
:10352C0002D040460CF088FA12F0B6F8009A654BBF
:10353C001268064612F4805FB3F90670604D03936F
:10354C0000F0AE801D2011F04DFF002840F0A88047
:10355C00644A147A002C40F0A3806FF47A717B18C3
:10356C0040F2E6319BB28B4200F2A8802B8BD288C2
:10357C0099188F4274DDFC1AA71A64247C43C3F596
:10358C00FA639B1A94FBF3F4E4B274E0FDF738F998
:10359C00C1E7012D01D10522B3E7FA79012AA7D0A1
:1035AC0011F0C6FE6AE7012D04BF05228AF820201F
:1035BC0056B14FF00308424AB2F91810414A118033
:1035CC00518091803988D1802268DAF814109142A8
:1035DC0004D3454A12780AB9002E3DD147F2305235
:1035EC00CAF81C2003228CE70220FDF70BFB0CF021
:1035FC0001FB2168DAF81C200A44CAF818200422BE
:10360C007FE7012D10D12268DAF81810914285D28B
:10361C00364B187820B911F0E5FE00287FF47EAF08
:10362C000220FDF7E7FAB6E72168DAF81C200A4415
:10363C00CAF8182072E7642021687A8800FB02120D
:10364C00CAF8102000224FF480608AF820208AF8F3
:10365C000320FDF7D5F811E7012D3FF40FAF5DE71F
:10366C009B1A9F4207DA6424DF1B7C43A3F57A7311
:10367C0094FBF3F3DCB212F001F899F800301C4F14
:10368C0003F00103002839D0C3B395F82220A242DD
:10369C0000F27D810121114A82F8401101223EE0A5
:1036AC0064246A8BBB1A5C43C2F5FA6294FBF2F495
:1036BC00642CA8BF642424EAE47465E76424DAE784
:1036CC0050140020FC1700206F12833FB00A00201A
:1036DC00404B4C0008090020503700207C0600208D
:1036EC0060E3160084370020E4370020A00400209B
:1036FC00F4370020C80A0020980A00200021AE4AA6
:10370C0082F84011002EC9D10021AC4A11605160E1
:10371C009160AB4A126892F82D20002ABED13A7003
:10372C00002B00F09581A74F7A78002A00F0908149
:10373C00A54B1B78002B40F08B81A44B1B78002BE6
:10374C0040F08681A24B1B78DA0600F18181009B48
:10375C001B68DB0605D511F091FF10B9002E00F0A7
:10376C0061813979A1422BD8002040F2E6394FF023
:10377C00640C984B2D8B93F800A093F80180C5F541
:10378C00FA6E6FF47A77944B02280CBF424652467D
:10379C0033F91030DF19BFB24F4519D8AF18BB42FF
:1037AC0040F3FF805B1B9B1A0CFB03F3AEEB020296
:1037BC0093FBF2F2D2B20E2A0AD801300328E0D1E0
:1037CC0049004B29A8BF4B21C9B2A14200F22A8162
:1037DC00824D8349686820F0004015F01BFB0028DF
:1037EC0000F0208128687E4920F0004015F012FB83
:1037FC00002800F01781A868794920F0004015F0E6
:10380C0009FB002800F00E81764B1A680AB9C3F840
:10381C0000B01A680AB9C3F800B06A4A1B6851882C
:10382C00714A4A2C126888BF4908D31A4FF47A722D
:10383C004A435B44934202D90122634B1A70694B91
:10384C001A686A4B1B78002A40F0F780202B08D1AD
:10385C00654B67491B688A804FF47A72B3FBF2F3AD
:10386C00CB80644D2B78DB0726D5009B1B68DF06CD
:10387C0022D5574A1278D4061ED4D8041CD411F081
:10388C00FDFEC8B95C4B4C4C1B78002B00F0FB8048
:10389C005A4B5B78002E40F0E480002B00F0F58052
:1038AC00574B1A68574B1B689B1A002B80F2ED8004
:1038BC000CF0A0F984F841610022474913460F46E9
:1038CC00514E748BB6F81CC031F912009B08A04203
:1038DC00C4BF63F07F03DBB201326045B8BF43F075
:1038EC004003042AF0D1344C94F842219A4240F01F
:1038FC00D380464AB4F944011268D169444A91FB19
:10390C00F2F202F5FF427F32904206DC4FF47A72FB
:10391C0091FBF2F10144A4F84411374A84F8423186
:10392C0092F80080B8F1000F40F0E680404611F0AC
:10393C0059FD002800F0B68084F847810CF0B2F8ED
:10394C002B78DB0700F1ED8094F84631002B40F02A
:10395C00E880B4F94431322B40F3E3802D4B1A68E4
:10396C0012F0200240F0DD800121009B84F846110A
:10397C00186894F84231572B40F06F84264B1A6824
:10398C00264BB3FBF2F3264AA2F8B030C9E0002E66
:10399C007FF484AE084A92F84021002A7FF47EAE70
:1039AC00B2E6AA1A9342BFF608AFD31A0CFB03F384
:1039BC00A2F57A72FCE600BF7C060020040E002003
:1039CC00F8190020840F0020F5370020F63700206E
:1039DC003C180020C83A0020FC1700205837002063
:1039EC000000C842EC2C0020F02C0020BD0B002065
:1039FC00BE0B0020980A0020A0040020CD3A002025
:103A0C0008090020E42C002050140020D4220020AF
:103A1C0018FCFFFFEC0A00201C0E0020C0C62D0075
:103A2C00441100202B4A106820B12B490B681B1A3B
:103A3C005B440B600023136001E7202B7FF411AF74
:103A4C00012326498B80244B1B689B1A5B4403E79C
:103A5C00234B1B78202B01BF0022204B9A80DA804D
:103A6C00FFE63BB14FF47A711E4A126801FB032347
:103A7C001D4A136094F84131002B3FF41DAF0BF03D
:103A8C00C3FF002305E0002EF4D110200BF0D4FF6F
:103A9C00012384F841310FE70022A4F8442184F873
:103AAC0046213AE7114B18602B78D9077FF54CAFBC
:103ABC000F4B1B78ABB30F4BDB7893BB94F84731B0
:103ACC000133DBB2032B84F847312AD90CF092F87E
:103ADC0036E700BFEC2C0020F02C0020BE0B0020A1
:103AEC00BD0B002008090020E42C0020E82C00204D
:103AFC00990A0020C80A00205F2B40F09483B4F987
:103B0C004431B3F5FA7F0CDB94F846314BB9012301
:103B1C0084F846312B7813F0010800F076830CF012
:103B2C0069F8009B1B68590725D594F8483183B177
:103B3C002B78DA070DD5B7F90620738B9A4208DD7E
:103B4C00002011F04FFC20B9322384F84801A4F86E
:103B5C009430132011F046FC002800F0288494F8CF
:103B6C00AC302BB994F8AD3013B93223A4F894309F
:103B7C00012384F8AC300026DFF8D493CDE90A6633
:103B8C0008AF089609F1020A7E6016F8098006EB68
:103B9C000902B8F12B0F20D81379012B06D041461E
:103BAC000AA80292FFF77CFA0346029A50780AEBB5
:103BBC00060103F0010B029311F0EEFB029B02468F
:103BCC002BB1029041460AA8FFF75EFA029A934580
:103BDC0003D041463846FFF757FA0536642ED4D148
:103BEC009DF820309DF8282053408DF820309DF80A
:103BFC0021209DF8293053408DF821309DF82A2042
:103C0C009DF8223053408DF822309DF82B209DF8E2
:103C1C00233053408DF82330B74B97E8030083E8EB
:103C2C000300B64B1F78002F00F0D183012011F058
:103C3C00D9FBB34EB34C20B9B34BDB78002B00F05F
:103C4C00E1852368980740F1DD85338813F001077F
:103C5C0040F0DD850120FCF7BEFF0197022011F03A
:103C6C00C1FB002800F0D785019B002B00F0D38509
:103C7C000120FCF7C5FD3388990702D40220FCF71C
:103C8C00AAFF3188A14F11F0030100F0C985012171
:103C9C000846FEF731F84FF4FA63C7F8AC3024202D
:103CAC0011F0A0FB28B92B785A0744BF23F004036A
:103CBC002B70236813F00A0F15D0072011F092FB1C
:103CCC00002800F0B48533885F0602D44020FCF74E
:103CDC0082FF0C2011F086FB28B110F0D3FE10B13E
:103CEC000A200BF0A9FE082011F07CFB002800F044
:103CFC00A3854FF48070FCF76EFF854B1B78082B67
:103D0C0001D00E2B02D14020FCF77AFD009B1B68E2
:103D1C005C050FD57F4B1B79002B40F093852B78DE
:103D2C00D80740F195854FF40F7006F0F1FB002891
:103D3C0040F094850122784B78481A70784AB0F993
:103D4C0006B011680290CA89764C934580F28E8534
:103D5C004FF07E522260744A4FF0000892F9041022
:103D6C00724F002914BF01234FF0FF333D8B92F8A3
:103D7C0001A092F800906E4C01930397029B33F9CB
:103D8C001870781B0028B8BF4042B0F5FA7FA8BF66
:103D9C004FF4FA70B8F1020F00F07D854845CCBFA6
:103DAC00A0EB0900002014F043FEAF4244F82800B9
:103DBC00C0F27F8508F10108B8F1030FDED1009B3A
:103DCC005C4A1868117810F48058104600F0798518
:103DDC00BBF5FA6F5B46A8BF4FF4FA63B3F57A7F75
:103DEC00B8BF4FF47A73A3F57A7321B15278534369
:103DFC00642293FBF2F34FF0640C93FBFCF24E49FC
:103E0C00501C31F9127031F910006FF0630101FB95
:103E1C000233C01B584390FBFCF0384400B214F042
:103E2C0007FE0746E060B8F1000F24D0364BDB7874
:103E3C000BBB424B1D2093F8089011F0D3FA80462F
:103E4C00B9F1000F40F05785A8B13D49384614F040
:103E5C0039FD15F01DF84FF47A7300B2000390FB96
:103E6C00F3F3C5F5FA6000B2584340F30F30284421
:103E7C0014F0DEFDE0603288510640F1C1819207FA
:103E8C0014BF0022A2682F4B2168C3F85421C3F839
:103E9C004C112D4A6168D2F800A0C3F85011536838
:103EAC00D2F808800093294B009859681F6801913B
:103EBC00D1689A68D3F80C900392029114F004FD27
:103ECC0003990446019814F0FFFC0146204614F0B7
:103EDC0003FE02998346009814F0F4FC03990446FF
:103EEC00019814F0EFFC0146204614F0F5FD414614
:103EFC00049050462EE000BF341800200C11002016
:103F0C0024180020FC190020C80A0020980000206A
:103F1C00001A0020440D0020003A0020FC1700205D
:103F2C0034350020A8370020C83A00205014002057
:103F3C009C0A0020BC340020D43A00208437002096
:103F4C0000007A447C0600206C0400207C040020D5
:103F5C000C20002014F0B8FC49460446384614F0F6
:103F6C00B1FC0146204614F0B7FD414606465046CA
:103F7C0014F0A8FC49460446384614F0A5FC01464A
:103F8C00204614F0A9FD05460146304614F09CFC71
:103F9C00594614F097FC049914F094FC4FF07C51A2
:103FAC0014F09AFD41460690029814F08BFC494699
:103FBC000590039814F086FC059A0146104614F0FF
:103FCC008BFD069B0146184614F07EFCAE4C009906
:103FDC002060504614F078FC01990590384614F096
:103FEC0073FC059B0146184614F076FD314605908E
:103FFC00049814F069FC594614F066FC294614F038
:10400C0063FC4FF07C5114F067FD059B014618468C
:10401C0014F058FC04996060584614F053FC009955
:10402C008346504614F04EFC49468246039814F0E1
:10403C004BFC0146504614F04FFD2946814658462C
:10404C0014F040FC314614F03FFC4FF07C5114F05E
:10405C0043FD0146484614F037FC4146A0600298E7
:10406C0014F032FC01998046384614F02BFC0146C2
:10407C00404614F031FD31460746584614F022FCF8
:10408C00294614F021FC4FF07C5114F025FD01461B
:10409C00384614F019FC0AA9E060204610F038FDEF
:1040AC00119B7A4C00930D9BD4F854210193109BD7
:1040BC00114602930C9B10460393079214F004FCD8
:1040CC00DDF83CA001990490504614F0FDFBD4F8A7
:1040DC00505181462946284614F0F6FB01464846C5
:1040EC0014F0FAFC03998146029814F0EBFB049946
:1040FC0014F0F2FC0146484614F0E6FB0A9FDDF88A
:10410C003880DDF84CB0814641463846D4F84C61D5
:10411C0014F0DAFB009914F0D5FB594614F0D2FBDD
:10412C00314614F0D9FC0146484614F0CDFB41460B
:10413C000690384614F0C6FB31460746304614F05C
:10414C00C3FBDDF84880DDF82C90059001995046B2
:10415C0014F0B8FB0146059814F0BEFC49468246A3
:10416C00404614F0B1FB049914F0B6FC01465046DD
:10417C0014F0AAFB59468246384614F0A3FB00996A
:10418C0014F0A2FB294614F0A7FC0146504614F08B
:10419C009BFB03998246029814F096FB314614F06F
:1041AC009BFC49460646404614F08CFB294614F00D
:1041BC0093FC0146304614F087FB014614F084FB57
:1041CC0000990546384614F07DFB594614F07CFBEB
:1041DC00079A114614F080FC0146284614F074FB33
:1041EC00069B2B4AC4F84C3113602A4BC4F850A1DF
:1041FC00C4F85401C2F804A01B889B0708BF906048
:10420C000AF026FF15B0BDE8F08F0F200BF014FC60
:10421C00B4F844312020FA3BA4F8443184F84681A8
:10422C00FCF7E8FC7DE46F2B7FF48AABB4F94431E6
:10423C00B3F5FA7FFFF675AC94F84631002B7FF49A
:10424C0070AC012284F846212A78D20702D40BF0F4
:10425C0029FC66E4104A136063E4400720D55A2B0E
:10426C001ED194F8AD3023B184F8AD2084F8AE1093
:10427C0057E494F8483183F0010384F848316BB16A
:10428C000B200BF0D9FB4CE48C0400207C060020A6
:10429C009C0A002024180020E82C00200C20F0E7B9
:1042AC005D2B05D05E2B07D05B2B07D1012000E0E6
:1042BC000020FCF7AFFC34E40220FAE7562B01D1C6
:1042CC00FEF76EFD94F84231972B04D14FF4C8726F
:1042DC00BA4B1A8025E4A72B05D1B94A137843F0C1
:1042EC00040313701DE4B74AB73B128812F0030F96
:1042FC003CD000220A92072B3FF613AC01A252F8D5
:10430C0023F000BF654300082F3B00082F3B00083B
:10431C002F3B0008314300082F3B00087343000873
:10432C006B4300080223ADF82A30A74BBDF82810C8
:10433C009A890A449A81BDF82A10DA890A44DA81EA
:10434C00FEF72EFDB4F84431FA3BA4F844310023B7
:10435C0084F84631FFF7E5BB4FF6FE73E3E7022323
:10436C00ADF82830E1E74FF6FE73F9E7072B3FF67F
:10437C00D8AB01A252F823F0AF4300082F3B000842
:10438C002F3B00082F3B0008A54300082F3B0008DB
:10439C00B7430008B343000800200AF077FFFFF78B
:1043AC00C0BB0120F9E70220F7E70320F5E794F8FA
:1043BC00AD30002B3FF4DFAB2B7813F0010302BFC1
:1043CC0084F8AD30012384F8AE30FFF7D4BB4FF046
:1043DC000C0A4FF0010B7D4EDFF8089206F15A08DB
:1043EC00314616F8010C10F0D7FFB8B13179B3781B
:1043FC000AFB0140013B03EB4303426D4B449342E8
:10440C000CD0F278C0E9153780F8502094F8492187
:10441C000BFA01F322EA030384F849310636B0455E
:10442C00DED14FF000096A4BDFF8BC811E68694B86
:10443C00A8F15004D3F800A0674B1B780293D8F86E
:10444C000430002B6BD01F78002F68D0D8F80820D0
:10445C00AAEB0202002A0CDB0AF5FA72C8F8082053
:10446C00012202FA09F194F8492122EA010284F8A6
:10447C004921029A002A52D098F800205978043227
:10448C00D2B2002940F06581544931F91200544AE6
:10449C00118B94F8492101F1C80C60452DDD93F87E
:1044AC0002B042FA09F2D30739D4BBF1000FD4BFE2
:1044BC00012002200BF02EFC7A1E1B2A4AD8DFE8C2
:1044CC0012F0370056006D009500A600AD00C80034
:1044DC00E40000010C011801490095009F00AD009B
:1044EC00C800E400BC00D800F40024012B01390101
:1044FC0049003700410056006300C839884203DA8E
:10450C009978C1F1000BCCE7012303FA09F322EAF5
:10451C00030384F849310AF5FA73C8F8083009F135
:10452C000109B9F1040F08F10C0888D1FFF77EBB23
:10453C00F1781920594481F30801F17013F0D0FA85
:10454C00192F07D01A203179594481F308013171A0
:10455C0013F0C6FAD4F8800010F086F8012394F812
:10456C00492103FA09F3134384F84931D7E7B179A8
:10457C001B2059446429A8BF642121EAE171B1715F
:10458C0013F0AEFA1B2FE5D0F1791C2059446429A5
:10459C00A8BF642121EAE171F171D9E771788B44EC
:1045AC00BBF1640FA8BF4FF0640B2BEAEB7B86F8D2
:1045BC0001B013F0A9FA59460320C9E70A290020D3
:1045CC003C180020241800202A1A0020D520002096
:1045DC003435002008090020990A0020FC1700201F
:1045EC00501400206A980108CC060020B17A0D20E6
:1045FC00594481F30801B17213F072FA0D2FA9D04E
:10460C00717A0E20594481F308017172A0E7F17A96
:10461C000520594481F30801F17299E7D4F8802000
:10462C000F20D1785944C829A8BFC82121EAE171CB
:10463C00D17013F055FA0F2F8CD0D4F880201220A3
:10464C0011785944C829A8BFC82121EAE171117019
:10465C007EE7D4F88020102011795944C829A8BFCE
:10466C00C82121EAE171117113F03AFA102F3FF4CD
:10467C0071AFD4F88020132051785944C829A8BFB1
:10468C00C82121EAE171517062E7D4F88020112031
:10469C0051795944C829A8BFC82121EAE171517147
:1046AC0013F01EFA112F3FF455AFD4F880201420CC
:1046BC0091785944C829A8BFC82121EAE1719170A9
:1046CC0046E7D4F88020092091795944C829A8BF1D
:1046DC00C82121EAE17191713AE7D4F880200A20CF
:1046EC00D1795944C829A8BFC82121EAE171D171F7
:1046FC002EE7D4F880200B20117A5944C829A8BF82
:10470C00C82121EAE171117222E77179152059440F
:10471C0081F3080171711BE7D4F88020162092F800
:10472C0037105944FE29A8BFFE2121EAE17182F815
:10473C0037100DE7D4F88020172092F83610594422
:10474C006429A8BF64210129B8BF012182F8361061
:10475C00FEE601297FF402AF0C2F987804D1744B3C
:10476C001B79002B18BF0620039B33F9121040F65F
:10477C0033039942A8BF19464FF49663B1F5617F94
:10478C00B8BF4FF4617193FBF0F3A1F561710C2F7D
:10479C0091FBF3F11ED0182F7FF4E0AEC9B2C829FB
:1047AC000B46A8BFC823D4F88020D8B292F817C003
:1047BC0060453FF4D3AEA3EB0C034FF0080C93FB16
:1047CC00FCF30133DBB2D0753846049313F088F94F
:1047DC00049B10E0564B5FFA81FB5A785A453FF424
:1047EC00BDAE58460AF052FD5946384613F078F9DA
:1047FC000BF10103DBB2002B3FF4B0AE18460BF00B
:10480C0089FAABE60120FBF7FBFFFFF727BA002381
:10481C000193FFF723BA0220FBF7F2FFFFF731BA3F
:10482C000120FDF769FA42F21073FFF736BA402007
:10483C00FBF7E6FFFFF74DBA4FF48070FBF7E0FF94
:10484C00FFF75BBA162010F0CDFD00287FF46BAAA1
:10485C0006F0BEFE0BF070F8FFF76CBA0AF02CFEF7
:10486C004FF40F7005F021FEFFF761BA087BBBF522
:10487C00FA6FBFBFABEB02014843C2F5FA6290FB83
:10488C00F2F0C0F1640014F0D3F82A4914F024F9C2
:10489C002060FFF760BA5045D8BF0020019BC8BF0D
:1048AC00A0EB0A00584314F0C3F8AF42A060BFF667
:1048BC0086AA54F8281001F1004144F82810FFF79B
:1048CC0079BA039B5A8B934513DBBBF5FA6F5B46A6
:1048DC00A8BF4FF4FA634FF47A779B1A7B43C2F567
:1048EC00FA62B3FBF2F300293FF485AA4278FFF792
:1048FC007EBA1346EFE71049384613F0E3FF14F085
:10490C00C7FA4FF47A7300B2000390FBF3F00B4B31
:10491C00B8F1000F06D001221A70C5F57A731BB2DC
:10492C00FFF7A2BA83F80080C5F5FA63F7E700BF7A
:10493C003A0F00200AD7233C00007A443838002074
:10494C00094A0A4913781844C0B210F0800F18BFF6
:10495C0080381070107813460A78904202BF0022FB
:10496C000A701A70704700BF670D0020660D00209A
:10497C0010B50A4B0A4A1B789C18C0E90042094A38
:10498C00127893429DBFD31A0B600023C3F18003AE
:10499C0094BF4B60C1E9003210BD00BF670D002011
:1049AC00680D0020660D00201FB502A86946FFF7B0
:1049BC00DFFF044B00981B681844019B184405B09A
:1049CC005DF804FB30180020054B1878054B1B785C
:1049DC00984236BFC3F18003C01AC018704700BF9D
:1049EC00660D0020670D002000BF0068FDF792BA2D
:1049FC0010B504460830FFF7F7FF6068FBF7A8FD19
:104A0C00A068FDF78CFA00BF10BD70B5056D866807
:104A1C00AB89044623F400531B041B0CAB81827935
:104A2C004079110310F0010F0CBF00230423800701
:104A3C00288A01F4005180B220F4405041EA000170
:104A4C002982A9894FEA022221F4B05121F00C01EC
:104A5C0002F4806248BF43F008030A431A43AA8158
:104A6C00AA8A86B022F440721204120CAA8201A8FF
:104A7C0005F0E0FEDDE90331254A954218BF1946E1
:104A8C001923AA894B4311044CBF7100B100B3FB2D
:104A9C00F1F16426B1FBF6F3AA891801120406FBA6
:104AAC00131327D5DA003232B2FBF6F202F007020A
:104ABC0042EA00039BB22B81A379DB0707D5236D58
:104ACC00134A93421ED100200121FDF7EDF9226D0E
:104ADC00A37913F0080F938A05BF23F008031B0476
:104AEC0043F008031B0C9382938943F40053938186
:104AFC0006B070BD1B013233B3FBF6F303F00F03AA
:104B0C000343D7E7034A9342E1D10220DCE700BF1D
:104B1C000038014000480040417176E7816074E73D
:104B2C0010B50B4B04461B680344187EFDF796F931
:104B3C0060B128228271621CC2711221FDF7C6F984
:104B4C002046BDE810400021FDF7AEB910BD00BFF6
:104B5C005833002000231C2210B5064902FB031415
:104B6C0064680133844201D1D8B210BD072BF5D152
:104B7C000020FAE73C030020F7B51C24013844431D
:104B8C00344D354F2E592C44BE420CBF0126022603
:104B9C0007F58057D7F814C046EA0C067E61A16071
:104BAC00236161682D4B994238D01433994237D028
:104BBC001433994236D01433994236D01433994277
:104BCC0036D01433994236D01433994236D003F58B
:104BDC006273994235D01433994234D014339942CC
:104BEC0033D01433994232D01D4C1E4BA14218BF06
:104BFC0000231C2101FB00508361437B92098DF83B
:104C0C00043000238DF80630012301A88DF805200F
:104C1C008DF8073005F068FF03B0F0BD0223E8E71C
:104C2C002023E6E74FF40073E3E74FF40053E0E78B
:104C3C004FF40033DDE74FF40013DAE74FF0007365
:104C4C00D7E7094BD5E7094BD3E7094BD1E7094B1C
:104C5C00CFE700BF3C0300200000024008000240E8
:104C6C005804024000000210020000102000001046
:104C7C00000200100020001070B5441E1C20604380
:104C8C00074B084D1C581844AC420CBF012402249D
:104C9C0005F580556E6934436C610175427570BDC4
:104CAC003C03002000000240F0B5064693B00028FB
:104CBC0000F0E5800021FCF76FF97B4D036804469A
:104CCC002B608368002B00F0DA803046FDF7C6F8C5
:104CDC00764BC3F8800118B1292383710023C3716B
:104CEC001B21FDF7F3F800232968714A52F8336051
:104CFC0002EBC300B14240F0C480007905F0F6F934
:104D0C0028686C4E038823F001031B041B0C0380E2
:104D1C00694B1A68694B9A4281BF02F1B7736849B3
:104D2C0003F55853B3FBF1F392BF002303F1FF33A8
:104D3C009BB2591CB2FBF1F26249B2FBF1F20321B6
:104D4C0092B2B2FBF1F14F0037805F4EADF8042008
:104D5C003180002612A921F8483DADF80660ADF867
:104D6C0002608DF8086005F00CFA6023CDE903367B
:104D7C00E379CDE90566990740F189800422DB00CF
:104D8C0003F00803ADF81020ADF81630002303AA89
:104D9C0061792868ADF81230FCF70CF86179286855
:104DAC0005F0C2F92B68494FB3F84420002642F4B1
:104DBC000042A3F844201A8842F080021A80E2795B
:104DCC00617912F0020F14BF042201228A40198C5F
:104DDC0092B221EA02011984198C0A431A841A88A6
:104DEC00292142F001021A80207B0022FFF744FFA8
:104DFC00602237490023207BFFF7BEFEA068386095
:104E0C0005F0F9FD3868036823F001031B041B0C43
:104E1C00036005F0F0FD07A805F0C2FD2B68627970
:104E2C0034331344079340F22A33CDE90A368023F6
:104E3C000C93284B07A90893102309934FF4007384
:104E4C00CDE90D364FF400533868CDE910360F9686
:104E5C0005F0B3FD61792A680C298FBF33461E4BD0
:104E6C0003EB4103B3F8A63091890B4393813A6865
:104E7C00136843F0020313600122184B1A7013B02D
:104E8C00F0BD0133042B7FF431AF002036E7012253
:104E9C00ADF80E204FF480725B0003F00203ADF806
:104EAC001820ADF8143071E7D81700207C060020CC
:104EBC009CAD0108A614002000040020FF6BDC024E
:104ECC00006CDC0200350C00A4140020D417002068
:104EDC0031050008A81400201C980108DC170020DC
:104EEC000348D0F8B0300BB1A8301847704700BF5A
:104EFC003C0300200348D0F894300BB18C30184799
:104F0C00704700BF3C0300200248836F0BB1703028
:104F1C00184770473C0300200248C36D0BB1543056
:104F2C00184770473C0300200248036C0BB1383023
:104F3C00184770473C0300200248436A0BB11C30F1
:104F4C00184770473C0300200248836803B1184798
:104F5C00704700BF3C030020F8B584894FF6FF76FC
:104F6C004FF47A740BB901201CE081B10D7801313A
:104F7C000789BF070DD54FF47A74ADB285810589C9
:104F8C00ED0710D4013CA4B2B442F8D105E0FF25E2
:104F9C00EEE7013CA4B2B442EAD1FBF77CF9003055
:104FAC0018BF0120F8BD8589ADB20AB11570013268
:104FBC00013BD7E737B50F4C2078B0B10E4B1D68CD
:104FCC00052305F10800ADF80030FFF70DFD0223B5
:104FDC0001AA69466868FFF7BFFFA868FCF79FFF46
:104FEC0000BF9DF8050000F00100207080F001006A
:104FFC0003B030BDB3340020A034002070B5064699
:10500C00044C2568FFF7D6FF18B923685B1BB34225
:10501C00F8D970BD0809002010B50C4C45F20820D9
:10502C00FFF7ECFF06212068FFF7E2FC0122084B9A
:10503C00C72120681A70FFF7DBFC0023054A1370A8
:10504C00054A1370054A136010BD00BFA034002040
:10505C00B3340020660D0020670D002030180020AE
:10506C000023F7B500938DF8043003231C4D16462E
:10507C002A780F468DF8003062B3030E8DF801309C
:10508C000DF10203020C1A70020A98705A70062075
:10509C00FFF7B4FF08B3134C20680830FFF7A4FCEB
:1050AC002B782068002B14BF0523042369460022AB
:1050BC004068FFF751FF206833463A4600214068AC
:1050CC00FFF74AFF23689868FCF729FF00BF3046BA
:1050DC0003B0F0BD0DF10103D4E70646F7E700BFBE
:1050EC00B2340020A034002000232DE9F3410093BA
:1050FC008DF804300223234E0F46234C3178804622
:10510C008DF80030D4F88421002937D0130E8DF897
:10511C0001300DF10203110C1C4D1970110A59705C
:10512C009A700620FFF76AFF06212868FFF760FCDB
:10513C0001222868164B08301A70FFF755FC33789B
:10514C002868002B14BF05230423694600224068FD
:10515C00FFF702FF28683B46002241464068FFF7F4
:10516C00FBFE2B689868FCF7DAFE00BFD4F88411BC
:10517C003944C4F8841102B0BDE8F0810DF101038B
:10518C00C9E700BFB23400207C060020A034002008
:10519C00B33400202DE9F04F8B468A464FF00009BE
:1051AC0085B00190009301EB82025AF8043B524502
:1051BC009944FAD1009B002B53D1FFF7FBFE00283A
:1051CC004FD1009805B0BDE8F08F5F46A046264948
:1051DC00019DC1F884213A4657F8041B00293BD0A5
:1051EC00414528682AD34146CDE90223FFF77CFFCD
:1051FC002968029A414429601168039BA1EB0801BC
:10520C0011601A68361B1444009A1C609AB196B14E
:10521C001A68D4B2A119B1F5807F144988BFC4F5BE
:10522C008074896898BF34468A42CED30023104AD2
:10523C001370104A1370A9EB0600C3E70293FFF733
:10524C0053FF002357F8041C2A68A8EB01080A44F2
:10525C002A6047F8043C029B574505F10405BAD176
:10526C00CFE74E46044BD2E77C0600200404002016
:10527C00660D0020670D00203018002030B50B4C57
:10528C000B4D22782B7885B09A420CD002A9684637
:10529C00FFF76EFB0123022202A96846FFF77AFF93
:1052AC0000232B70237005B030BD00BF670D0020AC
:1052BC00660D00202DE9F04F884A91B013780092CA
:1052CC00002B00F0CA80864B186800286ED0FCF7C3
:1052DC004CFEDFF83CA2834DDAF80000FCF718F81E
:1052EC00002863D0DAF80000FCF70CF809287E4C93
:1052FC0001D03F2850D14FF00008C14646462768E0
:10530C00DFF8F0B108EB0B0347B13A4658F80B1035
:10531C0028460193FDF714F9019B08B976B3994619
:10532C0008F10808B8F5907FECD196B1D6F800C01A
:10533C00D9F800E023681CF803001EF80310814222
:10534C0007D15A1CE9B97D2B1BD820202260E854C8
:10535C00A95423680BB14E4508D064480DF0F2FEF9
:10536C004E4511D962480DF0EDFE002723689F428F
:10537C00B2D2E85D0DF0D4FE0137F7E71E46994630
:10538C00CEE7E8542260D5E756F8080B0DF0DAFEAC
:10539C0009200DF0C5FEE3E72368002B41F02D83B7
:1053AC00042841F035834F4804F0FAFD11B0BDE8F4
:1053BC00F08F0A2802D00D2841F031830DF045FF03
:1053CC002321284614F0B1F808B1401B20600022BC
:1053DC0023687BB902B1236080220021284614F097
:1053EC008DF8009B1B78002B41F00D83DEE701222A
:1053FC000B46EEE7591E685C2028F8D002B12360FA
:10540C0000263C4FEE54F159284606EB070808F0ED
:10541C00CDFC38B90836B6F5907FF4D136480DF08E
:10542C0091FE05E0354B9845F8D2D8F804309847F2
:10543C000023D0E77F2B3FF64FAFA0F12002D2B272
:10544C005E2A3FF649AF13B920283FF445AF5A1CEA
:10545C002260E8540DF064FE3EE79846284F294C34
:10546C003A7802F00102019254F80F0C002800F077
:10547C00B682FBF74DFF002801F07B82224BD02532
:10548C001B6805FB08F544F80B3C00231F4E04F881
:10549C00073C54F80F0CFBF73BFF002800F09F82F1
:1054AC0054F80F0CFBF72EFF14F8023C7BB92428A0
:1054BC0009D0019B002B39D1232840F0FB8002231B
:1054CC0004F8073C32E0012304F8023C2EE0012BE7
:1054DC0020D14D2814BF00230223F5E70C11002026
:1054EC00C00F0020881000200811002054B70108BC
:1054FC0059B70108449A010869B70108649B01086F
:10550C00980A0020132A002008090020042A0020F1
:10551C00C40F0020022B40F09B8000233C2804F891
:10552C00023C00F091803E2800F08D8014F802CCF3
:10553C00BCF1060FADD114F8019CB9F1000F41F08C
:10554C00D2810126C74B08AD0FCB14F803BC85E8FC
:10555C000F0014F8053C0FFA8BF22344BBF1440FF7
:10556C000C940D93ADF83820ADF83A908DF83C6062
:10557C00ADF8282001F0A68100F20C81BBF1050FDB
:10558C0000F0368200F2C480BBF1020F00F0B18152
:10559C0000F29880B34500F0A181294658460AF0E4
:1055AC0009FC0646002840F09681DDE90C21BBF190
:1055BC00740F00F0AD82BBF1770F00F0B482BBF139
:1055CC00F50F40F007838A420EBFFF22511C0C914D
:1055DC00A54B16BF12F8021B83F8882183F888119B
:1055EC0093F8883118BF0C92FF2B4FF0000940F054
:1055FC00C7829E4B18219A46484601FB09F2D258A5
:10560C0002B1108009F10109B9F1080FF5D100269A
:10561C004FF01809964B974D3146202296481E7034
:10562C002E7013F06BFF8DF81260934E9DF81230B4
:10563C002A78072B40F27F82089BDFF86C92591C6A
:10564C0008911A7053E1012304F8013C03233BE752
:10565C00032B0AD10023C0289FBF04F8063C04F892
:10566C00050C04F8040C04232EE7042B08D114F8C1
:10567C00043C04F8030C584004F8040C052323E7FD
:10568C00052B7FF453AF14F8053C14F8062C934209
:10569C0014F8043C09D9434004F8043C531C04F8A6
:1056AC00063C73191344D87340E783420CBF06239E
:1056BC00002309E7714B93F82A3083427FF436AF0D
:1056CC000123FDE6BBF1030F00F01981BBF1040FC0
:1056DC007FF463AF4FF00009042228466849FCF7B9
:1056EC0073FF00212846FCF78DFF089B65495A1C67
:1056FC00089283F80090089B5A1C089203221A7097
:10570C00089B5A1C089204221A70FCF75DFFEEE00D
:10571C00BBF1240F00F0A8811FD8BBF1200F7FF440
:10572C003CAFDFF878A1584B9AF80120D91C1A70BD
:10573C009AF8002008915A709AF80220BAF80810CA
:10574C009A702846FCF75EFF089B9AF80520591CB6
:10575C0008911A709AF8062091E1BBF1280F00F01D
:10576C00BC81BBF1380F7FF418AF0522464B0126E4
:10577C005A700A224FF000099A70444A1E70117830
:10578C0083F803901971517892785971D91D089149
:10579C009A71BCE0BBF1810F00F0768131D8BBF17E
:1057AC00540F00F0AD8109D8BBF1520F7FF4F5AE68
:1057BC00354B5A1C089283F80090A8E0BBF16E0F91
:1057CC0000F02381BBF1800F7FF4E7AE00220A26A4
:1057DC002F4B304D1B780B3BDBB29A427BDA29887E
:1057EC000898FF29A8BFFF2100F1010CCDF820C0BB
:1057FC0006700898013200F1010CCDF820C0017040
:10580C00EBE7BBF1A00F00F0208151D8BBF1820F68
:10581C007FF4C3AE204B28461A781B4BDFF88CA0C4
:10582C00591C1A701D4B08911989FCF7EBFE1C4B87
:10583C00089A1B88511CFF2BA8BFFF2308911370DB
:10584C00DAF8081081F3100189B2FCF7DBFEDAF804
:10585C00001001F30F0189B2FCF7D4FE114B1A783A
:10586C000DE100BFDC9801087C060020C80F002069
:10587C00D71A0020D61A0020F40E0020CE130020D8
:10588C00410F00208EB70108563D0020603A0020E1
:10589C00640E0020E0280020990F0020B80A002098
:1058AC00880E0020B30A0020D1CE0008900E0020F4
:1058BC00BBF1B80F00F0DA80BBF1FE0F7FF46DAED8
:1058CC000026DFF8009339F8161028460136FCF74D
:1058DC0099FE042EF7D14FF0000908E0AB4AD11C19
:1058EC000891262182F8009082F801B0917001266F
:1058FC000DE00422A6492846FCF766FE07E00221CB
:10590C00A24AD31C117082F801B008939170089BC5
:10591C0054F80F0C09939D4BADF82A600893FBF7D4
:10592C00E6FCDDE908250023069344F62453ADF884
:10593C001430BDF92A30013300F0C8879DF82C30A3
:10594C00002B14BF3C233E23AD1AFF2D8DF81630CF
:10595C002B46A8BFFF23FE2DCCBF072605268DF8AE
:10596C001730BDF8283032468DF8183005A9C8BF5D
:10597C002B1254F80F0CC4BF8DF81A308DF8195037
:10598C00FCF798F905AB1E4400230DF11702964263
:10599C0040F09F87002D8DF813300EDD2A460899B4
:1059AC0054F80F0CFCF786F9089B9DF813201D4446
:1059BC009D4240F093878DF8132001220DF11301C5
:1059CC0054F80F0CFCF776F954F80F0CFBF78AFC23
:1059DC00002304F8023CB9F1000F40F0C18708F134
:1059EC000108B8F1030F04F1D0047FF43DADDDE400
:1059FC000B2268492846FCF7E7FD08226649284631
:105A0C00FCF7E2FD0722654975E7654B5F4A1B8889
:105A1C00DFF8B4A1FF2BA8BFFF23511C0891DAF8C3
:105A2C000810137081F3100189B22846FCF7EAFDC7
:105A3C005C4B1988FCF7E6FDDAF8001001F30F0156
:105A4C0089B22846FCF7DEFD61E7574B28461968FA
:105A5C00FCF7C4FD554B1968FCF7C0FD544B196895
:105A6C002846FCF7BBFD52E7524BF8E7DFF85CA188
:105A7C002846DAF80010FCF7B1FD9AF80820089BCC
:105A8C00591C08911A7042E70A264FF6FF7A4A4BC6
:105A9C001B780B3B5FFA83FBD945BFF61CAF05A8FF
:105AAC0009F006FC089A2846511C089116700799B3
:105ABC0009F101095145A8BF514621EAE17189B2AA
:105ACC00FCF7A0FD059971435145A8BF514621EA49
