:020000040800F2
:1000000000500020FD950108992D010865D80008D1
:10001000972D0108952D0108932D0108000000007F
:10002000000000000000000000000000912D010809
:100030008F2D0108000000008D2D010811440108DA
:10004000B5960108B5960108B5960108B596010860
:10005000B5960108B59601085D620108676201085E
:10006000656201086362010861620108B18D0008E0
:10007000A18D0008918D0008818D0008718D000808
:100080005D8D00084B8D0008B5960108B5960108F6
:100090005D2E0108B5960108B59601085F6201085A
:1000A000B5960108E1090108B5960108D1090108D2
:1000B000C5090108B5090108A5090108B596010897
:1000C000B5960108B5960108B5960108B5960108E0
:1000D000B5960108598B0008B5960108518B0008A8
:1000E0005B620108B59601087D2D01080000000043
:1000F0000000000000000000000000000000000000
:0C01000000000000000000005FF808F1A3
:100110002DE9F04F0025DFF84C83B94BC146B94AB1
:10012000B94EBA4C35709A60B94AA1B0DA60A36989
:1001300020AF43F00103A361636ADFF82CA349F801
:10014000043B636A504643F080736362A36943F0E3
:100150001C03A3614FF6FF7327F82C3D39468DF839
:10016000565008F0B7FD3946AA4808F0B3FD3946A5
:10017000A94808F0AFFD10238DF8563002238DF802
:1001800057304FF400733946ADF854305046CAF832
:10019000103008F09FFDA14A536843F0007353608C
:1001A000C8F80450C9F8045008F08FFC4546504682
:1001B0004FF0010C9A499B4ADFF8B0E2002331F876
:1001C000027F47FA03F818F0010F18BF0CFA03F882
:1001D00003F101031EBF1060A2F804800C32102B43
:1001E000EFD100F580607045E8D18F4B1B787E2BF6
:1001F00000F0718514F012FD17F004FB14F0DEFA24
:100200000023089309930A934FF4E013874A0B9352
:1002100090462368107A43F480332360A36943F047
:100220001003A361236803F400330993089B01338F
:100230000893099B1BB9089BB3F5A06FF2D1236803
:1002400013F4003300F04E8502230A93784B79496A
:100250001A6842F010021A601A6822F003021A604B
:100260001A6842F002021A60636863606368636040
:10027000636843F4806363606F4B1A6822F07042D6
:100280001A606E4A0A60626822F47C1262601A6820
:1002900042F000421A60604AD36823F40043D360FE
:1002A0004FF4E0130B930A9B012B00F03D85022BCA
:1002B0000ED138B10B9BB3F5801F40F02C854FF465
:1002C00000230B930B9B6268134343F480336360FA
:1002D000236843F08073236023689F01FCD5636823
:1002E00023F003036360636843F0020363606368A1
:1002F00003F00C03082BFAD16368514A03F00C0396
:10030000042B00F01685082B00F016854B4B13606C
:1003100063684C4FC3F303133B44997913684FF060
:10032000170ACB40136008F0D0FB98F80720464B23
:100330000020DA71DA7333784FF0020B43F00103D7
:10034000337098F80630414E2B73414BDFF8209103
:100350001B6833600FF0EEF9002359F8230003F116
:10036000010840B180F806A080F807B080F8088046
:10037000122115F091FD4346032BEED100200FF022
:10038000D9F9A369402243F00103A3610021314858
:100390001AF0ADFA4FF0FF332F4A2B65C2F8033045
:1003A0003368180710D52D4B1A7A9846012A0BD8B6
:1003B00093F8119008F0C4FB044628B909F1FF39FD
:1003C000B9F1090F41F26586DFF8A8800024C14623
:1003D0004FF4FA7014F011F8A022002120481AF00E
:1003E00086FA0E4ADFF890A0536823F4406343F086
:1003F000706343F400635360002354F808003DE049
:1004000000ED00E000000008361F00200010024050
:100410000005FA05000C01400010014000000140F9
:10042000EEA90108B820002000F80108700F002094
:1004300000200240200100200410014000127A0038
:1004400000000020F0A90108280500206C160020FB
:10045000C010002090060020D00600208C2B002029
:10046000DC06002080060020000801400014014046
:1004700058B60108A4B5010808AA01085AF83310B3
:10048000DA00884240F09584BB18187F0C3417F0CE
:10049000D1FE902CB0D14FF0040A30220021C04888
:1004A000346885F8FCA01AF022FA0022534611465F
:1004B0004FF0FF0ABB48DFF8E8E204F0400810F90B
:1004C00001CF02EB0E0B02F80EC0B8F1000F08D1FD
:1004D000BCF11E0F01BF012103F1FF338BF800A017
:1004E000DBB20C32302AEAD109B185F8FC30DFF8F2
:1004F000F8A29AF80080404610F000FC4FEAC801CC
:100500007B1893F839E0A84ACDF808A082F800E0FB
:1005100093F83A20A54B1A70837A002B40F0508450
:10052000C4F3401285F8FD20002B40F04C84A04B12
:100530002340003318BF0123C5F8003140F2DC54DA
:1005400000239C4820F813400133082BFAD1002ADD
:1005500040F03C84A8F11708B8F1020F0AD80AF05D
:10056000A3F8954B1B782BB10122944BC3F80021C3
:1005700083F8FD200024924DDFF870A2914FB5F969
:100580000880B5F906000AEB040BA0EB080018F090
:10059000D3FB394618F0D8FC4AF80400B5F904003A
:1005A0000834A8EB000018F0C7FB394618F0CCFC63
:1005B000402CCBF8040005F10C05E0D110F0B0FBA5
:1005C000202200210DA81AF092F9029B187810F051
:1005D00095FB00B1007A32680D90C2F340038DF8AC
:1005E0004130C2F380138DF84330C2F340338DF8AD
:1005F0003930C2F3C0338DF83C3012F4006304D0BC
:10060000714B9B7A591E4B424B418DF83D30C2F3E2
:1006100000438DF84430694D02F001038DF83A3003
:10062000C2F3C0038DF83B3095F8FD30003318BF9E
:1006300001238DF84530C2F300538DF84630634BEB
:1006400019885B88ADF84A106149ADF848300B7ADB
:10065000581E02288CBF00200120D20448BF5D4AEA
:100660008DF8420048BF9288C88889888DF84C3040
:10067000ADF8501048BFADF85020042BADF84E0037
:1006800008D100244FF480508DF8424008F0E0FD7E
:10069000ADF850404FF000083368484CC3F3007386
:1006A0008DF838304C4B68229B7A00214B4885F8F6
:1006B00044311AF01CF94A4D04F5077303939DF871
:1006C0003E3023B12B79123B012B40F2CB8020200E
:1006D0000FF00FF89DF843302BB120B102682B6862
:1006E0009A4200F0BF809DF8443023B12A683D4B08
:1006F0009A4200F0B7809DF83B30002B40F07A839F
:100700009DF839301BB1AB689B0700F175839DF8EC
:100710003A3013B1AB6803F001030D9A002A40F0A0
:100720006D839DF84510AA6811B1170700F1418447
:100730009DF8461011B1D00600F13B8412F0040F71
:1007400040F0C583002B00F08D80012B40F07183B9
:100750000023FF229DF84C1084F8B031C4F8B43166
:10076000C4F8B831C4F8BC31C4F8003284F80422AB
:1007700084F8052284F8063284F8073284F80832B7
:1007800003EB0902926812F0240F05D053F8090018
:100790002A68904200F03D830C33902BF0D127E083
:1007A000BC270020A3C50108F1170020F217002084
:1007B00020001000DC0F0020F01700208006002031
:1007C000741800200000FA43E6160020C410002030
:1007D0000E1B0020081B0020700F0020C8070020FF
:1007E000A4B50108000400407C28002084070020F4
:1007F0000027287984F80C72C4F8185215F026FBEB
:100800004FF0010A022280F807A082710772E9798D
:1008100015F042FB52463946284610F09FF9BF4B6F
:10082000BF4AC4F81C32BF4B0399C4F82032284693
:10083000C4F8247210F0D6F83A466979286813F0A3
:1008400072FF202294F84A3104EBC30383F851214C
:1008500094F84C31534484F84C3194F84A310133C4
:1008600084F84A31B04B0C359D427FF428AF002408
:10087000029BAE4F1D783C702846173D10F03EFAA3
:10088000022DAB4D00F2CE834FF0000A05F5437800
:1008900005F55379514654F8080018F035FC002846
:1008A00000F0B1833368DB0400F1DB8310F00AFA57
:1008B0009DF8423013B9012385F88C339D4C1F20DD
:1008C000237843F00403237015F0C0FA0022C5F822
:1008D000900385F89423039438B11121817102218A
:1008E0000272C171162115F0D7FA002013F0A8FD8D
:1008F000222015F0ABFA0024152302270646837147
:10090000C7710472122115F0C7FA2146304615F05E
:100910009AFC204608F058FB012008F055FB3846A9
:1009200013F032FB002801F0C9830388002B01F08B
:10093000C583814A07941368029213F0020F1CBF0B
:1009400095F895238DF81C201E0444BF95F8962336
:100950008DF81D201C0507D5784B9B7A012B04BF11
:1009600095F897338DF81E3000211E22744819F037
:10097000BEFF00231C46734907A81A5C561E032EAF
:1009800094BF41F8232041F823400133042BF4D1D4
:10099000002351F82320012A01F068830133042B3E
:1009A000F7D1002351F82320022A01F06483013398
:1009B000042BF7D1002351F82320032A01F0608390
:1009C0000133042BF7D100231A4651F823000428E1
:1009D00008BF41F823200133042BF6D1584F4FF0C4
:1009E0000F083C464FF00009DFF86CA1564B0AF5A2
:1009F000847BA07940B394F90720059304920626DE
:100A000015F024FA8671002680F8078006723146B8
:100A100015F042FAA079059B049A1BF816E07100C4
:100A2000864540F04483514491F809112172142104
:100A300001FB02329169481C61720721E1720121B8
:100A40009061A1721175894408F101085FFA88F874
:100A5000B8F1130F04F10604CBD1B9F1000F00F087
:100A6000C4803A4A384E536843F440435360337D60
:100A7000002B00F0BA80307B17F0DCFB707B17F0A6
:100A8000D9FB306909F0ECF80023179319931F93F1
:100A9000B3682F4C4C331593B3693069022B18930C
:100AA000B4BF002380231A934FF480731B934FF439
:100AB00080631C9320231D934FF4005315A91E93AC
:100AC000169409F0AFF8B16932690129D4BF00204A
:100AD000012013684FF01F0C43F001031360B2684C
:100AE0004FF007095368A4F1170E23F4702323F481
:100AF000807343EA002353609068164B034043F42D
:100B0000602343F002039360D06A4B1E20F4700010
:100B1000DBB240EA0353D36201231FE04D5B0108BF
:100B2000A00800209D5C010834B60108061B0020C7
:100B300080060020361F00206C160020E6160020DC
:100B4000190A0020380A002000000020001002408E
:100B5000480A0020FDF7F1FFF0A90108B97A39B37E
:100B600097F9071021BB397A5E1C0929F6B2FC7A85
:100B700040F2A382A1F10A00D2F80CA000EB4000E1
:100B800009FA00F82AEA080804FA00F040EA080026
:100B9000D060062B00F29E82013B506B03EB830377
:100BA0000CFA03F420EA04009940014351633346F0
:100BB0000637BE45D2D1936843F48073936093683F
:100BC00043F001039360936843F0080393609368D4
:100BD0001807FCD4936843F00403936093685907A3
:100BE000FCD4936843F4A003936007F0A9FF60B9B5
:100BF0000EF0A0FD05240EF08FFD642013F0FDFB28
:100C0000013CF8D120460EF095FD09F0B7FB002617
:100C1000029B00211B68B94C1A0644BFB84AB94B65
:100C2000B94848BF1A60102219F061FE2320A6615E
:100C300013F0E3FB20AB03F8666D0122752104F18C
:100C4000180007F074FE002800F06E82AF4B0122FE
:100C5000A363AF4B3146E363432304F1180084F8E8
:100C600044300DF11B0307F062FE9DF81B3003F0CA
:100C70007E038DF81B30002840F06E839DF81A30FB
:100C800003F07E03682B8DF81A3040F0898306222A
:100C90000223114684F83130A66B15AB9D48B0474E
:100CA0009DF859309DF857209B00520002F0020237
:100CB00003F0040313439DF8552002F0010213438F
:100CC000DAB2002B00F05E83012A40F04F8300234C
:100CD00084F8323064E208F060FB00287FF48EAACA
:100CE000FFF788BA226842F0010222600893236865
:100CF00003F002030993089B01330893099B1BB976
:100D0000089BB3F5A06FF2D123689B0702D501239E
:100D1000FFF79BBAFEE70B9BB3F5E01F7FF4D2AA67
:100D20004FF48013FFF7CDBA636843F46013FFF705
:100D3000CEBA0B68FFF7EBBA63686068C3F383430E
:100D4000C00303F1020303D473494B43FFF7DFBA37
:100D500060680968870348BF4908F6E700200EF07D
:100D6000E9FC0021A86D15F06EFA0021782013F03F
:100D700033FB01200EF0DEFC0121A86D15F063FAB3
:100D80007820002113F028FB013498F811309C42A0
:100D9000E4DB98F81230012B7FF416AB07F0D0FE9D
:100DA00000287FF411AB88F8110016F018FEFFF749
:100DB0000BBB0133042B7FF461AB0020FFF766BB54
:100DC0000122FFF7AFBB0123FFF7B6BB0F4497F833
:100DD0003820524BF96B1A7000293FF4BBAB00234B
:100DE0004F489342BFF6B6AB51F8234040F823403A
:100DF0000133F6E7002390E402238EE4013A012A4E
:100E00003FF6A0ACAA68510600F1D38012F0200F83
:100E100096E44B1E032B3FF6EBACDFE803F0020831
:100E2000060808223F4B1A71E2E44822FAE718222A
:100E3000F8E74FF01C0A4FF0000B01225FFA88F32D
:100E40000AFB03FA04EB0A07287987F80D3287F8C2
:100E50000C2287F80EB287F816B2C7F8185205931D
:100E6000049214F0F3FF059B049A0133037282711C
:100E7000C271E97915F010F8049A594628460FF026
:100E80006DFE294B2949C7F81C32294B0AF114027F
:100E90000AF1100AC7F820320A4428465144C7F81C
:100EA00024B20FF09FFD5A466979286813F03BFC85
:100EB000402294F84A3108F1010804EBC30383F897
:100EC000512194F84B31013384F84B31C5E494F847
:100ED00049B1BBF1030F3FF6C5AC9DF84CA0BDF87E
:100EE0004EE00AF1FF32BDF850309DF83800032A79
:100EF0004FD8DFE802F051484B1F00BF940F00208D
:100F00009B100020343900204C1900202F89000844
:100F100029890008AC0F002000093D00F0170020CF
:100F2000F317002000000020095D01088C08002054
:100F3000255B010818210023734F744A00904A432F
:100F4000B2FBFEF2284692B214F0CDFF704B43F88C
:100F50002B009DF84230C7600BB3192294F84A3138
:100F600004EBC30383F8512194F84A3194F84921E2
:100F7000013304EBC30383F848210132C3F84C5119
:100F800084F8492169E4634F1821D6E7624F48216C
:100F9000D3E7624F0121D0E7614F0821CDE794F8F4
:100FA0004A31BAF1040F04EBC3030CBF0D2209222E
:100FB000D8E794F84871072F3FF654ACBDF84810B5
:100FC000524ABDF84A3092FBF1F29DF8381092B2C5
:100FD00000912846012114F086FF0A2294F84A3134
:100FE00004EB8707013304EBC30383F8492194F82A
:100FF0004821C7F8EC0283F848210132C3F84C516C
:1010000084F8482129E404EB090E04EB08030FCB14
:101010008EE80F003B7810340133402C3B707FF496
:1010200039AC3FE4437A95F84921D0F804C09342A3
:1010300028BF13463B70BCF1000F3FF433ACA04611
:1010400005F55379DCB2A045BFF62CAC4FEA081386
:1010500003EB090E63440FCB08F101088EE80F0083
:10106000F1E73E78012E7FF621AC4FF07C572D4BF7
:101070001C1D03EB061303F114061034B4423FF4B5
:1010800015AC394654F80C0C17F0AAFE394644F852
:101090000C0C54F8100C17F0A3FE394644F8100C51
:1010A00054F8080C17F09CFE44F8080CE5E70136EC
:1010B0000A2E7FF4B2AC0021B8E4106901EB4108BC
:1010C00009FA08FA20EA0A0A04FA08F040EA0A00D3
:1010D00010615EE50C2B0BD8073B106B03EB830311
:1010E0000CFA03F420EA04009940014311635EE521
:1010F0000D3BD06A03EB83030CFA03F420EA0400EF
:1011000099400143D16252E5E55C010840420F007D
:1011100064280020A55D0108715D0108D55C010807
:10112000D15D0108CC090020A06910B9142014F089
:101130008DFE1423A06183710E23C371002313213C
:10114000037214F0A9FE9B4A6B2113889A4823F07E
:1011500040031B041B0C13801388062623F038035E
:101160001B041B0C43F0380313801388924F9BB26F
:1011700043F040031380802207F052FA962013F0C8
:101180003CF915AB01227521384607F02CFA9DF881
:101190005430682B00F0C480013E16F0FF06EDD1FC
:1011A000864B6363002384F8303094F83130032B8E
:1011B00040F08987824B834F2360834B834E63606B
:1011C000834B0120E360834BE361042384F83030D8
:1011D0000623337010F036FDBB79FA7884F82C3092
:1011E000002A00F0E380002B14BF4FF47A737D23B4
:1011F000BA785343511E84F82E10DFF814827648D3
:10120000C8F80030236898473B780BB184F8303039
:10121000724BC5F8D433FB79ABB1714B4FF01C0B5B
:10122000C5F8D4330025DFF8EC9109F1540A0BFB23
:101230000590D8F800204AF82500F97901350EF01C
:1012400058FE032DF3D1674F382200213846664DF2
:10125000D8F8008019F04BFBA36907F1180EBB60AA
:1012600095E80F008EE80F0035F8073C5F49FB82D8
:101270004B785F4A012B3D4653700F46914601D093
:10128000072B1BD1AB7D032B18D15A4B02202B60AF
:10129000594B6B6004236B750723737010F0D2FCFD
:1012A0004FF480734F48AB812B6898471FFA88F33F
:1012B000AB6209F03DF93B7803B16B754F4B93F886
:1012C00000A0984689F802A0BAF1000F22D0BAF126
:1012D000020F40F2A180BAF1040F1BD1484D95F8DE
:1012E0006034002B40F06381142013F086F84FF037
:1012F000050A05F2614B5B460122D02176200EF0F3
:10130000A7F920B195F86134582B00F02D81BAF17E
:10131000010AF0D13B4A136823F0040313604BE148
:1013200015AB01220C21244807F05DF99DF85430DB
:10133000142BFFF435AF182B03D9543B062B3FF683
:101340002FAF032384F83130432384F844302E4BED
:10135000A3632E4BE36323E7682B7FF48FAC012359
:1013600084F831301D2384F8443019E7022A01D172
:101370000123ADE403F00303032BF9D003200FF0A6
:1013800025FC0DE70CABA66B01220C210A48B047E7
:101390009DF8303013F00F03F0D0042BE8D196E421
:1013A000702B04BF042384F83130F9E6BB8884F83D
:1013B0002E2022E700300140AC0F00200CAB0108CA
:1013C00061860008201000203B8400088016002061
:1013D0002784000890C1793D940F0020E11E010888
:1013E000891E0108F4160020CC0F00202C170020C5
:1013F00024010020055401087F840008CE1000203D
:101400008006002068160020E78500082186000875
:101410004C190020580A0020B84D95F83834002B9C
:1014200040F09980142012F0E8FF4FF0050B0CAB50
:101430000122D02177200EF00BF9002800F08D80DA
:1014400003229DF83030A5F85C24552B85F85334E1
:1014500040F083800CAB0122D12177200EF0F8F808
:101460009DF83030AA2103F00F021B0985F854249F
:1014700085F85534162215AB77200EF0E9F89DF863
:1014800054209DF8553043EA0223A5F83C349DF8DA
:1014900056209DF8573043EA0223A5F83E349DF8C4
:1014A00058209DF8593043EA0223A5F840349DF8AE
:1014B0005A209DF85B3043EA0223A5F842349DF898
:1014C0005C209DF85D3043EA0223A5F844349DF882
:1014D0005E209DF85F3043EA0223A5F846349DF86C
:1014E00060209DF8613043EA0223A5F848349DF856
:1014F00062209DF8633043EA0223A5F84A349DF840
:1015000064209DF8653043EA0223A5F84C349DF829
:1015100066209DF8673043EA0223A5F84E349DF813
:1015200068209DF8693043EA022341F27072A5F801
:101530005034734B1A8046F678125A80714A5A60BA
:10154000714A9A60714ADA60714A1A61714A5A6145
:10155000012385F8383402232AE0BBF1010B7FF424
:1015600066AFBAF1010FB8E66B4B182288217620DE
:101570000EF06EF83122F42176200EF049F80C229C
:10158000F52176200EF044F80123002285F860341E
:101590005B4B1A80614A9A60614A5A6045F6D812DC
:1015A0005A80604ADA60604A1A61604A5A610423CC
:1015B0000420B37010F046FB00225D4B5D4D5A6174
:1015C000A26995F803A09A6000221A730AF1FF320B
:1015D00089F803A01C46072A74D8DFE802F0040447
:1015E0007333737373514FF005094FF0000B15AB54
:1015F00001220A211E208DF854B00EF029F8C0B146
:101600009DF85430482B14D14B4B23604B4B6360F7
:1016100002230820F37010F015FB23684448984714
:10162000002840F09B80464A136823F008031360AB
:10163000B0E00A2012F0E1FEB9F10109D7D1BAF108
:10164000010F3FD1029B1B681B0616D53D4B3E4A3E
:101650001B6819780C234B43D118897869B1D35C86
:10166000012B05D0394B2360394B63600423D0E74D
:10167000022012F0C3FC0028F4D1BAF1010F21D1ED
:1016800080220A210D200DF0C3FF142012F0B5FEB8
:101690004FF005094FF0000A0D2115AB0122084655
:1016A0008DF854A00DF0D4FF48B19DF85430FF2BB5
:1016B00005D1284B2360284B63600823A9E7B9F1C3
:1016C0000109E9D11E4A136823F0080313607B78EF
:1016D000012B0ABF727800237A7098F80020012A43
:1016E00002BFB37888F800301346EA78012A56D151
:1016F000F378EB7016F086F853E000BF8006002008
:10170000EC0F002025560108B955010809560108BB
:101710007955010829530108E40A002027530108DC
:1017200025530108FF5501081D5501086D51010899
:1017300088160020A21000202F5601089954010895
:10174000681600203439002018C7010869510108C3
:1017500051510108E1550108355401086420B5F9DB
:10176000003093FBF0F900FB193000B217F0E4FAF7
:10177000B34917F035FB8246484617F0DDFA0146BB
:10178000504617F025FAAF4917F02AFB0122AE4B5D
:1017900060611A70AB78002B99D0237397E7002B08
:1017A000A8D1039B039A1B78002043F00203137017
:1017B0000A250DF0BFFFA54C0DF0AEFF192012F069
:1017C0001CFE63689F0302D4012012F039FE192029
:1017D00012F013FE002012F033FE681E10F0FF0519
:1017E000EAD128460DF0A6FF994B4FF00008187C6F
:1017F00017F0A2FA974917F0F3FA10F0D9FC964BBC
:10180000964C1860964BC3F80080C3F80480C3F868
:1018100008800FF033FB2022FF21204619F067F8E3
:1018200001229049904B0F68257017F002051A703D
:101830008946204606D062700222A27004221A70E5
:101840001A22E270029A11684E0204D41A78541CCB
:101850001C701424845404261A78541CE4B2865450
:1018600017F00A061C7009D04FF0050E00F804E0CE
:10187000D41C1C7006240232D2B284548C0604D5C7
:101880001A78541C1C700724845417F0040F774CEA
:1018900001F0800703D12268D2060FD58FB14FF037
:1018A000030E1A7800F802E002F1020E83F800E05D
:1018B0004FF0180E0132D2B200F802E00FB10A2E3A
:1018C00004D02268D20616D5ADB1A7B109250826E5
:1018D0001A788554551CEDB246551326951CEDB269
:1018E00046551526D51CEDB24655551D1D701625BD
:1018F0000432D2B285542568EE0610D50A240E268D
:101900001A788454541CE4B206551B26941CE4B285
:101910000655141D1C701C240332D2B284546C066C
:1019200004D51A78541C1C70192484540B240F26D7
:101930001A784905845402F1010502F10204E4B267
:10194000EDB21C70465506D54949097A19B10332E2
:101950001A701022025517211A78464F8154911C93
:10196000197012230132D2B2835400214FF4227233
:10197000414818F0BCFF12F065FB00233F4C029772
:101980006760DFF81CC13E4FE646BA463D4A3E4D11
:10199000138093703D4E3E4A3E48C5F88424F28A37
:1019A000A06085F8803411B2039005F5916B38681A
:1019B0002CF8131000F596704BF823000133122B0E
:1019C000F5D1354F3868C30458BFB6F91C10AEF8CE
:1019D0000610324901F1500C0B789BB98B7891F8C5
:1019E00003B05B450ED20BB3013B03EB830303EB68
:1019F000830303F5617391F801B09BB20BF1040B03
:101A00002EF81B3004318C45E6D1010740F1988057
:101A1000317A072900F28D80DFE811F0440044009C
:101A20007F018B008B008B008B00F2010BF1010B0F
:101A30000BEB8B0B0BEB8B0B0BF56173DBE700BF39
:101A40008988883C00002041303900204C2C00203F
:101A5000F428002035FA8E3C202900207A1000203E
:101A6000E8280020681600209A100020F82B00209B
:101A7000001F002049380108A82C0020D41800209D
:101A80004C270020BC2B0020800600208C2B00203F
:101A9000A0860100453801086C160020142800209B
:101AA000E0180020BC4B01291C60BC48BC4BBD4A5F
:101AB00040F028814FF0030E83F800E00723037005
:101AC0000C23237042F6F82311706380B64B40203C
:101AD0006360B64BA36012F091FA834648B310F0EE
:101AE000C5FBB27A00280CBF01230323002A0CBFD8
:101AF000002208229BF902E0834601920093AC4A3F
:101B00004FF4E1334021704612F046F9BBF1000F6B
:101B100001D0C5F8D004F37C2178013BDBB2A54AA3
:101B20009942137001D800231370003018BF0120B0
:101B300030B9082007F08CFB029B6360039BA36015
:101B400042F201023B68134209D044F620626280EF
:101B50009A0440F1888108222270974A62601C062C
:101B60001FD50026954C964B66746360954B236099
:101B7000954B5E609E6013F041FEDAF8003030460F
:101B80002362E67413F088FE2268904B11780C22D1
:101B90004A439A5C9B46022A40F06C81012013F074
:101BA0007BFE01228A4B1A7000225A709A70DA70FA
:101BB0001A71DA711A725A729A725A7483F87D2401
:101BC00083F8902483F87C24824AC3F82881C3F8E0
:101BD0002421C3F82C21C3F89C840AF0E5F97E4B3C
:101BE0001B68580523D5042012F008FAC5F8D40460
:101BF00038B1038813F0040003D0042B14BF022073
:101C0000012085F8D804102012F0F8F9C5F8DC049A
:101C100038B1038813F0100003D0102B14BF02203A
:101C2000012085F8E00410F0CBFB10F029FB6B4C91
:101C3000B4F80080B8F1000F40F085812C2014F03A
:101C400005F90F2282710E22654EC271132180F8B0
:101C50000880C5F8E40414F01FF9D5F8E40414F082
:101C6000EDFA3388322023F040031B041B0C338031
:101C7000338823F038031B041B0C338033889BB25A
:101C800043F0400333809F238DF831808DF830304E
:101C90008DF832808DF8338012F0AFFBD5F8E40474
:101CA0008DF8558014F01AF904230CAA15A93046B2
:101CB00014F0DAFAD5F8E40414F0C0FA9DF85630BE
:101CC0009DF855201B0243EA02439DF85720134319
:101CD000444A934200F0258100F312816FF40071B1
:101CE000A2F591220A44934200F0088100F3FD809E
:101CF0003D4A934200F01981002323806380A36052
:101D0000E36020E1022119700323037000231370A4
:101D10000723237045F2F053D7E60A23120192FB02
:101D2000F3F200233149A2F5B06241F823200133D8
:101D3000122BFAD1237042F6F82363802C4B4020FB
:101D400063602C4BA36012F059F9834600283FF4DE
:101D5000F0AE10F08BFA737AB17A00280CBF012232
:101D60000322002B0CBF0623072300290CBF0021F0
:101D700008219BF902E083460B438DE80C004021CB
:101D80001D4B1E4A704612F007F8BBF1000F3FF4DE
:101D9000CCAEC5F8D004C8E67C2A0020812A0020F9
:101DA0007A2A00202C2A0020A9350108CD35010807
:101DB00061390108802A002079380108343900206F
:101DC0009A2700209B1000207016002018C70108D9
:101DD00044220020000080BF6C1600202400002058
:101DE0000038004018BA200015400100842A002065
:101DF000A1360108D1360108A0860100B1390108D9
:101E00004FF0000BB24B402083F800B00E2323703C
:101E100044F620636380AF4B6360AF4BA36012F066
:101E2000EDF800283FF485AE0388AC4A03F4107344
:101E3000B17AB3F5107F82F800B090F9020014BFB8
:101E40000122032269B9B3F5107F14BF5B46082352
:101E50008DE80C0040214FF4E133A14A11F09CFFC2
:101E600063E60823F4E7DE077FF579AE10222270DF
:101E70009C4A73E6012A7FF494AE022012F0BEF869
:101E800060B9802007F0E4F98BE60133DBB2042B64
:101E90004FF0010607D9002363740CE09249637C7C
:101EA0000A4690F804E001EB030C9CF81DC1F445D0
:101EB000EBD1002EF0D1637C0C261A4492F81D1150
:101EC000002290F90200019223681B7806FB03B3FD
:101ED0005B780093854B53F82130022111F05CFFB1
:101EE000A06000287FF45AAECBE7814A93421CD011
:101EF00002F51A42023293427FF4FEAE802315E0CF
:101F00007C4A9342FAD005DC013A93427FF4F4AE66
:101F100040230BE0784A9342F0D0013293427FF4A1
:101F2000EBAE4FF48073238003E0202323804FF433
:101F300080736380A38822881B02A3605343E360FD
:101F4000012385F8E834E468ACB14FF00008E40AF6
:101F50000DF1540BA04509DA08EB040676101022A7
:101F60005946F00213F09CFD0F2875DC13F0E8FCD5
:101F7000624BE4021C604FF47A72614B40F602013E
:101F8000A3F84820DAF800205E4B1A6000235E4A6E
:101F900013703A68114209D003215C4A1170012183
:101FA0005B4A11705B4A13805B4A138001265B4BCE
:101FB00000211B682C225A483B6085F88C6318F07E
:101FC00096FC0023574C584A20461360C5F8EC3461
:101FD00011F07EFD554B31461B683046642BB8BF6F
:101FE0006423636408F0BCFA3146032008F0B8FAB1
:101FF0003146052008F0B4FA40F602023B6804209E
:102000001A4214BF3146002108F0AAFA31460220D4
:1020100008F0A6FA39680620C1F3C01108F0A0FA4A
:10202000D9F800100720C1F3C00108F099FAD9F8D7
:1020300000100820C1F3800108F092FA39680920E5
:10204000C1F3802108F08CFA394A137863F07F03DA
:10205000137021B0BDE8F08F00235BF8232001321C
:1020600013D10133042BF8D1344673E7102385F8DC
:102070009F33FEF796BC212385F8A533FEF79ABC63
:10208000112385F8AB33FEF79EBC06F10108264606
:10209000EAE72B2013F0DAFE182282710222047282
:1020A000C2711221A86513F0F7FEA86D012114F08A
:1020B000CAF83C2012F0A1F9FEF767BE012006F035
:1020C0007FFEFEF736BC01200EF080FDFFF769BBF6
:1020D000662B00208938010899380108892B0020D7
:1020E000053A010867380108F0A90108A8C50108E8
:1020F000152020001720C2001740EF00680F0020B5
:1021000084280020A4350020A03500206839002054
:10211000600300206A3900206C390020C0100020C4
:102120009C17002030010020981700204C19002037
:10213000361F0020000000002DE9F04FBA4BA3B07D
:102140001B68CDE904019D6AB84B28461D6016F056
:10215000F3FDB74916F044FEB64EB74BB74C1860C6
:10216000F378002B40F033856368B4489847002823
:1021700040F04585B24B1B689E0740F17C81B14C15
:10218000636820469847A246002800F07081B4F9A1
:102190000E30E362B4F910302363B4F91230636394
:1021A000A94C6388002B40F0FB85A84D2F8806952D
:1021B000002F00F01181DAF8349089EAE970A0EB81
:1021C000E97016F0B9FD4FF07F51804616F0BCFE65
:1021D000DAF82C50834685EAE570A0EBE57016F03E
:1021E000ABFD06460146584616F0B6FF002800F043
:1021F000EB85DAF830000028B8BF404216F09CFDAD
:102200000146584616F0A8FF002800F0DD85B9F118
:10221000000FD4BF4FF001084FF0000800F33C86D8
:102220008B4F8C4E17F8083013BB8B4906F15800C2
:1022300007F06CFB0C2101FB0861DAF82C20CB685D
:102240001344CB60DAF830200B6913440B61DAF8E1
:1022500034204B6913444B61069B1B88012B07D12B
:1022600007F80830736D02200133736511F040FFE9
:10227000736D062B40F0AC8014AE3146774807F002
:102280002AFB002556F8150017F038FC63190235B3
:10229000062D9880F6D1714807F0E0FB4FF000085A
:1022A0004FF4C8724FF07E5BB4F904300793B4F971
:1022B00006300893B4F90830694C0993BAF80C3029
:1022C000A4F10C060A932368079993FBF2F35B1AB7
:1022D00017936368089993FBF2F35B1A1893A3684A
:1022E0004FF0000993FBF2F309994FEA68055B1A76
:1022F00019935A4B03EB05173C330C37069317AB76
:1023000053F829000C9216F017FD0B900A9816F05E
:1023100013FD0B9B0146184616F016FE014616F0FB
:102320005FFD79680B9016F053FC069B47F8040F8D
:1023300059680B9B09F10109184616F049FC069BE8
:10234000B9F1030F43F8040F06930C9AD7D106EBAB
:1023500005175946786F069216F03AFC06EB85058C
:1023600078675946A86D16F033FCA865706E59461B
:1023700016F02EFC08F10108B8F1060F706604F1A2
:102380000C04069A9FD1354A1AA906F1680007F095
:10239000F5F91A9817F06CFD14901B9817F068FD6A
:1023A00015901C9817F064FD00244FF08B47264DC4
:1023B000169014AE56F81400394616F011FD17F0B9
:1023C0009DFB63190234062C5881F3D115F007FBED
:1023D0001E4A1388013B13804FF480501A49DAF8E3
:1023E0002C20B1F90430D31AB1F90A205A4392FBD8
:1023F000F0F2B1F90630CAF82C20DAF83020D31AFE
:10240000B1F90C205A4392FBF0F2DAF83430CAF8F2
:102410003020B1F908209A1AB1F90E309AF8151047
:10242000534393FBF0F31DE0941700206C0F002042
:10243000BD378635201000201C190020940F002085
:1024400068160020F41600202C1700208C0F0020A6
:102450008E0F0020B80B002020170020100C002049
:10246000C40B0020BE48CAF8343007F0FCFE01223D
:10247000BC4B83F8A820BB4BDDE90412D3E92C4503
:10248000C3E92C12B84A9B461268B84E12F0020FEC
:1024900000F01F8593F8A830002B00F01A85DFF8B4
:1024A0000083B349D8F8040016F09AFCB14FB04944
:1024B0003860D8F8080016F093FCAD497860D8F879
:1024C0000C0016F08DFCB860B08916F035FC0146A2
:1024D000A94816F039FD00278046DFF80093F3196C
:1024E000D86A16F029FC414616F07AFC49F8070034
:1024F00004370C2FF3D1DDE90401001B61EB05016A
:1025000016F040F894A3D3E9002316F071F816F002
:1025100009FB0EF045FD994B1A790693002A00F04D
:102520003285974B974C1B6813F0100340F0D7840B
:10253000ADF86830ADF86A30ADF86C302388924D54
:10254000ADF86E30E379914803EB8304904B1AAFFA
:102550001968904B11F4805FDA8A8F4B1B8808BF93
:102560001A4600231E4612B2191929444978012936
:1025700000F0FF84C0F0F584022900F001850133EA
:10258000042BF1D114F096FF824B804F93F820304A
:10259000002B58D0814B1C789BF8B83043B9804B46
:1025A00001211A687F480DF0A4FC01238BF8B83094
:1025B0007D4B186816F0C0FB01467A480FF064FCAA
:1025C0007A4B5D8816F0E8FD95FBF0F0411C09B2EE
:1025D000ABF8D810002C00F075850023744CBBF9C3
:1025E000DAE0DFF8A8C104F1080534F913203CF95A
:1025F00013600EFB02F292FBF1F235F8138025F81E
:102600001360A6EB0808424424F813200133042B7E
:10261000EBD1ABF8DA00BBF9DA400023002C40F331
:1026200058856448BBF9D850A0F1080636F9132044
:1026300030F81310624392FBF5F28A1A27F8132040
:102640000133042BF2D1554B1D780493002D00F07B
:102650001981594B4A4E1A68984612F0040F574C8C
:1026600040F03B85237A33B10722D4F8181104F5E2
:10267000807014F0F3FB524BD8F800201B68510710
:10268000DBF8F000CBF8F0300FD5181A16F054FB39
:102690004C4916F0A5FBD4F8301116F0A1FBD4F884
:1026A0009C1416F095FAC4F89C04237A5BB1336845
:1026B000DA0708D59BF8F4302BB90E2007F0B4FFE9
:1026C00001238BF8F430A37B2BB116200FF058FBBD
:1026D00008B90123E37316200FF052FBA0731820F2
:1026E0000FF04EFB207409F06BFD14F0C5FD1C21AA
:1026F0002378354ADFF8949001FB0323B3F80A806E
:1027000018F4006F00F02585304B1B685B0500F165
:10271000208533682E4A13F0100F00F0438592F89D
:1027200003A0B9F90200514607F0A6F900B200284B
:1027300000F00785274B40429B8A584316F0FCFA6D
:102740000790504616F0F8FA0146234816F03EFA74
:10275000079B014644E000BF8DEDB5A0F7C6B03E33
:1027600020170020B80B002068160020F416002067
:1027700035FA8E3CDC2800208F2A7544BC2B0020C3
:10278000F82B00202429002078B701080A1900201E
:102790006C1600208C2B00200E1B0020DC13002068
:1027A0004C190020740C00206C0F0020D41800205D
:1027B000940C00209C0C00201028002044220020B3
:1027C0004C2700206F12833AA8AF0108201900207F
:1027D00076290020D01000200000FA43E8280020CD
:1027E000184616F0B1FB012114F028FA2B4618F414
:1027F000805F237300F06685C34B1B68580500F1AA
:102800006185336813F0100FC04B00F0EE849978A7
:10281000B9F9000007F030F900B2003018BF01200C
:10282000BB4BD87218F4005FB94900F05585B64B20
:102830001A6812F4806240F04F85B64B1B6813F0A3
:10284000100340F04385B44AB048B2F904208078C0
:10285000002AB8BF5242824240F33B85D1F818317A
:10286000C1F84C314D730B781C2141F2B800AB4AD2
:1028700001FB03239C8920EA04000FF0EBF92046BA
:102880000FF0F8F90023049A9BF8F5401370A44E5A
:10289000002C39D1A34BA449186B16F099F90022EA
:1028A0000023C6E90023C6E90A23C6E90E23002354
:1028B000C6F89800C6F89C004FF49672214606F1BF
:1028C000B400C6F8A030C6F8A4307366C6F88030ED
:1028D000C6F88C30B366C6F88430C6F89030F3661C
:1028E000C6F88830C6F8943086F8B04086F8704054
:1028F00017F0FDFF4FF49672214606F5F07017F0C1
:10290000F6FF01238BF8F53011F020FDCDE904012D
:102910000EF04CFA002840F0E3840023B365F36521
:102920003366824B86F870001B68CBF8F830DDE91F
:1029300004010FF0E9FD0A207D4BDFF8D4A1B3F9C3
:1029400004307C4D5843CAF8180116F0F5F97A495D
:1029500016F0FAFA794916F043FA04460FF0B0FB84
:10296000CAF81C0120460FF023FCDFF8DCE1CAF8AE
:102970002001DEE90023DDE90401801A61EB030197
:102980000B460021024644F61F600124994208BF0D
:1029900090428AF8044080F0A280614E614FCEE9F7
:1029A0000223DDE90423396BCEE90023D6F8980031
:1029B00016F0B4FBD6F884308046002800F030854D
:1029C000D6F88020D6F88C10D6F89080CAF804315A
:1029D000CAF80021CAF80C110846CAF8108116F08E
:1029E000FFF941468146404616F0FAF9014648464D
:1029F00016F0EEF817F03CFA8AF80840CAF83001F1
:102A00000EF0B8F9494B8AF80A001B688AF80140B1
:102A1000CAF85431396BD6F89C0016F07FFB0028B9
:102A200000F015850124D6F89430D6F88820CAF82D
:102A30001431CAF808218AF8074014F0A7F93B4B73
:102A40008AF802401B68CAF85831D6F8A420D6F894
:102A5000A01096F8A830CAF82411CAF82821002B33
:102A600000F0028501228AF809208AF803202A68EA
:102A7000510740F1FF84ABB1DAF824410021204630
:102A800016F06AFB70B1DAF82C710021384616F0A6
:102A900063FB28B13946204616F05EFB00B13C4688
:102AA000CAF82C410C2396F8B070254C03FB076341
:102AB00094E807000137FFB2182F03F1B40E04F1B8
:102AC0000C0403F5F0738EE8070094E8070083E830
:102AD00007008ABF002386F8B07086F8B03011F086
:102AE00035FC0C4A88461368074623F080011160C4
:102AF0002A6812F0040240F0DB848AF81120114B9E
:102B0000054F1B7822E000BF201900207629002005
:102B100044220020F82B00200A190020A8AF010849
:102B2000B03500201C1100206F12833A4C27002082
:102B300012190020102800200000C84235FA8E3CEF
:102B400030360020C0050020B80C0020BBB1AF4BD0
:102B5000B3F90620AE4B1B8B9A4210DCAD4B1B78B1
:102B6000012B01D0192B02D1AB4A527A3AB90E2B64
:102B700005D003F0EF03082B1CBF0023BB80A74B3D
:102B80001B6813F01003079341F04D801C21A44BE8
:102B9000A44A1B7801FB03235B89D90501F1548604
:102BA000A14B5D7A002D01F03E80A04B1B689A0777
:102BB00001F039802DB29E4B9E491C6A204616F0CA
:102BC000ADFA002800F0EE879A4C00F0F3BF2746DC
:102BD000DFF87082E36863B9D8F8003003F1630965
:102BE00011F0B4FB049BC01A28448145F2DAFFF7C8
:102BF000BBBA384698470028EED0FFF7B5BA8E4DDD
:102C0000B5F84870002F48D1B4F92620B4F9203027
:102C10008A4D9B1A2B60B4F92820B4F92230BB46A8
:102C20009B1A6B60B4F92A20B4F92430844F9B1AA4
:102C300094F830102846AB60B94607F014FB814E7B
:102C4000DFF8188255F82B0016F076F8E16916F0D7
:102C5000C7F83B784FEA8B0A012B014605D1069055
:102C600016F04CFF069928F81B00774A774B5AF864
:102C700002001B68984799F800308246022B03D166
:102C800016F03CFF28F81B000BF1010BBBF1030F02
:102C900046F804AFD6D1FFF76DBA2F462C464FF059
:102CA000000973786A4E0693B5F848A036F9020F0A
:102CB000BAF57A7F04BFC7F80090C4F81C903B684F
:102CC00003443B6016F038F8E26902F10108B8F1FC
:102CD000010FC4F81C802BD100232061E0606361E8
:102CE000BAF1010FA6F8069050D1E069012843DD42
:102CF000013816F021F80146A06916F025F917F001
:102D0000B7F8069B8046002B38D0184616F014F80A
:102D1000414616F003FA002830D04FF47A730022AF
:102D2000A5F84830474B5A609A60DA60FFF722BA3C
:102D3000E26808901146079215F048FF8346404626
:102D400015F0FAFF0146584616F0FEF8079A1146AC
:102D500015F03EFF089B014680462061184615F09D
:102D600035FF594616F03CF8616915F031FFC4F89B
:102D70000C80A0616061B3E70020C0E74FF47A7275
:102D80003B6803F5FA7393FBF2F3F380314B04379E
:102D9000B34204F1140487D1B5F84830013BBEE7D3
:102DA00000252D4F0AF12806706815F0C5FF014671
:102DB00078190FF069F816F0A1FE1C35542D46F86D
:102DC000040FF1D1FFF7F1B94FF07F51304616F003
:102DD000BBF8DAF83070834687EAE770A0EBE7705B
:102DE00015F0AAFF81460146584616F0B5F9B8B36A
:102DF0005946404616F092F990B3002DCCBF4FF0E3
:102E000002084FF00308FFF70BBA00BFE0180020DC
:102E10008C2B00207C280020C4100020F82B0020E0
:102E200044220020A8AF0108700F002020190020C4
:102E3000281900209A99193F84280020B80B0020F7
:102E40008C0600204C190020AC0A0020540A0020F7
:102E5000B20F0020B80F002040170020B81000204B
:102E60004FF07F51484616F06FF8814601463046D4
:102E700016F054F900283FF4AFAA4946404616F030
:102E80004DF900283FF4A8AA002FD4BF4FF0050841
:102E90004FF00408FFF7C4B9B7F5C87F7FF4C0A9A5
:102EA00000221346AC49AD4813540132062A0B6088
:102EB0004B608B6001F10C01F6D1A9484365583095
:102EC00006F0CCFDA74A136823F400731360FFF7E4
:102ED000A7B90023F36233637363FFF71CBBA24BF4
:102EE000B4F908001D6815F027FFB5F954603146A4
:102EF00008F080FAADF86800B5F95650B4F90A0048
:102F000015F01AFF294608F075FA984BADF86A00DB
:102F10001B68D87915F010FF954915F061FF05463B
:102F2000B4F90C0015F008FF294615F051FE91493F
:102F300015F056FF29460646284615F049FE01467B
:102F4000304616F001F88B4915F040FE8A4915F01D
:102F50003FFE00F1004016F01FF9ADF86C00FFF7DE
:102F6000EDBA069901EB4301498D20F81310FFF7E4
:102F700006BB032B14BF20F81360C280FFF7FFBA13
:102F800037F81310F1E7794BDFF814821F687B4D97
:102F900097F8029098F800A049465246B5F900000B
:102FA00014F026FA764C4946208052460646B5F97A
:102FB000020014F01DFA6080797A98F801208146A9
:102FC000B5F9040014F014FA6E4BB5F90620198B0C
:102FD000404200B28A42A0806BDBB2F5FA6FA8BF14
:102FE0004FF4FA624FF47A73521A5A43C1F5FA61F8
:102FF000B2FBF1F2642792FBF7F3634903F1010E90
:1030000031F9135031F91E106FF0630E0EFB0323DC
:10301000491B4B4393FBF7F3069A2B44D2781BB220
:10302000E380002A47D0594B1B685D067FF5AAAAAA
:10303000574BB3F904000A2390FBF3F0554B1B8860
:10304000C01A00B215F078FE534915F0C9FE0546C6
:103050000FF0AEF8074628460FF032F8054648460E
:1030600015F06AFE8046304615F066FE01460646BB
:10307000384615F0B5FE41468146284615F0B0FEAB
:103080000146484615F0A2FD16F086F8414620801C
:10309000384615F0A5FE31460746284615F0A0FE35
:1030A0000146384615F094FD16F076F86080FFF77B
:1030B00069BA0A4696E7069A5685A2F82C90D085FA
:1030C0001386B0E7BBF8DA30013BABF8DA30FFF734
:1030D000A2BAABF8DA30FFF7B6BA15200EF050FE00
:1030E00058B39BF8EC30B3B141F21002274B1B6888
:1030F00012EA03090FD1237A6BB13368D4F818119F
:1031000013F0010F0CBF0722052204F5807013F0A5
:10311000A5FE8BF8EC903368D8077FF5ACAA1F4862
:1031200013F040FFC4F8A4011C4813F0C9FEC4F812
:10313000A80113F079FEFFF79EBA01238BF8EC305B
:10314000E9E7237B002B3FF452AB0021002013F072
:1031500075FD0023FFF74BBBC40B00208E0F002032
:10316000B80B0020F82B00200419002018190020AB
:103170000000204100007A440000FA43E0180020DB
:103180000A1900208C2B00205E2900202019002025
:10319000121900208E13002035FA8E3CC82300201F
:1031A00076290020B64B92F803A0B3F90030B9F9A4
:1031B00006005146C01A079306F05EFC00B20028D4
:1031C000BFD0B04AB049928A079BCCBF49880988D2
:1031D00000FB02F0CCBFC91A591AA1EB0A0190FBFF
:1031E000F1F015F0A9FDFFF7FEBA93F80290B7F9D8
:1031F0000200494606F040FC49460FFA80FAB7F94A
:10320000000006F039FC06B2BAF1000F01D1002E21
:1032100049D09C4B9A78012A42D15C8AC9F5FA7947
:1032200004FB0AF090FBF9F015F086FD074604FB5D
:1032300006F090FBF9F015F07FFD944C0646D4F8AB
:1032400020A13846514615F0CBFDD4F81C910790CB
:103250004946304615F0C4FD079B0146184615F057
:10326000B5FC616915F070FED4F8001115F0B0FCE2
:103270004946C4F83401384615F0B2FD51460746B8
:10328000304615F0ADFD0146384615F0A1FCA169A8
:1032900015F05AFED4F8041115F09AFCC4F8380160
:1032A0002846FFF7BDBAE07A00283FF4B9AA1AA869
:1032B00014F0ECFD1AA80122314613F02DFE304621
:1032C000FFF7AEBA0023E372FFF7ACBA1546FFF77B
:1032D000C9BA1D46FFF7C6BA00234B73FFF7C3BA3E
:1032E0006B4C716E206815F071FCB16E824660689F
:1032F00015F06CFCF16E8146A06815F067FC654C1A
:103300008046A169504615F06BFDE16905464846C7
:1033100015F066FD0146284615F05AFC216A05465F
:10332000404615F05DFD0146284615F051FCE16868
:103330000546504615F054FD21690746484615F0EC
:103340004FFD0146384615F043FC6169074640468B
:1033500015F046FD0146384615F03AFC216800F1AB
:103360000047504615F03CFD61688246484615F01E
:1033700037FD0146504615F02BFCA16881464046BA
:1033800015F02EFD0146484615F022FC424BB06573
:103390001B68F76513F0040F3566404C2CD196F886
:1033A000703063BBDFF8D8902846D9F804A05146A6
:1033B00015F00CFC3A49804615F012FD514615F007
:1033C00007FC0021C9F80400404615F0A7FE08B12B
:1033D00008F10048334B987815F0AEFC414615F0E3
:1033E000BBFE314B1B6890B1DBF8F8209B1AFA2B1F
:1033F00010D9012384F8703094F8703053B1204B09
:103400002846596815F0E2FB2066FFF790BACBF822
:10341000F830F1E70023A365E3652366FFF787BA79
:10342000CAF804310023D6F88020CAF80C31CAF853
:103430000021CAF81031CAF830318AF808000DF0BE
:1034400099FC8AF801808AF80A00FFF7E3BAD6F8F7
:1034500088308AF80700CAF8083100238AF8020089
:10346000CAF81431FFF7F1BA8AF809308AF8033044
:10347000FFF7FDBA0D4BCAF82C31FFF713BB00BFA5
:103480001C000020D01000200E1B00204422002031
:10349000E82800202819002010280020B03500203E
:1034A0000AD7233B1C1100204C270020000080BFBE
:1034B00000221C218AF805208AF806206D4C9AF813
:1034C000002013F0100301FB02425289049211D034
:1034D0003A464346049808F025F8674B5A790AB1F2
:1034E00000225A709A79002A3FF409AB00229A70A0
:1034F000FFF705BB049A614D12F0080F4ED06049EA
:103500002B806B80AB809AF80730DBF81021C1F874
:103510000480CBF81071002B3CD0BB1A594A93425F
:1035200006DDCBF81871C1F80C8014F0EFFCD4E77D
:103530009AF80230544CD3B1DBF81861534BBE1BE0
:103540009E42CBF81871C1F80C8020DCA08B15F0DE
:10355000F3FB012100F1004013F070FB304614F042
:103560005FFD304614F012FD01238AF80630BAF9E7
:1035700098244749B4F9263013440A88498893426D
:1035800003DB99420A46A8BF1A46EA80A5E714F071
:10359000BDFCE9E73F4B1B88EB809EE7049BDA0705
:1035A00010D5DBF8203137493B4AFB1A8B42CBF868
:1035B0002071C2F804802EDDCBF82871C2F80C808F
:1035C00014F0A4FC049B9B0718D5344A2E4EDBF85C
:1035D0003831C2F80480B278FB1ACBF83871002A6F
:1035E00046D19AF80B200792264A93425CDD2C4B79
:1035F000CBF84071C3F8048014F066FC049B5807B4
:103600007FF56BAF64221C4BD3F84C3193FBF2F384
:10361000244A138061E79AF8023093B1DBF82861FD
:103620001A4BBE1B9E42CBF82871C2F80C801CDCE2
:10363000304614F0F5FC304614F0A8FC01238AF85B
:103640000630114B1249B3F92620BAF998341A44BE
:103650000B8849889A4203DB91420B46A8BF134668
:103660001BB2EB80ABF83031ACE714F04FFCE5E770
:103670000022B8E7A8AF0108442200200A19002060
:10368000C80C0020400D0300D01000203F0D0300A7
:103690000E1B002024290020D80C0020F00C002054
:1036A000F80C0020A01A00209AF80830002B00F037
:1036B00059829AF80130002B00F0F681B44BDBF808
:1036C0004051C3F80480079BCBF84071002B40F0B9
:1036D000E881B04B7D1B9D4200F34182DAF8001176
:1036E000DAF8340115F072FADAF8141015F078FBF4
:1036F000DAF804118046DAF8380115F067FADAF8DA
:10370000181015F06DFB9AF80B300746002B00F0EF
:10371000E881708A15F00CFB41460646404615F0DC
:103720005FFB39460446384615F05AFB01462046F1
:1037300015F04EFA16F09CFB3146814615F00CFD53
:1037400080B14946404615F0FFFB314615F048FB75
:1037500049468046384615F0F7FB314615F040FBE8
:10376000B14607461C219AF800308B4A01FB03231F
:103770005B895C0529D5DAF81831DAF84C01C01AF2
:103780000EF008FC42F228339842A8BF1846834B3B
:103790009842B8BF184615F0CFFA814915F0D4FB0E
:1037A000804915F01DFB0EF003FD014615F018FBD6
:1037B0007D49044615F0B2FC002840F0BF814FF06F
:1037C0007E51204615F0C8FC08B14FF07E543146BA
:1037D000484615F0B9FB7549064615F09FFC0028D0
:1037E00040F0AE814FF07E51304615F0B5FC08B187
:1037F0004FF07E563146304615F0F2FA01464FF052
:103800007E5015F0E3F9DAF8FC1015F0E9FA0146FC
:103810004FF07E5015F0DAF906462146404615F085
:10382000DFFA314615F0DCFA21468046CAF840013D
:10383000384615F0D5FA314615F0D2FADAF80C11FF
:103840000446CAF84401404615F0C0F9DAF81011F0
:103850000646204615F0BAF931460446304615F0C2
:10386000BFFA21460746204615F0BAFA0146384607
:1038700015F0AEF916F0FCFA4D49074615F06CFC50
:10388000002800F05F8139464A4815F05DFB80460C
:1038900026F00040414615F0A3FA4146074624F0C1
:1038A000004015F09DFA0446284615F045FA4249B5
:1038B00015F096FA4149064615F092FADBF84851A0
:1038C00001468246284615F081F907F1004949462C
:1038D000804615F023FC002840F0378139464046E9
:1038E00015F03AFC00B1B8462946504615F070F97B
:1038F00005460146484615F02FFC002840F0278178
:103900002946384615F00AFC00B13D46DBF84C313B
:1039100051461846089315F059F904F100494946F3
:10392000074615F0FBFB002840F01381214638467E
:1039300015F012FC00B127460899504615F048F9D9
:1039400082460146484615F007FC002840F00381F6
:103950005146204615F0E2FB00B1A2464FF00009A7
:10396000174CCDF808900195CDF800803346D4F877
:103970000C21D4F8401104F120000CF033FACDF8FA
:1039800008900097CDF804A0054633461AE000BF22
:10399000F80C00203F0D0300A8AF0108D8DCFFFFA2
:1039A0000000C84235FA8E3CCDCC4C3D0AD7233CB2
:1039B000CDCCCC3D00007544BD3786350080D44465
:1039C00044220020D4F81021D4F8441104F144001A
:1039D0000CF008FA334607462946CBF84C01022280
:1039E0006348CBF848510EF0EDFB33460222054602
:1039F000394660480EF0E6FBD4F81C91064649466D
:103A000005F1004015F0ECF9D4F8207180463946F4
:103A1000304615F0E5F90146404615F0D9F839462B
:103A20008046284615F0DCF949460546304615F033
:103A3000D7F90146284615F0CBF84F490EF0BCFAED
:103A400007460EF0B5FB0146404615F0C9F94A4954
:103A50000EF0B2FA494915F0C3F9494915F074FA64
:103A600015F09AFB474B93F8245005EB85056D0044
:103A70006E42B04271DBA842A8BF2846A4F8920467
:103A80003E49384615F0ACF93D4915F05DFA15F0A0
:103A900083FB864203DC8542A8BF05462E46A4F878
:103AA00094640122384B5A71079B002B7FF4A6AD1A
:103AB000364B354D1E68B5F99404B6F9564015F0ED
:103AC0003BF9214607F096FC314CB6F95460608012
:103AD000B5F9920415F030F9314607F08BFC2080DF
:103AE0008CE51C229AF80030B6F80E9002FB0344D5
:103AF00063895E0520D59AF97D34002B1CDD1822E0
:103B00009AF9903402FB03A393F8AC21012A13D154
:103B1000B3F9BC41204615F00FF91E49064615F0D1
:103B200011FB48B1484615F007F90146304615F03B
:103B3000FFFA08B11FFA84F94846EBE5164C46E651
:103B4000164E57E6164C2746AEE6C846CCE64D461E
:103B5000DCE64F46F0E6CA4600E730468EE714F052
:103B6000B3F99EE7AAF89434AAF8923446E500BF68
:103B7000080D0020140D00208F2A754400002041FC
:103B800035FA8E3CD0100020442200200419002079
:103B90000A19002000004842CDCC4C3D0AD7233CF6
:103BA000C23D2D444FF07E51204615F0D5FA08B1A4
:103BB0004FF07E5421464FF07E5015F0C5F94FF07E
:103BC0007E5115F003F80446284615F0B5F86B4908
:103BD00015F0BAF90146204615F002F94FF07E5172
:103BE00014F0F6FFDFF8A0810446B8F80060B7F9DA
:103BF0000600801B15F0A0F80146204615F0F0F8ED
:103C00000446304615F098F80146204614F0E0FFCF
:103C100015F0C2FA8642B8F8023003DC8342A8BF2E
:103C200003461E46FE80BBF86831B7F906409C4249
:103C300018BF0122524B1CBFABF868411A701B78A9
:103C4000002B00F0FE804F4B079A1B68002A7CD0A7
:103C50001D7A002D00F08F8018884B4B1E88B042D3
:103C600040F28980B4421FDD801B15F065F8804664
:103C7000A01B15F061F80146404615F065F94FF0BC
:103C80007C5115F0ADF84FF07C5114F0A1FF4FF0CE
:103C90007C51044615F042FA002853D14FF0804180
:103CA000204615F059FA08B14FF08044284615F027
:103CB00043F8324915F048F94FF07E510546204649
:103CC00014F084FF0146284615F08AF84FF07E5123
:103CD00014F07EFF06464FF000084FF0000A2B4D0F
:103CE000079B4FEA4804002B54D006F045FD44449E
:103CF000005D15F021F8264915F026F9314615F03A
:103D00006FF8286006F038FD2044407815F014F86C
:103D10004FF07A5115F064F8314615F061F8C5F8A6
:103D200008A0686006F028FD0444A07815F004F8A7
:103D3000174915F009F9314615F052F8E860C5F851
:103D400010A073E04FF07C54B0E7187A98B11A884D
:103D5000944210DB0C4B5B889C42BFBFA41A4443C7
:103D6000981A94FBF0F0C0F1640014F0E5FF0349E9
:103D700015F0EAF8AEE74FF07E56ACE70000C84217
:103D800008190020181900200E1B00205C190020C3
:103D90000000F841B8F1020F14BFB1464FF07E5950
:103DA00006F0EAFC4444005D14F0C6FFB24915F089
:103DB000CBF8494615F014F82860049006F0DCFCB6
:103DC0002044407814F0B8FF4FF07A5115F008F80D
:103DD0006860089006F0D0FC2044807814F0ACFFB6
:103DE000A64915F0B1F8494614F0FAFFC5F80CA041
:103DF000A860814606F0C0FC025D0319002A9ED02F
:103E00005B78002B9BD00899049815F09DF80499D5
:103E10000446484615F098F80146204614F0D8FEAE
:103E200001464FF0804015F08FF8286108F1010835
:103E3000B8F1030F05F16C057FF452AF0022904BEF
:103E40001A7006F073FD8F4B8F4C1B688F4D13F06B
:103E5000100F00F094808E4B1B68DB0540F18F80C3
:103E6000B7F90090B7F902A0B7F904102B78002534
:103E70000493A84694F901302C465B4201FB03F7FA
:103E8000844E1AAA049B9D42C0F29980824BA4EBF7
:103E900008041A68089312F4805F24B27F4D804BA7
:103EA00000F0D4807F4A1268560758BF7E4AB3F9A3
:103EB000066058BFD28A7C4B58BFABF86A21DA8AB9
:103EC0007A4B98887A4B111A8E4200F3A780B3F987
:103ED0000090B5F90070ABF86A61A9EB070A0FFA18
:103EE0008AFA5445734940F3EF80012250460A7024
:103EF00014F022FF8346204614F01EFF0146584668
:103F000015F022F84FF0000804460DF16809049BF3
:103F1000434500F3A2800222674958469AFBF2FA11
:103F200014F05EFF4FF07C5114F05AFF044607EB8B
:103F30000A0014F001FF214614F048FE15F02CF998
:103F40000FFA80FB0BEB0A0014F0F6FE214614F08A
:103F50003FFE15F021F9534B0FFA80FA1B6813F05E
:103F6000040340F0F380554A55490498984240F3C1
:103F7000328131F8130022F813000133F5E7514B79
:103F8000B3F90090B3F902A0B3F904102B78032B16
:103F90007FF66CAF6688B6F5FA7FBFF467AFB7F906
:103FA0000430724283EAE370A0EBE370131A994283
:103FB00003DB33188B42A8BF0B4619B256E75046B5
:103FC000089214F0B9FEB16814F00AFF0790484651
:103FD00014F0B2FE716814F003FF079B0146184607
:103FE00014F0F6FD0790384614F0A6FEF16814F0C0
:103FF000F7FE079B0146184614F0EAFD15F0CCF8D1
:10400000089A00B2A04222F8150003DC8045A8BF40
:104010008046204601351036044633E70244964276
:1040200004DBB5F90290B3F9027054E7BBF96A21D9
:104030009142A9BFB3F90090B3F90270B5F90070CD
:104040004E46BCBFB5F902903E4646E7B3F906605E
:10405000B5F90070B5F902903FE739F9180014F08E
:104060006BFE214614F0BCFE15F096F829F81800F6
:1040700008F101084BE700BF0000F8410020EE44C2
:1040800008190020F82B00207C280020061B0020A7
:1040900020190020CC0900206C1600200E1B0020E7
:1040A0000A190020102800208C2B002076290020DF
:1040B000081B0020071B0020C3F5A83E181B00208A
:1040C00074280020001B002000200870504614F0C7
:1040D00033FE1D4914F084FE4FF002084FF07C516E
:1040E00014F07EFE94FBF8F49AFBF8F8824607EB96
:1040F000080014F021FE514614F068FD834638197B
:1041000014F01AFE01460790584615F025F8079B53
:1041100000B95B46184615F03FF80FFA80FB0BEB31
:10412000080014F009FE514614F052FD8046A9EB38
:10413000040014F001FE04460146404614F0EEFF70
:1041400000B94446204604E7C3F5A83EBB4ABC4834
:10415000B2F96A21069B0A92BA4AC18A9288DB7830
:104160008A1A09B207931091089B04990B92B64AD8
:104170001C684900578804911288B44904F480539C
:10418000B5F8009008930C926B88AA880D88C979BD
:104190004D452CBF002501250029079918BF002592
:1041A0000029069708BF0025002704F01004099491
:1041B000A74C008B24680F9004F080040D94A54C4C
:1041C00010B2B4F90640DFF8D4820E94119004992D
:1041D000B94240F00681A04B1A780893002A00F0FB
:1041E000BD809E4B96481B6804939D4B1A68994B63
:1041F00012F4807F00F082819A490C88ADF8684003
:104200004C888988ADF86A40ADF86C104FF47A712B
:104210004FF4616412F4804218BF934A934D18BF63
:10422000D288ADF88420B5F9022002F5E1624A4354
:1042300092FBF4F2A2F5FA72ADF88020B5F90020F5
:1042400002F5E162514391FBF4F1894AA1F5FA715B
:104250001288ADF88210A2F2DC521988ADF86E20F7
:10426000C28A891AADF870105988891AADF872108F
:104270009988891AADF87410D988891AADF8761022
:104280001989891AADF878105989891AADF87A1008
:104290009989DB89891A9A1A0023ADF87E20754A1C
:1042A000ADF87C109146194622F813100133082B03
:1042B000FAD14FF0000A704B704D1B78704E714C64
:1042C0000793079B9A45C0F2318100256427DFF8E8
:1042D000B4A1DFF8A0816C4EB8F900009AF90A3059
:1042E0004FEAC50B584390FBF7F000B20028A8F83E
:1042F000000040F3758114F01FFD56F8351014F0DE
:104300006FFD14F049FFA8F80000E8B206F018FAB3
:10431000B8F80030BAF906201844BAF9043000B2EF
:10432000984203DB82421346A8BF03460135082D9D
:1043300028F8023B0AF10C0ACED11B200DF020FD1B
:104340003E4D95F8AC31002800F0A781012B00F01C
:104350006C81C0F04B81022B00F096814B4D2B6895
:10436000980631D5002006F0EBF9424C0746208034
:10437000012006F0E5F90646608007200DF000FDFB
:1043800010B32E4BDFF8FCE093F8E8319EF90A10E9
:10439000012B364B40F0928148429EF91620B3F92A
:1043A0000210B3F900304143534332206FF0310221
:1043B00091FBF0F193FBF2F293FBF0F00A44BA1A8E
:1043C0002280084430446080314B1B68002B40F051
:1043D0008581304B1B780BB10CF058FC23B0BDE845
:1043E000F08F139330461AAB1292DC5B14F0A4FCEE
:1043F000294B53F8371014F0F3FC14F0CDFE584558
:104400005946129A139B03DB50450146A8BF5146FB
:104410000C44079924B228F8024F002940D0944256
:104420000ADB9C42A8BF1C460999A8F80040002955
:1044300040F00D820237CAE61446F5E7B80B0020BB
:104440008C2B002076290020081B00202429002026
:10445000F82B0020E01800207D0700201C19002008
:10446000201900200A190020C41000201219002071
:10447000181B0020DC0F0020F0170020F31700208D
:10448000240D002074180020840700206C160020E2
:10449000800700200C0A0020CC090020161B0020F9
:1044A000089939B30A990B9881421ADC4C4523DBF1
:1044B0000C998C42A8BF0C460999A8F80040002925
:1044C000B8D00D9921B91DB90E990F988142B1DA72
:1044D00011991098089C002C18BF0146A8F80010EC
:1044E000A8E706998C4203DB9C42A8BF1C46E3E781
:1044F000069CE1E74C45F7DA4C46DDE7BC490C8801
:10450000ADF868404C88B1F90410ADF86A40B94C78
:10451000ADF86C102468E4047FF578AEB3F906506A
:10452000C48AA542BFF672AE49426DE66B7822AAF4
:10453000069302EB430333F9200C14F0FDFB0A232E
:104540008046E87895F800B0584314F0F5FB002158
:10455000074614F001FE00283FD03946049814F0B5
:104560003FFC326801460A901046099214F02EFB77
:1045700007460146404614F0D1FD60B9099A0A9BEE
:104580001146184614F024FB07460146404614F035
:10459000E3FD00B94746376056F8040B14F0FCFD04
:1045A0000C23012103FB0BF3069AE35801FA02F2F4
:1045B0001A420CBF0B464FF0FF3395F9022000B2B0
:1045C00050436422434393FBF2F339F81B208A449F
:1045D000134429F81B30043573E6C6F80080DBE786
:1045E000B34414F0A9FBDBF8041088E6824B1B6887
:1045F0005F077FF5B3AE02230C27002205F5D770C5
:1046000005F5E07107FB0346368941F8232020F8C1
:1046100013600133062BF5D1784BC5F8E4211B68F4
:10462000C5F8E031012385F8AC31734B1B685E0798
:1046300042D5734902230E46D5F8E4210132C5F86C
:10464000E42151F8230039F91370384441F823006C
:104650000133062BF5D1694BD5F8E0111B685B1AC5
:10466000B3F57A7F7FF67AAE02230C2756F8231033
:1046700007FB034091FBF2F10133062B0181F5D1D9
:10468000022385F8AC3169E65B4B1B685C073FF59C
:1046900065AE13F0A4F90323F3E7022B0CD1B5F8B0
:1046A000B2312384B5F8B431A385B5F8B631238788
:1046B000B5F8B831A4F844300023E2E7B3F902209A
:1046C000B3F900004A43322192FBF1F23A442280CE
:1046D0009EF91620504390FBF1F073E6494EB6F96F
:1046E0000430002B5BD10023474A484FDC19B4F952
:1046F0000410B2F90200B4F90640884203DB844298
:104700002146A8BF01460C33602B22F8021FEDD1D1
:104710003F4B1B78012B02D0192B40F08980364B80
:104720001B68590700F18480777AB7FA87F77F0909
:10473000089B1C788CB1374B1C7874B10026364B23
:10474000DFF8E48093F80090DFF8D0A098F800201C
:1047500009EB06039A4234466CDA2B689A060AD5AE
:104760002E4FE0B2661C398811F064FB7988F0B2F4
:10477000023411F05FFB2B68DB027FF52AAE0025C7
:10478000274EE4B2601936F8021FC0B211F052FB96
:104790000D2D05F101033FF41CAE1D46F2E7214F3C
:1047A00097F8E94107F5F67874B9DFF8809008EBDF
:1047B0000400D9F80020B1881C340BF09AFBE02CDF
:1047C000F5D1012387F8E93100240F4FB7F9020032
:1047D00014F0B2FA014608EB04000DF055FB14F09A
:1047E000DBFC1C34E02C27F8020FEFD17BE700BF85
:1047F000001B00206C160020102800204C270020F1
:10480000780D0020C4100020DA0F0020741800205A
:104810007C280020F0170020F1170020DC0F00207A
:10482000E6180020B80B0020F21700204C190020D9
:1048300000277DE7F0B227B1002111F0FBFA013625
:1048400084E73AF81310F8E76425FEF7B4B9002DB1
:104850007FF43EAEEEE500BF2DE9F04FC14F97B0BB
:104860003E78002E00F0D980BF4C2068002874D01C
:1048700004F05AFCBD4E04F10C0560680FF02EFFE9
:1048800000286AD060680FF026FF092801D03F2871
:104890005AD14FF0000BDA46D846D4F8089006EB10
:1048A0000B03B9F1000F08D04A465BF80610284602
:1048B000019304F09FFD019B18B9B8F1000F34D0AB
:1048C0009A460BF1080BBBF1E00FE8D1B8F1000FED
:1048D00014D0D8F800E0DAF800C0A3681EF803008E
:1048E0001CF80310814209D15A1C09BB3D2B1FD86B
:1048F0002020A2602344224418731173A3680BB1D3
:10490000D04508D09A480BF069FDD04514D90BF07A
:1049100073FD4FF00009A3689945AED215F8090060
:104920000BF054FD09F10109F5E798469A46C8E7EE
:1049300023441873A260D0E758F8080B0BF04EFD23
:1049400009200BF043FDE0E7A368002B41F0EB8367
:10495000042805D1874808F0D5F917B0BDE8F08FD5
:104960000C2841F00F8484480BF038FD0BF044FD17
:1049700083E701220B4601F0E8BB591E685C202842
:10498000F7D002B1A3604FF00008234483F80C80F5
:1049900004E008F10808B8F1E00F1DD058F806B09F
:1049A00006EB080A584613F063FC59468146024656
:1049B000284604F01FFD0028EBD104EB09031B7B04
:1049C000A3F13002092AE4D923F02003413B192B3B
:1049D000DFD96A4B9A4503D369480BF0FFFC05E029
:1049E00009F10100DAF8043028449847002301F067
:1049F000B0BB3F2B3FF641AFA0F12002D2B25E2AFE
:104A00003FF63BAF13B920283FF437AF5A1C23447D
:104A1000A26018730BF0DAFC2FE75A4B5A4C1B6854
:104A20005A4F03F00403019354F8053C002B41F066
:104A3000EF820136032E04F1D804F5D18DE7242846
:104A400041F01A83002384F8CB30012304F8013CA1
:104A500014F8013C0D2B41F0E182484B0DF128097F
:104A60000FCB89E80F0094F8CC20D4F8C7308DF82C
:104A700042200022B4F8CD8023440F930FFA88F32C
:104A80005FFA88F8ADF844200692494606AA4046E7
:104A90000E94ADF84030ADF8303001F091FB054692
:104AA000002840F0A481B8F1760F0E9B40F0B2814F
:104AB0005A1C0E9293F80080B8F1000F40F0398133
:104AC000334B1B68D90740F194814FF0A509454647
:104AD000C246C3462F4B0ECB042054E14D2803D0D1
:104AE000582803D00023B1E70223AFE70323ADE743
:104AF0003C284FF00003A9D1C4F8C33084F8CF306C
:104B000084F8D0300423A1E73C284FF000039DD166
:104B1000C4F8C33084F8D030022384F8CB300A23A1
:104B200094E7D8231C48D4F8C31003FB06034A1C9F
:104B30000B44C4F8C32083F805B094F8CF30022AA0
:104B40008BEA030B84F8CFB082D12378C02BC9D86D
:104B50006278FF2A22D1052BC4D9012384F8CB30F7
:104B6000072373E7F41E0020880E002040AB0108E5
:104B70006AC70108940E00206FC7010820AC010825
:104B80007AC7010810280020AD2C00200000204129
:104B9000F82B0020281F0020A82C0020A4F8CD20EE
:104BA00000229342C4F8C73084F8CC20C4F8C32054
:104BB0000CBF0623052349E7D823C348D4F8C31004
:104BC00003FB06034A1C0B44C4F8C32083F805B05A
:104BD00094F8CF308BEA030BD4F8C73084F8CFB009
:104BE0009A427FF435AF062330E794F8CF305B4527
:104BF0007FF478AF0D2329E7D823B349D4F8C32035
:104C000003FB0613551C1344C4F8C350587194F8A1
:104C1000CF300146434084F8CF3094F8D0000DF0F7
:104C200001FB072D84F8D0007FF412AFB4F8032005
:104C3000B4F80530A4F8CD20A278C4F8C73084F8C1
:104C4000CC2000229342C4F8C3200CBF09230823C0
:104C5000FCE6014694F8D0000DF0E4FA94F8CF3069
:104C600084F8D0008BEA030384F8CF30D823964829
:104C7000D4F8C31003FB06034A1C0B44C4F8C3203A
:104C800083F805B0D4F8C7309A427FF4E1AE092327
:104C9000DCE694F8CF30434084F8CF3094F8D0303D
:104CA00083427FF41FAF9EE7D8238749D4F8C320FF
:104CB00003FB0613551C1344C4F8C3505871014636
:104CC00094F8D0000DF0AEFA052D84F8D0007FF4F2
:104CD000BFAEB4F80120B4F80330A4F8CD20227898
:104CE000C4F8C73084F8CC2000229342C4F8C32013
:104CF0000CBF0C230B23A9E6014694F8D0000DF05D
:104D000091FAD82384F8D0006F48D4F8C31003FB7D
:104D100006034A1C0B44C4F8C32083F805B0D4F83A
:104D2000C7309A427FF494AE0C238FE694F8D030CB
:104D30005DE7B8F1FF0F0AD112A964480AF08CFDB3
:104D400012A90EC94FF0A509AA46AB46C4E608F160
:104D5000FF31CBB21D2B55D85D4A92F97D34984571
:104D600050DC18234B4303F5D67303EB020EBEF958
:104D700010B0BEF912A0BEF914509EF816900EF1B4
:104D80000401985C0EC9DDF828E002930EF1010CD5
:104D9000CDF828C08EF80080DDF828E00DF1580825
:104DA0000EF1010C48F830CD8EF800004046039219
:104DB00004F0C6FC039A4046114604F0C1FC029B75
:104DC0004046194604F0BCFC1FFA8BF1404604F043
:104DD000CBFC1FFA8AF1404604F0C6FCA9B240465B
:104DE00004F0C2FC0A9B5A1C0A9283F80090012529
:104DF00007E34FF0A5094546C246C346434642462F
:104E0000414669E64FF0A509AA46AB462B462A461D
:104E1000294661E60F9DB8F1470FA5EB030535D193
:104E20000EA804F05DFC052D80462DD90EA804F0D7
:104E30006DFC0B9B0A9DDFF89CA05D1BA842A8BFE0
:104E40002846DAF80C5083B2A5EB0805AB4298BFB0
:104E50001D464846414688BFADB204F071FCDAF801
:104E60000C3008EB05029A42DDF8289088BFA3EBCE
:104E7000080510F065FD2A464946404610F010FE30
:104E80000A9B18440A90B2E78020D2E7B8F14C0F91
:104E900000F0588700F22781B8F12B0F00F0F4865C
:104EA00000F2C880B8F1160F00F0FB8400F2818098
:104EB000B8F10D0F00F0C5840ED8B8F1070F00F05F
:104EC00072844FF0FF359CE2A82C00204423002080
:104ED0004422002024000020B8F10F0F00F05B8571
:104EE000B8F1110FEDD10EA804F010FC13F024FF5F
:104EF0009C4914F029F83946804614F02DF900B188
:104F0000B846994D0EA8C5F8088004F0FFFB13F0D1
:104F100013FF944914F018F83946804614F01CF930
:104F200000B1B8460EA8C5F8148004F0EFFB13F0EA
:104F300003FF8C4914F008F83946804614F00CF948
:104F400000B1B8460EA8C5F8188004F0DFFB13F0D6
:104F5000F3FE844913F0F8FF3946804614F0FCF85C
:104F600000B1B8460EA8C5F81C8004F0CFFB13F0C2
:104F7000E3FE7C4913F0E8FF3946804614F0ECF874
:104F800000B1B8460E9AC5F820801146531C0E9306
:104F900011F8023B75480A2BA8BF0A23052BB8BF9E
:104FA00005230E9143715378012BA8BF0123EB70A9
:104FB0001DE7B8F1250F00F0578620D8B8F1180F7B
:104FC00000F0C084B8F1230F7FF47BAF5A1C0E921F
:104FD000187813283FF675AF00214FF00C0E9A1C7D
:104FE0000E925A78DFF894C10EFB01C595F808803F
:104FF000904501F0828001312129F5D161E7B8F1B6
:10500000270F00F03C86B8F1290F7FF45AAF0EA8A5
:1050100004F07CFB564DE8800EA804F077FB0E9B55
:1050200028815A1C0E921B780EA8AB7204F06EFBFE
:10503000A881DCE6B8F13C0F3FF4D9AE2DD8B8F129
:10504000350F00F05A820DD8B8F12D0F00F02586EB
:10505000B8F1330F7FF435AF5A1C0E921A78454BD6
:10506000DA74C4E6B8F1370F00F0EB86B8F1390F07
:105070007FF427AF19465A1C0E9211F8020B3C4AD6
:105080000E91597810701171D91C0E919978D170C8
:10509000191D0E91DB785371A9E6B8F1430F00F0AA
:1050A000958612D8B8F13E0F00F07881B8F1410F23
:1050B0007FF407AF00232F490E9A501C0E901278F0
:1050C0005A540133082BF7D191E6B8F1480F00F09C
:1050D000AE84B8F14A0F7FF4F4AE0EA804F016FBCC
:1050E000254B988083E6B8F1D00F00F07C8400F265
:1050F000FC80B8F1C90F00F0A68443D8B8F15F0F67
:1051000000F0018325D8B8F15B0F00F0D382B8F12D
:105110005D0F7FF4D6AE5A1C16AD45F8202D1A78D7
:10512000DFF85C80144B2846D8F80090DA7104F060
:10513000EDFAFF28A8BFFF2089F840002846D8F8DC
:10514000008004F0E3FAFF28A8BFFF2088F843009E
:105150004DE6B8F1610F00F05A83B8F1C80F3FF483
:1051600046AEAEE60000C8421C1100209B10002095
:10517000E61600208C2B00202010002064AC0108D3
:1051800004190020B8F1CD0F00F03A844FD8B8F1DF
:10519000CA0F00F00E81B8F1CC0F7FF492AE092D4A
:1051A0007FF68FAE0EA804F0BCFA00210E9BDFF84C
:1051B000C8935A1C0E92D9F800801B7888F80230E8
:1051C0000E9A022902F101030E93137840F0DC815C
:1051D000B42BA8BFB423022BB8BF022388F8073032
:1051E00001310329ECD1931C0E9353780EA8642B44
:1051F000A8BF642388F80830D31C0E93937888F8EE
:105200000330131D0E93D37888F8043004F07EFA2F
:105210000A2DA8F8000006D00E9BD9F80020591CD2
:105220000E911B7853720125C54B1D70E9E0B8F152
:10523000CE0F00F0F083B8F1CF0F7FF442AE0EA88E
:1052400004F064FA6FF4AF6543199BB2DFF82C8366
:10525000C62B98BFA8F816000EA804F057FAB94D4F
:1052600028800EA804F052FA68800EA804F04EFAC6
:10527000A8800EA804F04AFAB34BB44D18800E9BD8
:105280000EA85A1C0E921B782B7004F04AFA0E9B43
:105290000EA85A1C0E921A4612F8021B69700E9242
:1052A0005A78AB4DEA72DA1C0E929B7888F813306C
:1052B00004F037FA0EA804F029FAA64B00EB8000A0
:1052C000400018800E9B5A1C0E921A4612F8021BC0
:1052D0000E925A7829702A71DA1C0E929A78EA7026
:1052E0001A1D0E92DB786B7181E5B8F1D90F00F0D1
:1052F000AF812CD8B8F1D30F4AD012D8B8F1D10F62
:1053000000F0DE83B8F1D20F7FF4DBAD924A126871
:1053100052073FF56CAD5A1C0E92187812F050FBF4
:1053200065E5B8F1D40F00F03981B8F1D60F7FF4FC
:10533000C8AD0025DFF848820EA804F0E7F9032D78
:10534000D8BF28F815000135082DF5D14FE5B8F183
:10535000DC0F00F09D810DD8B8F1DA0F00F08381E9
:10536000B8F1DB0F7FF4ADAD7C4B7D48196803F0DD
:105370002DFF3CE5B8F1F20F00F04481B8F1FA0FCF
:105380007FF49FAD744B1B685B073FF59AAD31E32B
:105390000EA804F0BBF9734B188028E55A1C0E9236
:1053A0001A46714912F8020B88700E925B784B70A6
:1053B0001DE5002505F0E0F9DDF8389005EB45081E
:1053C000CA4609F101030E931AF8023B013500F8B1
:1053D000083005F0D1F9CDF838A099F801304044F3
:1053E000437005F0C9F909F103030E9399F80230EF
:1053F00040440A2D8370DDD10125514B1D7006F00C
:10540000D3FDDDF828B0DFF87CA11022002112A81E
:10541000ADF83450CDF82CB094F8CB80CDF828A05E
:1054200015F065FA24238DF84830504B013543447C
:1054300093F8F030D1468DF8493014BF3E23212334
:10544000ABEB0A0B8DF84A30B8F1000F40F03D8508
:10545000BDF83030BBF1FE0F8DF84C30C5BFFF23D7
:105460004FF007084FF005088DF84B3012AB03EBF7
:1054700008014FF00003CCBFADF84DB08DF84BB034
:105480000DF14B028A4240F0168539490BF1FF308D
:10549000421A4A44002A00F313854FF001098DF89F
:1054A0001C3054F8050CDDF828A00FF011F9002885
:1054B00000F0908554F8050C03681B6A002B40F03F
:1054C000A485424612A954F8050C0FF00DF95A466E
:1054D000514654F8050C0FF007F954F8050C4A46EC
:1054E00007A90FF001F954F8050C03685B6A002B5B
:1054F00000F07B85984700F078BD5A1C0E921A7810
:105500000B2A3FF6DEAC991C0E915D78032D3FF619
:10551000D8AC06215143174842185571DD1C0E9531
:105520009D7895701D1D0E95DD7845541979517043
:105530005979D170D91D9B790E91137157E400BF31
:10554000081900200E1B0020242900209B10002099
:10555000E6160020A21000201028002004190020C8
:10556000FCDC0108A01A00201C10002040AB010840
:10557000373A002032100020181900208C2B002010
:1055800074280020383A0020B42BA8BFB423062B7F
:10559000B8BF062308EB0100437121E60F2D7FF40D
:1055A00090AC5A1C0E921D78072D3FF68AAC4FF036
:1055B0000C080EA804F0AAF808FB05F8DFF87C93A5
:1055C00009EB0805A8800EA804F0A0F8E8800EA852
:1055D00004F09CF80E9B28815A1C0E921B780EA892
:1055E000AB7204F09EF80EA804F09BF80E9B0EA878
:1055F0005A1C0E921B78EB7204F072F849F80800FE
:10560000FFF7F5BB5A1C0E9219780F293FF659ACDB
:105610009A1C0E925878BD4A16AD02F82100D81C8B
:105620000E90987802EB8102191D50700E91D97876
:105630009170591D1B7945F8201DD370284604F040
:1056400065F8284604F06DF805F02EF8FFF7CFBB9B
:105650000EA804F05BF8AE4D28800EA804F056F8B2
:1056600068800EA80FE05A1C0E921A4612F8021B10
:10567000A84D0E925A7816A86A70DA1C40F8202DB0
:105680009B782970EB7004F041F8A880FFF7AFBB5E
:105690005A1C0E921A4612F8020B9F490E9208707D
:1056A0009E4A59781170DA1C0E929A789C4B9A7027
:1056B000FFF79DBB5A1C16AD45F8202D1B78DFF86F
:1056C0005882284688F8023004F02BF8284604F067
:1056D00028F80E9BDFF868925A1C0E921B78284619
:1056E00089F8083004F012F8A9F80600284604F0FA
:1056F0000DF88C4B58800E9B5A1C0E921B7888F824
:105700000330FFF774BBDFF824820EA8D8F80050EE
:1057100003F0FCFFA5F848000EA8D8F8005003F0ED
:10572000F5FFA5F84A000EA8D8F8005003F0EEFFE8
:10573000A5F844000EA803F0F4FF0EA803F0F1FF53
:105740000EA803F0EEFF0E9BD8F800505A1C0E92E4
:10575000187813F0F1FA744913F0F6FB4FF080411A
:10576000814613F0F9FC08B14FF08049C5F8589014
:105770000EA803F0CBFFA5F85C000EA803F0D1FF44
:105780000EA8D8F800900A2503F0C0FF6843C9F8B6
:1057900050000EA8D8F8008003F0B8FF6843C8F89E
:1057A0004C00FFF724BB0EA803F0BBFF0EA803F0CC
:1057B000ADFF0EA803F0AAFF0E9B5C4D591C0E9185
:1057C0002A681B780EA882F8463003F0AAFF0EA8BC
:1057D00003F09CFF564B504958800E9B5A1C0E926A
:1057E0001A4612F8020B88710E9229685B780EA88F
:1057F00081F8423003F095FF0EA803F092FF0EA847
:1058000003F08FFF0EA803F08CFFFFF7F0BA5A1CCD
:105810000E921A46414912F8020B16AD0E924870CC
:105820005978444A1170DA1C45F8202D9A783C4B7F
:105830002846DA7003F075FF284603F072FF284609
:10584000E1E75A1C16AD45F8202DDFF8EC801B78F7
:10585000284688F8023003F059FFA8F80E002846C1
:1058600003F054FFA8F81000284603F04FFFA8F8F3
:105870001200284603F04AFF0E9BA8F814005A1C99
:105880000E921A4612F8021B284688F824100E922F
:105890005B7888F8003003F039FFA8F82600FFF79E
:1058A000A6BA0EA803F032FF0E9B234D5A1C0E928F
:1058B0001A46288412F8021B0EA829710E925A78F3
:1058C0002A72DA1C0E929A786A711A1D0E92DA7890
:1058D000EA715A1D1B790E92EB7003F017FF688472
:1058E0000EA803F013FFE8830EA803F00FFFE88271
:1058F0000EA803F00BFF28830EA803F007FF6883B0
:105900000EA803F003FFA883FFF771BA3318002035
:10591000081B002076290020201000202C170020D2
:10592000A2100020C41000200000C842041900206A
:105930007C280020CE100020D010002074180020F9
:105940000E1B00200EA803F0E1FE9E4DE8850EA878
:1059500003F0DCFE28860EA803F0D8FE0E9B6886B6
:105960005A1C0E921A4612F8021B0EA80E9285F8C7
:105970002A105A7885F82B20DA1C0E929A7885F82E
:105980002C201A1D0E92DB7885F8343003F0BEFE11
:10599000E886FFF72CBA0EA803F0B8FE8A4DA8805F
:1059A0000EA803F0B3FEE8800EA803F0AFFE288136
:1059B0000EA803F0ABFE68810EA803F0A7FEA88135
:1059C0000EA803F0A3FEE8810EA803F09FFE7F4D12
:1059D000A8800EA803F09AFEE8800EA803F096FEB9
:1059E0002881FFF704BA7A4B1B6858073FF5FFA9D7
:1059F0000FF014F911F006FF0EF0E0FEFFF7F7B913
:105A0000734B1B6859073FF5F2A94FF4C872714BED
:105A10001A80FFF7ECB96E4B1B685A073FF5E7A9F0
:105A20006D4A136843F004031360FFF7E0B910F008
:105A300067F80022694B83F8DC2083F8DD20C3F887
:105A4000E020FFF7D4B95A1C0E921978624A99B334
:105A5000116841F002014FF00008614D11600DF135
:105A600058099A1C49F8202D85F8018085F8028094
:105A700085F804805B784846AB7103F031FEA8607E
:105A8000484603F02DFEE860484603F03FFE2861DB
:105A9000484603F03BFE642328844020AB84EB841B
:105AA000A5F81A80A5F81C80A5F81E800CF0CAF88D
:105AB00011F0BCFFFFF79BB9116821F00201CAE7A2
:105AC0005A1C0E921A4612F8028B16AD45F8202D7C
:105AD000284693F801A003F003FE0590284603F042
