:020000040800F2
:1000000000500020999101080D240108994B010826
:100010000B2401080924010807240108000000003E
:10002000000000000000000000000000052401089E
:1000300003240108000000000124010803F900085E
:100040003992010839920108399201083992010860
:100050003992010839920108656301086363010858
:100060003992010811F90008399201083992010802
:1000700039920108399201087D630108399201081B
:10008000E9C900083992010839920108399201083A
:10009000DD240108399201083992010861630108E1
:1000A0003992010851610108399201086161010822
:1000B000456101083561010825610108B7D70008CD
:1000C000B9D70008B3D70008B5D70008399201089E
:1000D00039920108716301083992010867630108C8
:1000E00015F9000839920108F12301080000000009
:1000F0000000000000000000000000000000000000
:0C01000000000000000000005FF808F1A3
:100110002DE9F04F684B694EA5B033600023736042
:1001200009F090FB18B909F075FD0EF0B9FF09F060
:10013000ABFB634A634C1378634D43F001031370C8
:1001400000230C930D930E934FF4E0130F93236849
:10015000287C43F480332360A36943F01003A36138
:10016000236803F400330D930C9B01330C930D9B18
:100170001BB90C9BB3F5A06FF2D12368514913F45E
:10018000003301D0022315E00A6842F001020A6040
:100190000C93236803F002030D930C9B01330C9323
:1001A0000D9B1BB90C9BB3F5A06FF2D123689A0786
:1001B00039D501230E93454B45491A6842F0100288
:1001C0001A601A6822F003021A601A6842F00202EA
:1001D0001A606368636063686360636843F48063A4
:1001E00063603C4B1A68043B22F070425A603A4A02
:1001F0001160616821F47C116160596841F000412F
:100200005960D96821F40041D9609B681B0449BF3B
:10021000324B4FF4E01313604FF480130F930E9B97
:10022000012B01D117E0FEE7022B18D168B10F9B1B
:10023000B3F5801F02D14FF4A01305E00F9BB3F577
:10024000E01F02D14FF400130F930F9963680B4323
:1002500043F4803302E0636843F46013636023680F
:1002600043F0807323602168164B8F01FBD55968DA
:1002700021F003015960596841F002015960636837
:10028000104903F00C03082BF9D14B68144F03F00D
:100290000C03042B03D0082B03D00D4B2AE013686A
:1002A00028E04B684868C3F38343C00303F10203AB
:1002B0001AD40C4A1DE000BF35E500087803002081
:1002C0008424002000100240242800200020024046
:1002D00000127A000410014018000020001BB70033
:1002E000F400002000093D0049681268890348BFF6
:1002F000520853433B6063684E4AC3F303131344ED
:10030000197B3B684C4ACB40697C3B60003118BF8D
:1003100001213172494B4A490693916049490DF1D7
:10032000900AD160A169049241F00101A161616A62
:10033000DFF830B1F160616ADFF82C9141F0807133
:100340006162A1694FF0000841F01C01A1614FF604
:10035000FF712AF82C1D584651468DF866800CF026
:1003600070FB484651460CF06CFB374851460CF088
:1003700068FB10218DF84A10022124AB8DF84B1038
:100380004FF4007123F8481D03935846CBF8101022
:1003900003990CF056FB2D48416841F00071416013
:1003A00050460BF035FA19992948049AB1FBF0F13F
:1003B0002848204B016028494FF47A70C1F800802A
:1003C000C1F8048039681B4FB1FBF0F123480139B3
:1003D0004160F02182F823100721C0F808800160F5
:1003E000A968DFF88880C8F8001003F11C0103C970
:1003F0008AE80300A169199841F00801A161082168
:10040000C9F810101AA90CF01CFBD8F80010CDF890
:1004100014B011F0080F069B30D093F89A21012AEE
:100420002CD80F4A93F89B31D26812F0805B00F011
:100430001D8623E004AA010800ED00E02428002026
:10044000000000080005FA0500100140000001400E
:1004500040420F00FC1A0020C81A002010E000E003
:100460007803002000080140000C01407C3000208F
:10047000B04B002283F89B210EF0B8FE4FF4FA70C7
:100480000FF035FAA022AC48002119F0D7F8AB4A9A
:10049000536823F4406343F0706343F40063536094
:1004A000E369002243F00703E361A36943F40063B7
:1004B00043F00C03A361A24B4FF0000903F11001BC
:1004C00002F8019001320C2AF5D1FF221A775A77EF
:1004D0009A77DA779B4A9C4B49461A609B483022B0
:1004E000D8F8008019F0AAF84946C8F3801404220D
:1004F000974B964811F803E00C234B4303F800E0B8
:100500004CB9BEF11E0F01BF4FF0FF0E02F1FF32DA
:1005100003F800E0D2B201310429E9D18D4B95F8FE
:1005200005901A708C4B8D4983F800908C4B844A4F
:100530003362C0330B608B490C2303FB091318F0A3
:10054000200F5B7818BF01235362002340F2DC5177
:10055000854A22F813100133082BF7D11C22039887
:10056000002119F06BF818F400721DBF7F4BCDF815
:1005700060A003930392B9F10E0F03D009F0EF03CB
:10058000082B02D101238DF85A30C8F340038DF8AF
:100590004E30C8F340338DF84830C8F3C0338DF87F
:1005A0004B3018F400638DF8504007D095F88E3129
:1005B00003F1FF3EDEF1000343EB0E038DF84C30F8
:1005C000C8F300438DF85130736A003218BF01221E
:1005D000003318BF01238DF85330C8F300538DF852
:1005E0005430B5F84A318DF85220B5F8482118F446
:1005F000805FADF85830B5F85631ADF85E2018BFC1
:100600004C4AADF85630C8F3804318BFB2F85021B9
:100610008DF84F30B5F8543118BFADF85E20B3F502
:10062000FA7FADF85C3084BF0023ADF85E3095F8FA
:10063000DE3108F00109C8F3C0044D4800216822EA
:1006400086F828308DF849908DF84A4018F0F6FF6A
:100650009DF85A30002B0CBF00230223B9F1000F84
:1006600000D104B1013307EB83077B6A4FF0000927
:100670009A1E163304920693049A32F8023F0492AB
:100680004FF6FF72934200F01E829DF84D10DCB2CF
:100690001B0ADAB219B1A11E012940F20F829DF89E
:1006A000501031B13348210140583349884200F09D
:1006B00005829DF84E1051B12E48059D00EB0410A7
:1006C0004168A94203D10189012900F0F7819DF811
:1006D0004B1051B12748059D00EB04104168A94219
:1006E00003D10189022900F0E9819DF84C1051B134
:1006F0002048224D00EB04104168A94203D1018932
:10070000022900F0DB81189E7EB11A4D316805EB9D
:1007100004156868884208D12989B088884200F0A9
:10072000CD81F088884200F0C981022B28D19DF844
:10073000483029E024280020E41E00200000014069
:1007400078030020902A0020F02E0020F42E0020B4
:100750003FDC0108F40C0020041E0020841F002050
:100760003828002058B501080C1E002004AA0108F2
:10077000A403002078D1010800040040000C0140CF
:10078000012B04D19DF84930002B00F097819DF892
:100790005310A44B51B19DF85A1039B9092C05D109
:1007A000D3F89010A048814208BF04229DF854104D
:1007B00031B19DF85A1019B9211F032998BF04229D
:1007C0009DF8481024011D19A1B1D11EC9B20129FB
:1007D00008D81B59B3F1804F00F0708193498B42C8
:1007E0006DD16BE1022A40F03B811A59904B9A423D
:1007F00067D163E1012A62D19DF84F208D4E22B965
:10080000BDF85C20B2F5FA7F06D91A59884B9A4296
:1008100004BF032386F89430DFF808B2FF2386F87C
:10082000DC3086F8DD300BEB04035A7B586803F1AB
:1008300008081B890027ADF8643019A9022386F83F
:10084000E470C6F8F0508DF867308DF8662086F8B1
:100850009870C6F89C70C6F8A070C6F8A470C6F868
:10086000D87086F8DE7086F8DF7086F8E0700CF0DD
:10087000E8F85BF8040098F802103A460CF05EF8CD
:1008800028463946012215F0C7FC6B4B6B49C6F868
:10089000F4306B4B0A1DC6F8F830C6F8FC702846D9
:1008A00015F002FD96F82E30202206EBC30383F8E4
:1008B000352096F83030013386F83030F8E0022ADF
:1008C00056D1584A5FFA89F34FF01C0C0CFB03FC1D
:1008D0001119584E91F80DE001F108034868098993
:1008E00006EB0C0800274FF0010BADF86410022155
:1008F00088F8E5908DF8671088F8E67019A988F8EF
:10090000EE7088F8E4B0C8F8F050CDF824C08DF847
:1009100066E0089207930CF094F8079B089A997880
:1009200010593A460CF00AF8284639465A4615F04E
:1009300073FC444ADDF824C0C8F8F42006EB0C012F
:10094000414AF431C8F8F820C8F8FC700A1D28465E
:1009500015F0AAFC96F82E30402206EBC30383F86C
:10096000352096F82F30D9445B4486F82F309FE02D
:10097000032A78D19DF84F302E4C9BB14FF6FF7271
:1009800000232846082194F82D600CF055F92F4BD0
:10099000192243F826002E4BC36094F82E3004EB46
:1009A000C3032FE0BDF85C2094F82D60B2F5FA7F08
:1009B00014D9284B2846B3FBF2F2082192B2BDF8B5
:1009C0005E300CF039F9214B0D2243F82600224B02
:1009D000C36094F82E3004EBC30313E01F4B28468A
:1009E000B3FBF2F2012192B2BDF85E300CF024F9B3
:1009F000164B092243F82600154BC36094F82E309D
:100A000004EBC30383F8352094F82E3094F82D209E
:100A1000013304EBC30383F82C2001321D6384F8F7
:100A20002D2045E078D10108002C01400004004051
:100A3000000800407803002061C500086C04002015
:100A4000DDC6000879C9000839C50008B41E0020B9
:100A50001DC7000800127A002DC7000840420F0091
:100A6000012A3FF4C9AE042A28D1BDF85620664BAE
:100A7000664C93FBF2F2284692B2BDF85830012141
:100A800094F82C600CF0D8F894F82E300A22013338
:100A900004EBC30383F82D2094F82C2004EB860686
:100AA00083F82C200132C6F8C4011D6384F82C2081
:100AB000564A92F82E30013382F82E30049B069A63
:100AC00093427FF4D9AD514C514B94F82C20002522
:100AD00084F8E4214F4A1D7016789846A6F1170253
:100AE000022A19D8236A0021585903EB050917F087
:100AF00077FF10B1636A63BB26E0474F99E80F00A8
:100B00002F4487E80F0098F8003010350133C02DCE
:100B100088F80030E6D1EDE70C2373433F4AD11843
:100B200012F803E0D1F804C088F800E0BCF1000F2F
:100B3000E0D07545DEDA384F2B011F4463440FCBFC
:100B4000013587E80F00F4E7354F3B68DD0424D416
:100B50001DE0344B344A13F8360003EBC6035D68DE
:100B60001070002DF0D000238342EDDAC3EBC301F7
:100B70006A18D2F800C0DFF8BCE0013341F80EC0BB
:100B800001EB0E079188B9809279BA71ECE706F013
:100B9000EF03082B254B25D126E098F80030012BD8
:100BA000F5D9234D05EB031303F110081035454526
:100BB000EDD055F8100C4FF07C5117F07DFD4FF043
:100BC0007C5145F8100C55F8140C17F075FD4FF0DA
:100BD0007C5145F8140C55F80C0C17F06DFD45F8D8
:100BE0000C0CE3E70E2E08D11A78182E42F01002F2
:100BF0001A7021D112F042FC1EE01A78192E22F050
:100C000010021A70F5E700BF40420F007803002081
:100C1000041D0020041E00201C1D002058B50108E2
:100C20007C30002088B40108AC1E0020881F002002
:100C3000241D00203C1E002012F004FC3B68C04D27
:100C400058035EBFBF4B01221A70BF4A4FF0020823
:100C50001378514643F0040313704FF40043ADF88A
:100C6000643014238DF86630AB698DF8678043F0EB
:100C70000403AB61B5480BF0E4FEB54AB54B002068
:100C80001A600EF049FEB44B032693E80300AB69EB
:100C90008AE8030043F00803AB6119981AA90BF026
:100CA000D0FEAB69A02243F48053AB61EB68A74848
:100CB00043F48053EB60514618238DF8663005935A
:100CC0004FF00409ADF864208DF867600BF0B9FEB1
:100CD00040229E4851464FF0100BADF864208DF82D
:100CE00066900BF0AEFE99485146ADF864B08DF8B1
:100CF00066B00BF0A6FEEA684FF0070C42F4805293
:100D0000EA60EA68059B22F48052EA60934A1188FF
:100D100001F4415141F4457131431180918B21F42B
:100D2000006101FA0BF121FA0BF19183A2F810C0D6
:100D30001188CDF810C089B241F040011180EA69F4
:100D4000514642F48042EA612A6942F480422A61B3
:100D50008DF86760824E8DF8663030464FF4204340
:100D6000ADF864300BF06DFE4FF4804330465146D1
:100D7000ADF864308DF866900BF063FE4FF4805947
:100D800030465146ADF864908DF866B00BF059FED0
:100D90002B69744A43F480432B612B69DDF810C042
:100DA00023F480432B611388404603F4415343F4FA
:100DB000457343F003031380938B23F4006303FA1A
:100DC0000BF323FA0BF39383A2F810C013889BB2A2
:100DD00043F040031380C6F810900EF087FB002804
:100DE00001F091824388002B01F08D82DFF88C8125
:100DF0000021404610223E6818F020FC4FF6FF7399
:100E0000ADF84430022306F4004A06F400694FF0BE
:100E1000000B1E408DF846308DF847B00FD00126EC
:100E200024A921F84C6D49480AF060FE072388F890
:100E300000B088F801B088F8026088F80330BAF191
:100E4000000F12D0022324A921F84C3D3F480AF09C
:100E50004DFE0123F21888F8043088F80630072385
:100E600088F8056088F80730D6B2B9F1000F13D0C2
:100E7000022324A921F84C3D39480AF037FE092302
:100E8000012288F80C3088F80E20731C072288F89D
:100E90000D6088F80F20DEB26B68334843F440439E
:100EA0006B606B69DFF8C09043F001036B61AB6965
:100EB00043F40073AB610AF033FC2C4B012E199301
:100EC0002B4B4FF000051A9394BF2B4680231E93A3
:100ED0004FF480731F934FF480632093202319A94C
:100EE000219348464FF400531C9622931B951D9561
:100EF00023950AF0F7FBD9F800301E4A43F00103AE
:100F0000C9F800305368012E23F4702394BF0021E8
:100F1000012123F4807343EA012353609168164B47
:100F2000013E0B4043F4602343F002039360D36A15
:100F3000F6B223F4700343EA0656D66201231FE09B
:100F400000100240900C0020842400200008014082
:100F50002DF200084C33002038AA0108003001406F
:100F6000000C014000380040080002404C240140C1
:100F70001012002000240140FDF7F1FF00120020B4
:100F800008EB0502917800295BD018F80500591C80
:100F90000928C9B2D278C74E11D9A0F10A0CD6F8E7
:100FA0000C900CEB4C0C4FF0070E0EFA0CFE29EADD
:100FB0000E0E02FA0CF24EEA0202F2600EE0D6F8D1
:100FC00010C000EB40094FF0070E0EFA09FE2CEAA4
:100FD0000E0E02FA09F24EEA02023261062BB54EFB
:100FE0000ED8013B726B03EB83034FF01F0E0EFA1A
:100FF00003FE22EA0E0200FA03F3134373631FE0B9
:101000000C2B0ED8DA1FD6F830C002EB82021F2359
:1010100093402CEA030E00FA02F34EEA0303336313
:101020000EE0A3F10D02D6F82CC002EB82021F23C2
:1010300093402CEA030E00FA02F34EEA0303F36234
:101040000B460435102D9BD19A4B9A6842F480725E
:101050009A609A6842F001029A609A6842F0080227
:101060009A609968934A090731D5FAE7013B092B41
:101070003FF604AA786D5146CAF8000048460BF0C6
:10108000E0FC4FF40063C9F810303C200EF02FFC58
:1010900095F89B319B45BFF6EBA9DFF850920822EB
:1010A0004FF40063C9F8102078200692C9F8143074
:1010B00004930EF011FC069A049BC9F814207820C2
:1010C000C9F810300EF008FC0BF1010BE0E7936853
:1010D00043F004039360774B9E6816F00406FAD140
:1010E0009A6842F4A0029A6014F0C6FC3B681B06A2
:1010F00002D5714A714B1A60714B7249987CDA893A
:1011000093F86CB1DD7C50B1BBF1000F14BF4FF40C
:101110007A727D22681E84F8E5016A4301E084F852
:10112000E501DFF8CCC193F863A193F86F8193F8E0
:101130007051DCF800300A609B8D00210C2262485F
:10114000CDF814C00493DFF8A09118F077FA0021CD
:1011500014225E4818F072FA002384F8E63119462A
:1011600089F8E7310C2209F5F470069318F066FA55
:10117000574A2320C4F8F4210EF0B9FB7520012151
:101180000DF12F0212F04CFDB8B1524A069BC9F87E
:10119000EC21514A1846C9F8F021432289F8E82188
:1011A000012110AA12F03CFD9DF8403003F07E03AF
:1011B0008DF84030002847D14FE0484A6B20138813
:1011C000802123F040031B041B0C138013884FF075
:1011D000060923F038031B041B0C43F03003138073
:1011E00013889BB243F04003138012F0E1FD962078
:1011F0000EF07DFB7520012119AA12F0BDFD9DF8AE
:101200006430682B05D009F1FF3919F0FF09EED1E0
:1012100088E00C20012119AA12F0AEFD9DF864307F
:10122000142B7FD3182B02D9543B062B7AD80323D7
:1012300084F8E631432384F8E831294BC4F8EC31D3
:10124000284BC4F8F0316DE0682B06D1012389F8F2
:10125000E6311D2389F8E83164E09DF82F3003F072
:101260007E03682B8DF82F3057D10223062084F897
:10127000E6310146D4F8EC3119AA98479DF8691077
:1012800001F001029DF8671001F001014B0043EAF3
:1012900082019DF8652002F001030B432AD05BB266
:1012A000012B01D1002302E0022B2FD1012384F86E
:1012B000E73137E0002401401C2A0020A83100203B
:1012C00024280020E02E002068300020E0050020C7
:1012D00040AA0108213C0108633B0108003001409D
:1012E000793D0108B13D010878030020000C014060
:1012F000880F0020C64B0C20D3F8EC31012111AA35
:1013000098479DF8443013F00F0303D103200EF0EB
:101310006FFB07E0042BC9D1C4E7702B04BF042383
:1013200084F8E631BB4A0023137094F8E631032BAE
:1013300017D1B94BB949DFF830931960B84901208A
:101340005960B849D960B84919610423137006235C
:1013500089F800300DF04AFEAD4B4A4693F8E6019D
:1013600003E001200EF044FB3FE2534640F2023E10
:101370000A2B28BF00230121994001EA0E0EBEF17D
:10138000000F12D111F0FD0F0FD003280DD1A74B84
:10139000A74902201960A7495960A74B0421197079
:1013A000072353700DF022FE06E0012B4FF0000AD8
:1013B000DBD8A14B83F800A0052D00F258814FF037
:1013C000010A0AFA05F313F0320940F0558113F0CF
:1013D000090F09D15B0740F1178194F8F8318C4D62
:1013E000002B40F0438177E00A200EF080FA77204E
:1013F000A021524611AB0CF01DF90028EDD077204A
:101400001E2152460CF081F94FF42F600EF064FA61
:10141000A9F160010025C9B2022219AB77208DF82D
:1014200064508DF865500CF005F99DF865309DF815
:10143000642043EA0222764B03F5FD7129F801206E
:1014400009F10209B9F1100FE2D1B3F808222946D7
:1014500002F00F0E02F47F42A3F808222B4601206F
:10146000DFF8ACC121F001056544B5F8FA51002D53
:1014700018BF002011F0010F03D0EDB26B4008251A
:1014800002E083EA1523FAE713F4004F18BF83F450
:10149000C053013D4FEA4303F6D101311029DFD19A
:1014A0005B4942EA0E02A1F80822002895D1C3F355
:1014B00003339E4591D142F21073604A0325138095
:1014C00053805F4B53605F4B93605F4BD3605F4BC8
:1014D00013615F4B5361CAE0C8200EF008FA772011
:1014E000D021012211AB0CF0A5F8002800F0C48037
:1014F0009DF844300322552B85F82332A5F82C2281
:1015000040F0BA80D121012211AB77200CF092F883
:101510009DF84430772003F00F021B0985F8242240
:1015200085F82532162219ABAA210CF083F89DF814
:1015300064209DF8653043EA0223A5F80C329DF83B
:1015400066209DF8673043EA0223A5F80E329DF825
:1015500068209DF8693043EA0223A5F810329DF80F
:101560006A209DF86B3043EA0223A5F812329DF8F9
:101570006C209DF86D3043EA0223A5F814329DF8E3
:101580006E209DF86F3043EA0223A5F816329DF8CD
:1015900070209DF8713043EA0223A5F818329DF8B7
:1015A00072209DF8733043EA0223A5F81A329DF8A1
:1015B00074209DF8753043EA0223A5F81C329DF88B
:1015C00076209DF8773043EA0223A5F81E329DF875
:1015D00078209DF8793043EA022341F27072A5F831
:1015E0002032164B1A8046F678125A80194A5A60F1
:1015F000194A9A60194ADA60194A1A61194A5A61F5
:10160000012385F8F83131E0012D30D134E000BFFD
:101610007803002069330020E0050020DD3D01084B
:101620006D3A0108513A010890C1793D68300020B7
:10163000F93C0108B53A01086833002078320020EF
:10164000333B0108A93B0108293B0108973B0108EE
:10165000B9370108593B0108F93B01083D3B010836
:10166000B93B010875390108F00000200225AF4B95
:1016700004209D700DF0BAFCAD4D2B68990702D582
:10168000AC4803689847AC4B58461B689847AB4B2F
:1016900000221A709946B8F1050F00F22486DFE89F
:1016A00018F025002206250006000F001200002178
:1016B00024AB03F82C1D0C2001220BF0BBFF68BBF0
:1016C0003B681A0635D44FF0000A24AB03F82CAD62
:1016D0000E20072101220BF0ADFF002843D1B8F105
:1016E000010F52D94FF0000889F80000002224AB06
:1016F00003F82C2DC4F830221E200A2101220BF001
:1017000099FF0028D3D09DF86430482BCFD18C4B63
:101710008C4A1A608C4A5A60022331E09DF864308A
:10172000482BCDD1864B894A1A60894A5A600323D7
:1017300026E0884B884A1B6819780C234B43D11844
:1017400089780029BFD0D35C012B06D07C4B834A1B
:101750001A60834A5A60042312E002200DF0A0FFB1
:101760000028F3D1AFE79DF86430C42B06D1744B49
:101770007C4A1A607C4A5A60052301E05046AEE775
:101780006A4A0820D3700DF031FC784B93F8582149
:101790000AB177490A7093F859210AB175490A705C
:1017A00093F85A310BB189F800302B68724D13F061
:1017B000080F00F0A085BDF910904FF0640899FB68
:1017C000F8F4204616F024FF824608FB149000B27D
:1017D00016F01EFF694916F06FFF0146504616F0DD
:1017E00063FE674916F068FF2860664D08222B7873
:1017F0000A2443F002032B70634B1A610495624D77
:101800001920EB68013C83F00803EB600EF06FF8E1
:1018100001200EF081F819200EF069F800200EF07A
:101820007BF814F0FF04EAD10823414C2B612368B4
:101830001B0705D5424B1B689847544B01221A7071
:10184000534B4FF000081B68187C16F0E1FE51491D
:1018500016F032FF0DF0C0FB4F4B4E491860364B6F
:10186000186916F029FF4D4B18604D4BC3F80080E6
:10187000C3F80480C3F8088011F06EFE494BFF21C5
:1018800018461E2217F0DAFE03460020187018468C
:101890002468454A14F002054FF001011CBF59703D
:1018A000032311701EBF13700223837013784FF04F
:1018B000190C03F102095FFA89F982F800905A1CA9
:1018C00000F803C0D2B24FF01C0C00F802C014F0B4
:1018D0000A0C34490DD0042201F80920DA1CD2B2D6
:1018E00005208854304A181804331070DBB20622E1
:1018F000CA543968DFF8B09011F0200F18BF99F87A
:101900000030284A1FBF581C89F800000720D05417
:10191000164B587900F0EF03082B47D0A0F10E0EBC
:10192000DEF1000747EB0E0741E000BFF0000020AA
:101930006430002068300020E00500207133002072
:10194000B8320020EDCE000855C80008E5C70008F1
:1019500051C70008A831002048D10108553F0108AF
:10196000393F01088DD70008ADD600082428002093
:101970006933002068330020FC0700208988883CF8
:101980000000204184240020000C0140303300205E
:10199000E007002035FA8E3C48330020B8070020CD
:1019A000C8070020E1300020E03000200127630755
:1019B00002D467B10C060AD599F800300324D45438
:1019C0009C1C013389F80040DBB21D24D45411F073
:1019D000800302D0BCF10A0F0BD047B33DB9AF4C26
:1019E00023785F1C2770AE4C0B27E7541FE0002BB9
:1019F000F5D0AA4D0A242B784FF0090CD4545C1C66
:101A0000E4B202F804C09C1CE4B24FF0180C02F8D7
:101A100004C0DC1CE4B24FF01A0C02F804C05C1DD8
:101A200004332C70DBB21B24D454002FD7D19B4F2E
:101A30000C243B784FF0110CD45403F1020E5C1CC3
:101A4000E4B25FFA8EFE11F4806F02F804C087F8EA
:101A500000E0944C09D094F8905235B103333B70B8
:101A60008F4B4FF0120C03F80EC018280ED13B78A4
:101A70001320D054581CC0B24FF0140E02F800E0EE
:101A8000D81C02333870DBB21520D054080341BF94
:101A90003B7816205A1C3A7044BF814AD054CA057C
:101AA00041BF3B7817215A1C3A7048BF7C4A7E4898
:101AB00048BFD1540021982217F0C0FD15F040F81E
:101AC0007A487B4B8146B4F852211860794B7A49A9
:101AD0001A807A4A0023138093700860784A794903
:101AE000D2F800E00B70B4F8A0110EF12E028BB208
:101AF000754F764D3868DFF824A200F596704AF8E5
:101B0000260025F816300136122E2846F0D1704EE8
:101B10000EF17E0E3568069615F4805F08BFB4F8A6
:101B2000A631C3801378E3B9937892F803A05345A4
:101B300017D23BB1013B03EB830303EB830303F5B4
:101B4000617307E00AF1010A0AEB8A0A0AEB8A0AC2
:101B50000AF5617392F801A09BB20AF1040A20F819
:101B60001A3004327245DDD12B0740F1158194F80B
:101B70009A21072A00F20A81DFE812F008000B0020
:101B800012003900530074007400EE0045F2F05268
:101B900001E042F6F8224F4B1A8014F08FF8F4E07F
:101BA00042F6F8224B4B09011A800A2391FBF3F10C
:101BB0000023A1F5B061484A42F823100133122BEB
:101BC000F9D1464A464940201160464A13700DF04B
:101BD00067FD002800F0DA8001234FF0070B90F931
:101BE000000040218DE808083F4A404BC8E042F61B
:101BF000F822384B40201A803D4A384B1A60394B46
:101C000010221A700DF04CFD002800F0BF80012357
:101C10004FF0000A90F9000040218DE80804354A91
:101C2000ACE042F6F8222B4B40201A80324A2B4B74
:101C30001A602C4B08221A700DF032FD002800F0BB
:101C4000A58001234FF0000C90F9000040218DE8A1
:101C500008102A4A4FF4E1330DF00DFF284BC3F86A
:101C600034028FE042F6F8211A4B264D19801D4BA5
:101C70000C2125481970062A4FF000032B700370C1
:101C80004ED0224A4FF4E1351370214B1B221A70BB
:101C9000204B05221970204B1A704BE0E0300020D9
:101CA000E13000202428002000310020B629002047
:101CB000E80D0020EC0D002078300020AC30002032
:101CC000880F0020230D00202832002080300020C3
:101CD0007C300020100800200C1100206000002043
:101CE000E1B30008E82E0020E5630108A0860100AA
:101CF000CDB30008D5B50008B5B3000889B5000814
:101D0000780300209A100020851100208411002003
:101D10008611002099100020871100206C0D0020F2
:101D20005A485B4D03705B4B212018705A4B197059
:101D30005A4B1A705A4A5B4B40201A600DF0B0FCA7
:101D400020B301234FF0000E90F9000040218DE8F0
:101D50000840554A2B4613E0544A524B40201A6023
:101D6000534B0A221A700DF09BFC78B10123002618
:101D700090F900008DE848004E4A40214FF4E133CD
:101D80000DF079FE003018BF012028B908200DF0B1
:101D900055F9494A434B1A60484B45491A6812F4B1
:101DA000804F1FBF12230B7045483E4B18BF186071
:101DB00042F2010313409BB144F62060414B95046D
:101DC000188041BF08230B703F48364B48BF18604E
:101DD000D00741BF0C230B703C48324B48BF186002
:101DE0000B78043B4B7011067CD5394D394B0026DE
:101DF0006B60743B2B60384B6E745E609E6012F0BB
:101E0000E3F83B6830462B62EE7412F027F92B683A
:101E1000324A19780C234B43D35CAA46022B9346D3
:101E200003D1012012F01AF95CE0012B5AD10220F3
:101E30000DF036FC18B980200DF000F952E06B7CF3
:101E40004179274A12F803E08E4504D00133DBB212
:101E5000042BF6D900238AF811309AF811300C219E
:101E6000D35CDAF8002090F90000127801FB02BB85
:101E70009BF8012002210092002201920DF0FBFD4F
:101E8000CAF808000028CCD1D5E700BF8411002093
:101E900090D00300861100209910002087110020A7
:101EA000C9B20008600000205DB40008B9B20008A3
:101EB000E82E002011B40008E16301087C30002006
:101EC000B563010810080020D1630108C16301084F
:101ED000A8310020902A00203433002048D1010886
:101EE000EA000020059BC94ED3F800B0C6F8248153
:101EF000C74BDFF86083002558464FF0010AC6F84B
:101F00002031C6F82831C6F8188386F800A075700D
:101F1000B570F57035717571B571F5713572B57350
:101F200086F8F95286F80C5386F8F8520EF028FA23
:101F3000A8F1BC03C6F82C33A8F1B403C6F82833C3
:101F4000B44B0BF1C6001968C6F8249311F4007F56
:101F5000C6F81C030DF1640998465BD0DFF8F8B2AF
:101F6000039BAD49CBF800308B69102643EA0A0386
:101F70008B61039B02211B888DF84310A74810A991
:101F8000ADF840308DF842600AF05BFDDBF80010E0
:101F9000A2484988ADF8401004218DF8421010A9DC
:101FA0000AF04FFDDBF800105046097A0AF034FDC4
:101FB000DBF800109A4849684161484619918DF84C
:101FC00068508DF869608DF86AA013F01FFADBF88D
:101FD000001011A8497A8DF846508DF8441003215D
:101FE0008DF845108DF847A013F0F2F93A688D4945
:101FF0003C3A30468C4F0A600CF0F8FFE1238B48E6
:10200000A7F838320CF0E8FF894B4FF0FF32C7F8E1
:102010003C021A60D8F800305A0561D5824F854BD2
:10202000D7F840B20420C3F800B00DF039FB04210A
:10203000C7F844020DF010FB7F4B87F848020820D8
:10204000C3F800B00DF02CFB7C4B082118600DF09C
:1020500003FBDFF808A287F84902002150462C2232
:1020600017F0ECFA8E238AF80130E0234FF07C0C55
:102070008AF803307D238AF800C08AF82B30DFF815
:10208000E0A100212C225046CDF814C0039317F094
:10209000D5FADDF814C0039B8A228AF8012020209B
:1020A000A0228AF800C08AF803208AF82B30C7F8EB
:1020B0004CB20DF0F5FA2021C7F850020DF0CCFA21
:1020C00087F854021020C7F858B20DF0E9FA102131
:1020D000C7F85C020DF0C0FA87F860020FF0F4FF59
:1020E000574F4FF0000A3B88322023F040031B0477
:1020F0001B0C3B803B884FF4805B23F038031B04B0
:102100001B0C3B803B889BB243F040033B809F23EA
:102110008DF844308DF845A08DF846A08DF847A085
:102120000DF0E5FB8DF865A0DFF8F0A011AA0423FF
:10213000CAF814B0384649460BF03FFBCAF810B055
:102140009DF866209DF86530120242EA03429DF830
:1021500067301A433B4B9A423B4B17D008D83B4958
:102160008A420CD001F51A4102318A4209D01CE0A2
:1021700037498A4205D001318A4207D015E0202232
:1021800000E080221A804FF4807202E04FF48072E7
:102190001A805A809A88198812029A604A43DA6033
:1021A000214A012182F8611204E000221A805A803B
:1021B0009A60DA60DB68002B54D04FEAD32AD3460A
:1021C0004FF0000CD4450DDA0CEB0A077F10F80233
:1021D00049461022CDF80CC00AF084FF0F28DDF824
:1021E0000CC007DC08F0CCFF0F4B4FEACB22C3F842
:1021F000642237E0002359F8232001327FD10133D4
:10220000042BF8D1BA46BB46DCE700BFC42400204B
:10221000000080BF7C30002000100240000C014014
:1022200000040140B032002078030020DB0FC93EDB
:10223000E80C0020600E0020D00E00201C0F0020B3
:102240000038004018BA20000800002015202000A7
:102250001740EF00242A0020B4320020A00E0020F6
:10226000D40E0020D8F80010294B11F4002218BF1A
:1022700001221A706379052B02BF264B4FF4C872F6
:102280001A80254B4FF47A721A80244BC8221A8088
:10229000234A137843F008031370224A137823F07B
:1022A0000203137040F602030B406BB11E4A1F4B32
:1022B0001A601F4B03221A701E4B01221A701E4A0D
:1022C000002313801D4A1380A368069A13601C4BD9
:1022D00001221A70049B049A1B7863F07F03137029
:1022E00025B0BDE8F08FB8F1010F7FF64EAA4FF090
:1022F0000008FFF7CCB900232B60FFF776BA07F18F
:10230000010C5F467FE701200BF038F8FEF76EBD49
:10231000910C0020F80D00208A1F0020643300205B
:10232000881F00206F330020A8290020FC11002006
:1023300062300020EF000020A4240020A62400200A
:10234000900C002000000000624B2DE9F04F1A684D
:1023500099B0546A604A1E46927C604DDAB933687F
:10236000988C5F4B188016F04FF95E4916F0A4F96F
:102370005D4B18605D4B1B689C0740F1DF8112E0EC
:102380000DF08EFA5A4B1B68E31A1844594B1B6820
:1023900064339842E3D2EB6814A898479DF8503014
:1023A000002BEDD0DBE7544F4C4E7B6806F1140058
:1023B0009847002800F0BE81504CB6F914302360D5
:1023C000B6F916306360B6F91830A360B37E33B93E
:1023D0004B4B18889946002800F082812DE0F27E50
:1023E000AAB9444A126892B15FFA83F8404606F1EE
:1023F0001C0113F002FC404606F1380113F0FDFB0E
:10240000404606F1540113F0F8FB0123F376EB7E0E
:10241000002BDDD0002654F8260016F0F9F8394BD1
:102420001C2101FB06310CF029F917F013FB44F8CD
:1024300026000136032EEED1CAE7D4F808E026685C
:102440008EEAEE7386EAE672A3EBEE73A2EBE67217
:1024500093420CDD2949496881EAE17CACEBE17CDF
:10246000634504DDBEF1000F1ADC01264FE0606811
:1024700080EAE071A1EBE0718A4206DD9A4204DD58
:10248000002ECCBF0226032641E0914240F3288172
:10249000994240F325810028CCBF0426052636E06A
:1024A000B0F5C87F32D1184B00220C48002600F14D
:1024B000B80156540132062A43F8046C1E605E606F
:1024C00003F10C03F1D1C0F8C060C4300CF072FC11
:1024D0001DE000BFAC32002024280020E0050020D1
:1024E00066330020BD378635BC1F002064300020D5
:1024F00054330020E02E002068300020480E0020D9
:10250000F80D0020FC05002054060020002605EBF5
:10251000060A9AF8B830DFF8E8820BBB08F1C4006D
:10252000B4490CF09FFB0C2303FB06862368326F33
:1025300013443367726F636813447367B26FA368A1
:102540001344B367B9F80030012B09D18AF8B830C9
:10255000D8F8C03002200133C8F8C0300DF030FA8E
:10256000D5F8C030062B40F0B7800DF13809A248ED
:1025700049460CF05CFB002659F82600D5F814817A
:1025800017F068FA28F816000136032EF4D19A489D
:102590000CF010FCB8F900304FF0000B0493B8F9C0
:1025A00002300593B8F90430DFF8748206933B8952
:1025B000079358F8041C4FF4C87091FBF0F1049B8A
:1025C0008D4FC91A1191D8F80010D8F8042091FB4A
:1025D000F0F14FEA6B0607EB061992FBF0F209F1F6
:1025E0000C09CA46059B4037C91A069B1291D21A9C
:1025F0001392002211A951F82200099216F008F84E
:102600000890079816F004F8DDF820C001466046EF
:1026100016F006F9014616F04FF884465AF8040FF2
:102620006146CDF820C015F03FFFDDF820C049F825
:10263000040F3868614615F037FF099A47F8040B14
:102640000132032AD6D105EB0617D7F8E0004FF088
:102650007E5115F029FF05EB8606C7F8E0004FF024
:102660007E51D6F8C40015F01FFFC6F8C400D5F897
:10267000D0004FF07E5115F017FF0BF1010BBBF1AD
:10268000060FC5F8D00008F10C0892D15B4814A9D8
:10269000A0F110020CF019FA149817F0FBFB0E9041
:1026A000159817F0F7FB0F90169817F0F3FB00261C
:1026B0001090534B4FF08B41D3F818710EAB53F879
:1026C000260015F0F9FF17F0C5F927F816000136B6
:1026D000032EEED10CF08AFD4A4A1388013B138089
:1026E000D5F814612368B6F90020D5F818519A1A64
:1026F000B5F900304FF480505A4392FBF0F222605B
:10270000B6F902206368B5F902109A1A4A4392FB9F
:10271000F0F26260B6F90420A3689B1AB5F90420B0
:10272000534393FBF0F33348A360374B01461A78C9
:1027300009F050FA324B012283F81C210DF0B0F859
:102740002F4C0490D4F82031C4F82001059304F5EF
:10275000927063689847002800F006812B4BB4F90B
:10276000242194F82A511A60B4F926211E465A6091
:10277000B4F928219A606DB9254B1B88002B00F015
:10278000CC80D4F88031234E93F8009006F10C05EC
:10279000002786E094F82B31ABB91F4B1B6893B12F
:1027A000EDB2284604F5967113F027FA284604F591
:1027B000A47113F022FA284604F5B27113F01DFA41
:1027C000012384F82B3194F82B31002BD4D0002531
:1027D00056F8250015F01CFF104B1C2101FB05319C
:1027E0000BF04CFF17F036F946F825000135032DA4
:1027F000EED1C1E7480E0020A4060020B406002058
:10280000E0050020F80D002068330020DC0C0020DB
:102810008A1F002064070020E02E00200C07002003
:1028200054060020D5F800C008936146CDF818C0C2
:10283000079015F037FE089B8346184615F0E8FE12
:102840000146584615F0ECFFDDF818C00146604619
:1028500015F02AFE0346079A19466860104606934B
:1028600015F020FE0146584615F026FFA96815F020
:102870001BFE069BE8602B60A860984ADFF864B2F4
:102880000023BAF1010F48F8023048F80B30DFF8A6
:1028900050A223D00137032F06F1040605F11405D9
:1028A00047D08F4B4FEA8708B3F800A0BAF57A7F7C
:1028B00002BF002333602B61884B53F82700336835
:1028C0000344336015F0A4FE2B690133012B2B6107
:1028D000A8D1002368602860AB60CEE72869012892
:1028E00007DD013815F094FE0146E86815F098FF01
:1028F00000E0002017F0CEFAB9F1000F0FD00690DB
:10290000484615F085FE069B0146184616F090F8DD
:1029100028B14FF47A73AAF80030002313E033682B
:102920004FF47A7203F5FA7393FBF2F34BF8083025
:10293000B0E7BAF80000012801D10DF009F8BAF8A3
:102940000030013BE7E76548664950F8232051F81D
:102950002310521A40F823200133032BF3D1624B8A
:1029600001461A7809F036F9604B1D68A80740F156
:10297000678594F81C31002B00F062855C4B0024C5
:10298000D3F8D861554B53F8240015F041FE314679
:1029900015F092FE574B43F824000134032CF1D17B
:1029A000554B00241F89384615F032FE0146534826
:1029B00015F036FF0646DFF86091DFF8348159F8EC
:1029C000240015F025FE314615F076FE08F5F47367
:1029D00043F8240008F5FA7343F824000134032C6B
:1029E000E9D1474B1E7806F0100303F0FF041BB338
:1029F000A90621D5B2071FD5424B5A79042A1BD903
:102A0000B3F9200015F004FED8F8E411824615F061
:102A100053FE0146D8F8F80115F044FDD8F8E0114E
:102A2000C8F8F801504615F047FE0146D8F8FC01F9
:102A300015F03AFDC8F8FC01D9F80420D9F80030A7
:102A4000524303FB0322D9F80830642103FB03231C
:102A500001FB03F207FB07F392FBF3F3CB1A83EAC4
:102A6000E372A2EBE372192AD4BFC2F11903002367
:102A700008932B0708D5244B1A682AB15A681AB153
:102A80009B68002B40F0FD80002C00F00E8115F0BB
:102A9000200400F00A8106F0020606F0FF04002E72
:102AA00000F00381174B5A79042A40F2FD80B3F9F4
:102AB0002020B2F5967FC0F2F780144A12786AB3EC
:102AC000B3F9220015F0A4FD114915F0A9FE114932
:102AD00015F0F2FD012405460026E8E0DC0C00209C
:102AE0008A1F0020AC0700206933002064300020DA
:102AF000E0050020BC070020683000208F2A7544C4
:102B0000881F00206C0E0020C8320020891F002082
:102B10000000204135FA8E3C480E00205A4A5C8C59
:102B20001088558803B2B3F5E16FC8BFA0F56160A6
:102B30002BB2C8BF80B2B3F5E16FC8BFA5F5616520
:102B400023B2C8BFADB2B3F5E16FC8BFA4F56164ED
:102B500000B2C8BFA4B215F05BFD4C4915F060FE91
:102B60004B4915F0A9FD4FF07C5115F0A5FD064627
:102B70000CF032FA814630460CF0BAF9834628B29E
:102B800015F046FD414915F04BFE414915F094FD05
:102B90004FF07C5115F090FD05460CF01DFA824671
:102BA00028460CF0A5F9804620B2404215F030FDD1
:102BB000364915F035FE364915F07EFD4FF07C5153
:102BC00015F07AFD05460CF007FA044628460CF08D
:102BD0008FF951460546484615F06EFD41460746B9
:102BE000584615F069FD21460646384615F064FD45
:102BF00029460690304615F05FFD069B01461846B3
:102C000015F052FC234B51461860584615F054FD00
:102C100041468246484615F04FFD214680465046C3
:102C200015F04AFD29468146404615F045FD01460E
:102C3000484615F037FC184B21461860404615F001
:102C40003BFD29468046504615F036FD014640467C
:102C500015F02AFC114B29461860384615F02CFD5A
:102C600021460546304615F027FD0146284615F059
:102C700019FC0B4B186010F06FFC0A4B01221A7004
:102C800012E00024012611E0061E00200000204171
:102C900035FA8E3C580000208C1F0020901F002029
:102CA000941F0020891F0020002426460025049B35
:102CB000059ADFF844A2981A15F018F986A3D3E90B
:102CC000002315F089F915F099FBDAF8DC3107904B
:102CD0000493DAF8E03104980593DAF8E431014618
:102CE0000693DAF8F4310A93DAF8F8310B93DAF84C
:102CF000FC310C937A4BD3F800805F68D3F80890CE
:102D000015F0DAFC83460598014615F0D5FC01461E
:102D1000584615F0C9FB83460698014615F0CCFCD1
:102D20000146584615F0C0FB099016B9002C00F07A
:102D30004B81DAF800B2DBF808A010F0F7FB01468F
:102D4000504615F0B9FC8246002E00F086804046C1
:102D500015F05EFC0646384615F05AFC0746484614
:102D600015F056FC31468046304615F0A5FC394634
:102D70008146384615F0A0FC0146484615F094FB04
:102D800041468146404615F097FC0146484615F0FD
:102D90008BFB5449814615F04BFE00285DD0484618
:102DA00017F078F801464FF07E5015F039FD0446D3
:102DB0003046214615F080FC21460546384615F080
:102DC0007BFC21460646404615F076FC464C0746FD
:102DD0002168284615F070FC61688046304615F081
:102DE0006BFC0146404615F05FFBA1688046384603
:102DF00015F062FC0146404615F056FBE16880463E
:102E0000284615F059FC21690546304615F054FC5A
:102E10000146284615F048FB61690546384615F01D
:102E20004BFC0146284615F03FFB4146054640460F
:102E300015F042FC29460646284615F03DFC0146A1
:102E4000304615F031FB17F025F80146284615F0FD
:102E500033FC00F1004528462CE0002C4ED02846DB
:102E6000224915F0E5FD28B12846214915F01AFB45
:102E70000546F4E728461F4915F0BCFD28B1284651
:102E80001B4915F011FB0546F4E728460CF030F815
:102E9000154C00F10040216815F00EFC064628464E
:102EA0000CF09AF8E16815F007FC0146304615F081
:102EB000F9FA0546A16915F0FFFBE16907462846C6
:102EC00015F0FAFB216A0646284615F0F5FB044684
:102ED00017E000BFAFF300808DEDB5A0F7C6B03EA0
:102EE000C83200200AD7233C981F0020DB0F49403E
:102EF000DB0FC940DB0F49C0E00500200024264657
:102F00002746DBF80C800021404615F091FD002893
:102F10003FD00998AA4915F06DFD002839D0A94D78
:102F20004046394615F0C8FB079915F0C5FBD5F8A2
:102F3000041215F0B9FA31468346C5F8040240463A
:102F400015F0BAFB079915F0B7FBD5F8081215F084
:102F5000ABFA21468146C5F80802404615F0ACFBA5
:102F6000079915F0A9FBD5F80C1215F09DFA5946F2
:102F70008046C5F80C02049815F096FA494604906C
:102F8000059815F091FA41460590069815F08CFACF
:102F900006903946504615F08FFB0146049815F00F
:102FA00083FA31460490504615F086FB0146059899
:102FB00015F07AFA21460590504615F07DFB014642
:102FC000069815F071FA0690089B002B00F0C68059
:102FD0007C4CD4F8002215680D9210F0A7FA014637
:102FE000284615F069FB784905460A9815F064FBF8
:102FF000754982460B9815F05FFB734980460C9823
:1030000015F05AFB8346089815F002FB6F4915F03E
:1030100007FC6F4B0646D3F820C040466146D3F804
:103020001C90CDF828C0089315F046FB494607468A
:10303000584615F041FB0146384615F033FA314643
:1030400015F03AFB089B07469B69584619460893BA
:1030500015F032FBDDF828C083466146504615F076
:103060002BFB0146584615F01DFA314615F024FB9E
:1030700049468346504615F01FFB089B814619467A
:10308000404615F019FB0146484615F00BFA31464B
:1030900015F012FB0D9A0646D2F804800021404636
:1030A00015F0C6FC00283ED00998454915F0A2FC51
:1030B000002838D04046394615F0FEFA079915F039
:1030C000FBFAD4F8101215F0EFF959468246C4F80D
:1030D0001002404615F0F0FA079915F0EDFAD4F811
:1030E000141215F0E1F931468146C4F81402404645
:1030F00015F0E2FA079915F0DFFAD4F8181215F076
:10310000D3F951468046C4F81802049815F0CCF95A
:1031100049460490059815F0C7F941460590069870
:1031200015F0C2F906903946284615F0C5FA014651
:10313000049815F0B9F959460490284615F0BCFAE0
:103140000146059815F0B0F931460590284615F06E
:10315000B3FA0146069815F0A7F9069007984FF0C4
:103160007C5115F0A9FA04460498214615F0A4FAFA
:1031700021460646059815F09FFA21468046069896
:1031800015F09AFA134B8246D3F80090124B314651
:103190001F68124B09F100401D6815F08DFA414679
:1031A0000490384615F088FA049B0146184615F03D
:1031B00079F951460490284615F07EFA049B0FE0F9
:1031C000E68AF93DE005002000A8853A0000C841E4
:1031D000981F00208C1F0020901F0020941F0020AB
:1031E0000146184615F05EF9984C0146D4F800B037
:1031F000584615F059F9314620600690584615F0AA
:103200005BFA51460490384615F056FA049B014685
:10321000184615F049F941460490284615F04CFA35
:10322000049B0146184615F03DF90146484615F045
:103230003BF9874B414618600590584615F03CFA1B
:1032400051460490484615F037FA049B014618464B
:1032500015F028F931460490284615F02DFA049B04
:103260000146184615F020F90146384615F01CF9BC
:10327000784A514610600490584615F01DFA4146B0
:103280008246484615F018FA0146504615F00CF9EA
:1032900031468046384615F00FFA0146404615F093
:1032A00001F90146284615F0FFF8DDF818C06A4B11
:1032B000614618600546604615F0FEF9059A064617
:1032C0001146104615F0F8F90146304615F0ECF8B5
:1032D000049B06461946184615F0EEF9014630469D
:1032E00015F0E2F829460646284615F0E5F90146AC
:1032F000304615F0D9F816F0CDFD01464FF07E505E
:1033000015F08EFA05462068294615F0D5F9504B80
:1033100020602946186815F0CFF94D4B29461860F2
:103320004C4B4E4E186815F0C7F94A4B29461860A9
:10333000494B4B4D186815F0BFF9474B186010F01A
:103340000BF9316AF0690BF052FD464915F0B4F9FA
:10335000454915F065FA15F075FBB769288007F146
:10336000004727F0004421464FF07E5015F09AF8B0
:1033700016F090FD3D498046204615F09DF93C49E8
:1033800015F092F80146204615F096F9394915F0E6
:1033900089F80146204615F08FF9374915F084F871
:1033A0000146404615F088F900210446384615F0DC
:1033B00021FB28B12146314815F074F8014600E0A0
:1033C00021462F4815F06EF8264915F075F9264963
:1033D00015F026FA15F036FB31686880F0680BF0BE
:1033E00006FD204900F1004015F066F91E4915F070
:1033F00017FA244B1A4CD3F81C1215F055F815F097
:1034000021FB80B20704204B48BF00F56160A0801B
:103410001968306A15F00CFB1C4B1A7868B142F041
:1034200008021A701A4B1B4A93F96241B3F8A001C3
:103430001768A4B20021049355E022F00802F0E7D7
:10344000154B00221A605A609A60EBE75800002082
:103450008C1F0020901F0020941F0020981F002028
:10346000061E00200000204135FA8E3C306E99BCCB
:103470002716983D8434593EA40DC93FDB0F4940BF
:10348000DB0FC93FE005002048330020881F0020E3
:1034900024280020880F0020480E002097F8C6201E
:1034A0002AB19245CCBFC2EB0A0A4FF0000A9AFB40
:1034B000F8FE874A6FF0630932F81EC009FB0EA3BD
:1034C0000EF1010E32F91EE00FFA8CF2C2EB0E0281
:1034D0005A4392FBF8F37F4A6344864253533ADBE4
:1034E000013103293CD07C4B4D0033F911604FF082
:1034F0006408331A83EAE37AAAEBE37ABAF5FA7F2F
:10350000A8BF4FF4FA7A0229C8D197F8C7202AB188
:103510009245CCBFC2EB0A0A4FF0000A9AFBF8F8BA
:103520006E4A6FF0630C02EB480E0CFB08A302EB33
:103530004808BEF920E2B8F922228642CEEB020208
:1035400002FB03F292FBFCF3CEEB030303FB04F359
:10355000604A938004DA5F4AAB5A5B42AB52BFE7E2
:103560005D4BB3F90610049BB3F8A231994205DB19
:10357000B1F5FA6FA8BF4FF4FA6100E01946C91A15
:103580004FF47A725143C3F5FA63B1FBF3F164234C
:1035900091FBF3F0524F6FF0630237F8105002FBCB
:1035A0000016013037F910102AB28A1A724392FBC2
:1035B000F3F3484C2B44E3804A4B1B885D063FD510
:1035C000494B0A20B3F9043093FBF0F0474B1B88BA
:1035D000C01A00B215F01CF8454915F06DF8054603
:1035E0000BF0FAFC064628460BF082FC0546B4F9BF
:1035F000020015F00DF80746B4F9000015F008F8C0
:103600003146804615F058F829468146384615F06F
:1036100053F80146484614F045FF15F013FA3146B9
:103620002080384615F048F829460646404615F0F1
:1036300043F80146304614F037FF15F003FA608076
:103640002C4B1A78500703D52B4B08225A6185E082
:103650002A492B4C0D68E9075CBF42F001021A7041
:10366000284A107807075EBF1A7822F001021A7004
:10367000254A126812F0040F02D02449098859B96A
:103680002349098809B1960706D4224A12881AB933
:10369000214A1288632A05D9022222701A7822F060
:1036A00001021A701D49D1F818235278002A46D019
:1036B0001B4A127822B91B4E3668367A022E34D154
:1036C0008A798AB380F0010202F001022DE000BF86
:1036D000EC1A0020121D002080300020E0050020A0
:1036E000D41A0020D8300020061E0020300E002002
:1036F00035FA8E3C6F330020000C0140DC30002096
:10370000D0300020881F0020643000206433002067
:10371000F80D00208A1F002060300020C424002003
:10372000B82E0020D420002001221978480702D4A6
:10373000B348284000B912B121F0010119701B787B
:10374000DA074CBF0023022323700CF0A9F8AD4B1D
:103750001B68C01A002801DB13F004F9AA4A936819
:10376000059213B102F22E209847049BA74E93F8BE
:103770009F31DFF8A4A2002B66D0059B9AF8004089
:10378000B3F8307293F832329F4D3BB9012005F502
:103790000D7112F032FA012385F832329C4B9A4DAA
:1037A000188814F031FF05F50D710AF067FF15F068
:1037B0006FF980B2B7FBF0F0059B411C89B2A3F80A
:1037C00050120CB3B5F9529200238F4C8F4A04F576
:1037D000157C32F813E03CF913200FFA81F809FB4D
:1037E00002F292FBF8F204F5177737F8135027F836
:1037F00013E0C5EB0E052A442CF813200133042BEB
:10380000E3D1A4F8520204E0B5F85232013BA5F826
:1038100052327D4A0023B2F95202002812DDB2F979
:1038200050427C49A1F1080232F9132031F81310FB
:10383000424392FBF4F28A1A26F813200133042B38
:10384000EFD101E0A2F85232734B1D78002D00F049
:10385000A881724B724F1B78DFF8E08113F0040FE0
:10386000704C08D1A37953B304F1FC00D4F81411BF
:103870000DF056F823E0D8F800305B0110D56A4B04
:103880001B8823F47E6323F00F03DB04DB0C3BB9BE
:10389000A3792BB104F1FC00D4F814110DF040F819
:1038A0003B78D8070BD5614807F0D0F9C4F88801F8
:1038B0005E4807F09DF9C4F88C0107F07FF9A37901
:1038C0006BB13B78D9070AD5DFF83C9199F864329F
:1038D0002BB90E200CF03CF8012389F86432D8F89B
:1038E0000030DFF840B1C3F3C062C3F3407322730A
:1038F00063730CF035FE07F099FB22784C4B1C21CA
:1039000001FB0233B3F80A8018F4806F5DD0464B98
:103910001B885A0559D43B783C4903F0100303F047
:10392000FF0913B3DBF81C33B1F9020093F80390DD
:1039300049460BF04DFA80B2002844D0DBF818332A
:1039400000B2B3F848304042584314F061FE834659
:10395000484614F05DFE0146364814F0A3FD0146CA
:10396000584614F05DFF012121E0334BDBF81C03C6
:103970001A88CB88C0789B1A1BB283EAE371A1EB4B
:10398000E371814217DD11B2DBF81823002BB2F886
:10399000480000FB03F0DBF82C33CBBF5A881A88B1
:1039A000521A8A1A90FBF2F014F032FE02210CF047
:1039B00083FE284607E09BF80A0020B10020022180
:1039C0000CF07AFE4846A07201E00023A37218F4BE
:1039D000805F00F0A880144B1B885B0500F1A3807A
:1039E0003B7813F0100FD4F81C3329D0B6F900003F
:1039F00099780BF0EDF900B2003018BF01208FE08C
:103A000000060001D4300020E0050020121D002037
:103A1000663300203C080020380E00206F33002061
:103A2000881F0020C4240020D83000202C2600202D
:103A300098B001080000FA4300000020DC300020AC
:103A40009E78A34B3146B3F902000BF0C1F9A04BAD
:103A50001FFA80F93146B3F900000BF0B9F987B2CB
:103A6000B9F1000F01D1002F4CD0D4F81833994E82
:103A70009A78012A53D1B3F846400FFA89F060438F
:103A80004FF4FA7B90FBFBF014F0C2FD814638B294
:103A9000604390FBFBF014F0BBFDD6F81CB104466C
:103AA0005946484614F008FED6F818710690394673
:103AB000204614F001FE069B0146184614F0F2FC65
:103AC000316914F0ADFE0146D6F8FC0014F0ECFCB0
:103AD0003946C6F82C01484614F0EEFD5946074613
:103AE000204614F0E9FD0146384614F0DDFC71690A
:103AF00014F096FE0146D6F8000114F0D5FCC6F885
:103B000030010CE0734B587A50B114A80CF01CFA39
:103B100014A8394601220CF035FE384600E028464C
:103B20006C4B587201E00023637218F4005F694C1B
:103B300022D0694B1B8803F480639BB2E3B9674AC8
:103B4000127802F0100202F0FF0182B9604BB3F963
:103B5000042082EAE273A3EBE273D4F81C23927888
:103B6000934206DDD4F81431C4F8443102E01D4616
:103B700000E00D46E57201E00023E3722278584B25
:103B80001C2101FB02339D8941F23800EB431840B0
:103B90000BF034FA28460BF041FA2278514BA3F887
:103BA000662200258AF800500CF0DEFE0BF078FE4D
:103BB0004C4C8246A4F86852464D687910B10123F6
:103BC000A4F86832EB7906932BB1B4F8683243F06D
:103BD0000203A4F86832AF792FB1B4F8683243F029
:103BE0000403A4F868323D4B1A7896070CD5D5F833
:103BF00018333D491B7A4979994222BFB4F868329B
:103C000043F00803A4F8683294F8703235492BB1B8
:103C1000B1F8683243F01003A1F86832334B1B78D7
:103C200003F0040303F0FF010BB9A973C1E3DFF84C
:103C3000B09029781C2606FB01914E8902F01002F3
:103C4000244B02F0FF0106F0080E002A00F0478224
:103C5000BEF1000F40F09483F00727D5D4F8581533
:103C60002348C1EB0A0181421E4AC4F858A504D971
:103C7000C2F85CA50CF054F918E0AFB19B787BB1A9
:103C8000D2F85C051B4BC0EB0A009842C2F85CA559
:103C900002D80CF083F801E00CF042F90023AB707D
:103CA000012384F8603501E082F86075B10740F1C6
:103CB0007281D4F864250E49C2EB0A028A42094B8C
:103CC000C4F864A518D9C3F868A50CF04DF862E1F2
:103CD000121D0020C4240020D8300020881F00209E
:103CE00098B00108E00500206C0E00206F33002022
:103CF000400D03003F0D0300AA79DFF8C0B2002A8F
:103D000000F047819BF80120002A00F03E81D3F8A3
:103D10006825C3F868A5A64BC2EB0A029A42069230
:103D200000F22E81DBF8FC10DBF82C0114F0BAFB5A
:103D3000DBF800118046DBF8300114F0B3FB41469C
:103D40000746404614F0B8FC39468246384614F01F
:103D5000B3FC0146504614F0A7FB16F09BF88246D0
:103D6000DBF80801DBF80C310146079314F0A4FCE2
:103D7000079B83461946184614F09EFC0146584698
:103D800014F092FB16F086F88A49834614F050FE30
:103D900008B1584600E08748874914F08DFC2B781D
:103DA0001C2202FB0399B9F80A3007909A0583494F
:103DB00010D591F8F9327BB191F90C235BB2013B3C
:103DC0009A4209D0182303FB021292F8A631A52BC0
:103DD00015D101E0980712D5DFF8E091D9F8183332
:103DE000B3F8680014F014FC7549834614F018FD0C
:103DF0000146504614F008FE002841F04380514629
:103E0000079814F00DFD83464046594614F054FCC3
:103E1000D5F8FC1014F048FB059B5946C3F86C0517
:103E20008246384614F048FCD5F8001114F03CFBEB
:103E3000059BDFF88891C3F870056B7ADFF8A481E1
:103E4000074693B3D9F81C335E4A9978B2F900005B
:103E50000AF0BEFF80B240B3D9F8183300B2B3F80D
:103E60004630584314F0D4FB574914F0D9FC52495A
:103E700014F022FCD9F81811834600F1004014F028
:103E80001BFC0146504614F00FFBD9F81C11C8F872
:103E90006C05584614F010FC0146384614F004FB3B
:103EA0000123C8F8700589F80930484806F0A0FEDB
:103EB00044F25063414FD7F814A1CAEB0009994569
:103EC00004DDA9F50C49A9F1A00906E0404B99458C
:103ED000BCBF09F50C4909F1A00944F2682244F27B
:103EE0005C4389EAE971A1EBE9719142C8BF994647
:103EF000D5F818330AEB090093F8628014F088FBB8
:103F00008346504614F084FB8246069814F07CFBEE
:103F1000304914F0D1FB05906FF0630000FB08F00E
:103F200014F076FB0090642000FB08F014F070FBA6
:103F30000123059A019002935146274B584607F0FA
:103F40000BF8264914F06CFC14F07CFD48F6A042F6
:103F5000D5F81431A5F80E034B44934203DDA3F5C5
:103F60000C43A03B04E0002BBCBF03F50C43A03383
:103F70006422C7F8443193FBF2F3194A138001E03D
:103F80000BF0F2FE0D4B00225A70012384F87835B5
:103F900001E083F87825B10700F0F28194F86025FC
:103FA000DFF8189002B3B9F81003B9F814731DE0E4
:103FB0003F0D03000000C842CDCCCC3EC4240020FD
:103FC000BE30893E121D00200000FA434C0B002039
:103FD000B0B9FFFFBD378635942500200000204191
:103FE0002E0E0020E00500201746104694F8788534
:103FF000B34DB8F1000F26D0D9F81833B9F80E63D5
:1040000093F866B0002A4FD000B214F001FB33B22F
:10401000824683EAE370A0EBE37014F0F9FA0590AE
:10402000584614F0F5FAA74914F0FAFB059B01462F
:10403000184614F041FB0146504614F035FA14F0CE
:1040400001FD80B203E0002A00F09A814646D9F8CB
:10405000181302B291F864006FF063035843824270
:1040600091F8631005DB642303FB01F09042A8BFC5
:10407000104614F0CDFA4FF07C5114F01DFB14F0F3
:10408000E1FC8F4BD9F82C234042588013883FB273
:104090009F42528803DB97423B46A8BF1346EB8002
:1040A000B8F1000F00F06C81D9F8183336B293F8EC
:1040B00062206FF0630303FB02F0864205DB64239A
:1040C00003FB02F0B042A8BF304614F0A1FA4FF053
:1040D0007C5114F0F1FA14F0B5FC288050E1784FCF
:1040E000BEF1000F52D0D4F87C25DFF8E8E1C4F827
:1040F0007CA539807980B98000283DD07249C2EB17
:104100000A028A4204D9CEF880A50CF06BF837E198
:104110009A78F2B1DEF880656C4AC6EB0A069642E0
:10412000CEF880A511D8D3F81833B3F8500014F0A6
:104130006FFA012100F100400CF0BEFA30460CF09D
:10414000C3F830460CF074F801E00CF04BF8002393
:10415000AB70D5F81833D5F82C13B3F95820B5F94E
:10416000143313440A884988934203DB8B42A8BF67
:104170000B461A46FA8003E1554A12680AB1538881
:1041800002E0D3F82C331B88FB80F9E0F2077CD5E2
:10419000D4F884254C48C2EB0A0282424D49C4F847
:1041A00084A504D9C1F888A50CF01CF86DE09A78B4
:1041B000002A55D0D1F88825C1F888A5C2EB0A0895
:1041C000424A904548D85A7B002A2FD0D3F848B1AC
:1041D00000215846059314F021FC38B3059B0021BB
:1041E000D3F82091484614F019FCD8B1069BCBB106
:1041F000404614F009FA384914F05EFA374B02468B
:104200000093374B49460193002302935846354BA0
:1042100006F0A2FE0146D5F8040114F045F9C5F8F0
:10422000340103E0304800210CF046FAD5F834019F
:1042300015F010FC47F6FF739842A8BF18462B4BA9
:104240009842B8BF1846A4F8900540460CF03CF8D8
:1042500040460BF0EDFF01E00BF0C4FF0023AB7014
:10426000D5F81833D5F82C13B3F95820B5F9143311
:104270001A440B8849889A4203DB8A421346A8BF36
:104280000B469BB2FB80A4F89235B7076ED5D5F8E4
:104290001823D4F894359278C3EB0A03C4F894A594
:1042A0001AB9134A92F8098001E04FF00008064A53
:1042B00093421FD9C4F898A50BF072FF56E000BFD7
:1042C000121D00200000C842400D03003F0D0300F6
:1042D000D4200020E0050020BD3786350000A0C0B6
:1042E00000000C424C2500200000A0C15A80FFFFB6
:1042F000C4240020AA799E4BC2B15B78DBB1D4F80C
:104300009875C4F898A5B8F1000F0CD1994BC7EB7C
:104310000A079F4205D80BF037FE384611F050F9D6
:1043200001E00BF03DFF00236B7004E0A3F81023C5
:10433000A3F80E231AE0B8F1000F17D1B5F9100356
:1043400014F066F94FF07C5114F0B6F914F07AFBD2
:10435000894B5880B5F90E0314F05AF94FF07C518F
:1043600014F0AAF914F06EFB834B1880760741BF56
:10437000D5F84431642293FBF2F3804A48BF13809E
:104380007B4B5A7A2AB1B4F8682242F02002A4F892
:1043900068229A7A2AB1B4F8682242F04002A4F85E
:1043A0006822DB7A2BB1B4F8683243F08003A4F8BA
:1043B0006832734B704F1B6813F0080F21D06C49A3
:1043C000704B0A781C2000FB02335B895D0604D524
:1043D000CB7AB3B910F0BAF913E0B7F9042082EA46
:1043E000E273A3EBE2730E2B03DC674B1B885807C9
:1043F000F0D4664B0A22B3F9043093FBF2F35F4A20
:104400001380634B1B78CBB1624BB3F90620049B3E
:10441000B3F8A2319A4211DC5F4B5B79012B01D0DA
:10442000192B03D1049A92F8F2213AB90E2B05D038
:1044300003F0EF03082B1CBF0023BB80574BDFF8B2
:1044400084911B7813F0100F62D1494B1C211A780C
:104450004C4B01FB02335B8919060BD4D9F80030B1
:1044600093F8CA60002E53D0474B1B889A074FD051
:10447000B6B200E06426049B4949B3F84451494B65
:10448000B7F80680D3F820A0504614F0B3FA0028FD
:1044900040F0418550464FF07E5114F0C9FA08B102
:1044A0004FF07E5A284614F0B3F883460FFA88F08E
:1044B000401B14F0ADF8514680464FF07E5014F08A
:1044C000AFF94FF07E5113F0EDFF8246304614F005
:1044D0009FF8354914F0A4F90146504614F0ECF861
:1044E0004FF07E5113F0E0FF0146404614F0E4F82F
:1044F0000146584613F0D8FF14F0A4FA049BA842D2
:10450000B3F8463103DB9842A8BF18460546FD8044
:10451000D9F80060D4F81090244C254B2746254646
:104520001B684FF0000B03F10308224B53F82B00DC
:1045300014F06EF8494614F0BFF80F4A386118F8C5
:10454000013F32F91B001433584314F061F81A4943
:1045500014F066F91949824614F04CFAA0BB504693
:10456000174914F065FA88B3DFF854A02EE000BFB5
:10457000C42400203F0D0300121D00202E0E002039
:104580006430002098B00108D8300020061E0020BA
:104590005C0000208030002024280020881F00209C
:1045A0009A99193F981F00200000C842C01F0020A0
:1045B000D0310020DC0C0020000048420000E1C4A3
:1045C0000000E144880F0020DFF88CA10BF1010B03
:1045D000BBF1030FC7F814A007F15C07A5D1534F37
:1045E0003B889B075AD0524A049B96F81B80108840
:1045F000B3F8A0315288B8F1000F41D000B2C01A10
:1046000012B2D21A80EAE07182EAE273A1EBE071A1
:10461000A3EBE273B1F5FA7FA8BF4FF4FA71B3F5DB
:10462000FA7FA8BF4FF4FA739942B8BF1946C1F593
:10463000FA7013F0EDFF3F4914F0F2F84FF07E519D
:1046400013F030FF8146404613F0E2FF01463A483E
:1046500014F0E6F80146484614F02EF84FF07E516B
:1046600013F022FF0021804614F0C4F940B94046FF
:104670004FF07E5114F0DCF920B14FF07E5801E08C
:104680004FF0000830462D49002243460EF0FEFF51
:1046900030462B49012243460EF0F8FF3B889F0429
:1046A00016D5D5F8CC700021384614F0A3F910B116
:1046B00007F1004000E038464FF0804114F0B8F9AF
:1046C00018B9204B1B78580707D40023C5F8EC30E5
:1046D00006F113030693002521E13846D5F8C810EA
:1046E00013F0E0FE184B196813F0E6FFD5F8EC1054
:1046F00013F0DAFE1549074614F07CF930B9384654
:10470000134914F095F910B1114F00E00F4FC5F89F
:10471000EC70307A13F07CFF0E4914F081F80146FA
:10472000384613F0C9FFC5F8CC00D1E7D8300020D7
:10473000803000200000FA430000C842C01F002063
:104740001C2000206F330020BC1F0020000034C25A
:10475000000034420000A0420000E1C49D4B1B78E1
:10476000032B00F2E98096F8240048B113F04CFFC7
:10477000994B0246994938461B6809F051FF074694
:10478000069A12F8013F0692002B00F0EA80226997
:1047900004F1180804F1280353F8041D4345596037
:1047A000FAD18D4BA068D3F8009000F1004AA261C5
:1047B0004FF08241484613F07FFF0146504614F007
:1047C0002FF803464FF0000B4FF0000A844A58F8C8
:1047D0002A0052F82A10049313F06EFF014658463F
:1047E00013F062FE0AF1010ABAF1050F8346049B39
:1047F000ECD1194613F060FF8046B07F50B113F042
:1048000003FF04F1500A0246514640464B4609F068
:1048100007FF8046734B38461B78590648BFDFF8C0
:10482000E8910493E36A58BF4FF07E5941460593DF
:1048300013F03AFE494613F03FFF059913F034FE9A
:104840006949824614F0D6F8002840F08D80504621
:10485000664914F0EDF8002840F08980D1465E4B9F
:104860000798D3F800B0616813F026FF594613F09B
:1048700023FF51460790484613F014FEE16813F0F9
:104880001BFF594613F018FF079B0146184613F00B
:104890000BFE0146059813F007FE049B82469A061C
:1048A000E06267D5D4F830B050460BF100431946AA
:1048B000049314F09FF8049B00285FD1504659469A
:1048C00014F0B6F800B9D346C4F82CB0484614F03A
:1048D000B9F8474BDFF82C9123F81500384614F04F
:1048E000B1F809F29C5A4AF82500E06A14F0AAF8D7
:1048F00009F5B56747F82500404614F0A3F809F21A
:10490000B45747F82500606914F09CF809F5B867BA
:1049100047F825000135032D04F15C0439D02169E5
:10492000606913F0BFFD2168079013F0C5FE022DEA
:1049300007467FF425AF11E7B6F82280B8F1000FE3
:104940003FF411AF14F07EF8C8F10003984203DB86
:1049500040450346A8BF4346184613F059FE074694
:1049600001E74FF0000855E7DFF87C9077E7DFF8C4
:104970007C9074E71F4B1B7813B193E79B46A3E72A
:10498000002114F037F808B10AF1004AC4F830A049
:104990009CE7194D0EF054F92B6893F90830ABBB26
:1049A000164E33780E2B78D00FD8012B61D0082B00
:1049B00040F08080124C0020E18808F009F821893D
:1049C000012008F005F8022475E0182B65D0192B9A
:1049D0004FD06FE0041D0020BC1F0020BC20002031
:1049E000C4AA0108881F002000007AC400007A448D
:1049F0000C1D00206E330020081D0020041E002026
:104A00000C1E0020E0050020C3F5A83E99F8CC4517
:104A100009F5BA6964B92B6809EB040198791C346B
:104A200011F0EBF8E02CF6D1B24B012283F8CC2543
:104A3000B14E002436F9020F13F0EAFD09EB4401F0
:104A400009F01CFE13F0FEFFAC4B80B21A683080F8
:104A50002244B2F9003000B29842B2F9022003DBDE
:104A600013B28342A8BF03460E34702C3380E1D1C9
:104A700096E72B681B791BB1A14B0020598908E0F0
:104A8000A04B1B7803F0040303F0FF00002BF3D1CD
:104A9000014607F09DFF01240DE00224984BA01E63
:104AA00033F81410C0B2013407F092FF082CF5D18E
:104AB000062400E00024944D2B689B0602D4337832
:104AC000052B0BD18E4E2046318807F081FF601CEC
:104AD000C0B2718807F07CFF0234E4B22B68DF02B9
:104AE00006D4844C94F8B03673B10EF035FC0BE06C
:104AF000864F0026A019C0B237F8021F07F068FFE2
:104B00000D2EEED00136F5E7814B1878002840F0E5
:104B100006822B681E0340F1028294F8B136023BF4
:104B2000052B1FD87B4B93F87C3633B1012B09D171
:104B300011F0BCFAC0F17F0004E06E4BD3F8B4066C
:104B40000BF093F8D4F8B83694F8BC261344B3F5B8
:104B5000807FA8BF4FF480738342D4BFC4F8B836B7
:104B6000C4F8B80694F8B136023B082B00F28281F3
:104B7000DFE813F00900420064007A009300A5000A
:104B8000460164017101644B1A68D4F8C436643379
:104B90009A4240F26F81402005F09EFA002840F0D2
:104BA000698140275D4BD4F8C026524E1A44107DCF
:104BB0001D4678B108F010FFD6F8B836013F03F172
:104BC000FF33C6F8B836D6F8C03603F10103C6F88D
:104BD000C036E7D1D4F8C036464A2B441B7D002BA3
:104BE00040F04881C2F8C0364FF0FF33C2F8C436F7
:104BF000032382F8B1363DE140230093484B49201E
:104C000003F10C02019302925021A3F10A02023334
:104C100009F030FB002840F02D812B684FF0FF3267
:104C200013F0800305D0C4F8C006C4F8C4260423DA
:104C3000E3E0C4F8C036C4F8C4262CE0394A0223A5
:104C40000021009301910291482002F1080309F02C
:104C500011FB002840F00E814FF0FF33C4F8C4363A
:104C6000C4F8C0060523C8E00B2300932E4B472051
:104C700003F10C02019302920021A3F10802043314
:104C800009F0F8FA002840F0F5804FF0FF33C4F83F
:104C9000C006C4F8C4360623AFE0244A0523002129
:104CA000009301910291532002F1080309F0E2FA06
:104CB000002840F0DF80C4F8C00607239DE04020B4
:104CC00005F00AFA002840F0D580D4F8C0360C2B45
:104CD00000F28A80DFE803F0070B32363D494E537D
:104CE000565A68737700124814F0A8FA76E0114813
:104CF000114937E0E00500200A1E00208C0F00203B
:104D00000C1E00206F3300207C30002086300020F5
:104D10006A3300202428002028320020C4AA010879
:104D200042AB010838AE010850AE0108CCAE010814
:104D300038D2010852D2010867D2010879487A496D
:104D40007A4A49E07A4B7B4893F87A1693F87B26A7
:104D500042E0774B0C2193F85426774801FB02334D
:104D600093F8561614F06AFA38E0714B7348B3F8AA
:104D70004411F7E76E4B7248B3F84611F2E77148F9
:104D80002169EFE7704B71481989EBE7D4F8C83611
:104D9000D80404D5664B6E4893F88411E2E76D4B56
:104DA0000B22C3F8C02619E0614B6B4893F88811B9
:104DB00093F8892193F8873114F040FA0EE06748A0
:104DC000B4F8CC16CEE72B68190507D5584B6448C4
:104DD000B3F88C11B3F98A2114F030FAD4F8C03644
:104DE0000133C4F8C03645E005F0D6F9002841D0BB
:104DF0004FF48053A4F8CE36092384F8B13639E055
:104E0000584B1B685A0216D5B4F8D036514D93B999
:104E1000D5F8D4360E201493534B14A91B68159360
:104E200008F06CFE4FF48053A5F8CE36092385F8C0
:104E3000B13608F0ADFE08F043FE1BE094F8D8361A
:104E4000002BF6D0474B1B685B02F2D4414B082283
:104E500083F8B126EFE7454B1A68D4F8C436C83357
:104E60009A4203D905F07EF90123C6E705F094F9CB
:104E70000028F7D105F060F9002850D0012384F80C
:104E8000B1364CE050463A4913F0D2FD00283EF4CA
:104E9000B6AF08F1004107F1004009F0A8FF35491D
:104EA00013F002FB82460AF097F80146584613F0C9
:104EB00003FCD9F82C710146384613F0F5FA804608
:104EC00050460AF015F8D9F8FC108246404613F017
:104ED000E9FA51468046584613F0EEFBD9F8307196
:104EE0000146384613F0E0FAD9F8001113F0DAFA67
:104EF00041460746404613F0DFFB394681463846B7
:104F000013F0DAFB0146484613F0CEFA14F0C2FF64
:104F10008246FEF774BFDFF860A0FFF7C3BA19B08E
:104F2000BDE8F08F6FD2010883D201088FD201084B
:104F30002428002098D20108A9D20108B3D2010880
:104F4000C2D20108D1D2010868300020E1D20108A4
:104F5000EBD20108E0050020F8D2010811D30108C6
:104F60001CD30108DC3000205433002028320020FC
:104F700000004842DB0F493F9A99193F2DE9F04F55
:104F8000A14FB1B03C78002C00F0E9809F4B18682D
:104F9000002801F0DD850AF05BFC9D4C20680AF0DA
:104FA00067FE002801F0D48520680AF05BFE09281E
:104FB000DFF86C8201D03F284BD14FF000094C46FE
:104FC000D8F80050934E2DB1934831682A4614F01A
:104FD00081FB10B9B14604B93446904B08369E4265
:104FE000F1D3BCB1D8F800302268D65CD9F80020E3
:104FF000D05CB0420ED15A1C874938B92D2B05D848
:10500000874E32602026CE54885403E0CE54C8F830
:105010000020E7E7D8F800300BB14C450FD08148AD
:1050200011F0E8FF4C4507D854F8080B11F0E2FFE7
:10503000092011F067FEF5E70AF016FC0025D8F804
:1050400000309D42A9D2744B585D11F05BFE0135D2
:10505000F5E7D8F80030002B41F0EF84042841F048
:105060004E856D4803F0E4FC01F072BD2868DFF85E
:10507000C8A10AF0FDFD00285AD0DAF800000AF0B5
:10508000F1FDDBF80030024693F84810002940F0AB
:105090008180242840F0DE80012283F84820DBF85C
:1050A000003093F848000628E0D193F84930652B8A
:1050B00000F00C8300F2E181362B00F0348700F21F
:1050C0006681242B00F0A68600F21A81032B00F0E3
:1050D000A48240F2F680052B40F008811A2011F0DE
:1050E000C3FD0025504B585D013511F086FD0B2D99
:1050F000F8D100254D4B585D013511F07EFD082D8E
:10510000F8D100254A4B585D013511F076FD072D89
:10511000F8D1484D2B68987911F06FFD464B18680F
:1051200003685B6A03B198472B68002283F8482024
:10513000424B18680AF08CFB414B93F8393053B15D
:1051400059F804000AF083FD0EF058F909F07EFFCB
:105150003C4A3D4BDA604C34982C01F0F984DFF87E
:10516000F09054F8093004EB0902002BF3D0324DD3
:10517000304E2B60099300238DF8293014233260C0
:105180008DF82830314A2D4B08A908921960B34692
:1051900090466BE7012904D14D2814BF002202225A
:1051A0007BE7022904D13C2814BF0022032274E7C4
:1051B00003290CD140284FF0000102D983F8481090
:1051C0006DE758711971D9719871042265E7042946
:1051D00006D1997983F849004A409A7105225CE723
:1051E00005297FF45CAF587919798842987906D9F6
:1051F00050409871481C18710B441A724FE7904246
:105200000CBF0622002248E76A330020CC31002080
:10521000A43100205CCF0108540F00204CD00108BD
:10522000840F0020BDD4010883D201088FD2010869
:1052300067D2010898310020A03100209C31002065
:10524000BC0C00200400FA0500ED00E07DFC000825
:1052500000310020CC490B7803F0040303F0FF0E6B
:10526000002B7FF41CAF232ADAF800001CD10123A5
:105270003B70C64B01911860C54B00921860986056
:1052800010201873C348C3F8048083F80DE004337A
:105290000360C14811F0AEFE0AF0E6FA0199009AE7
:1052A0000B7843F002030B70BC4B1B681B789342D6
:1052B00001BFBB4ABB4B1A60BB4A04BFBB4BDA60A1
:1052C000EDE6012B00F09D81022B40F0A786042023
:1052D00011F0CAFC492011F090FC4E2011F08DFC19
:1052E000412011F08AFC562000F094BEC0F0A1814C
:1052F000222B40F09386502011F0B6FC0026B9E333
:105300002A2B00F0D38519D8262B00F08985282B6D
:1053100040F08486A64D072011F0A6FCB5F88A015E
:1053200011F0A5FCB5F88C0111F0A1FC95F88E01E7
:1053300011F063FCB5F8900100F0B4BD322B00F021
:10534000DC85342B00F0A3832C2B40F06786984D2E
:105350000C2011F089FC95F89A0111F04EFCB5F87B
:10536000A40111F084FCB5F8A00111F080FCB5F89F
:10537000A20111F07CFC95F89B0111F03EFCB5F800
:10538000A60111F074FCB5F8A80100F08BBD452B07
:1053900000F01F8624D83B2B00F048830BD8382B15
:1053A00000F04D853A2B40F03986042011F05CFC6A
:1053B000774BD86A8CE2402B00F0A685422B00F098
:1053C00051853D2B40F02A86794D022011F04CFC8E
:1053D00095F8EB0111F011FC95F8EA0100F01ABE06
:1053E000492B00F0D08223D8462B00F0B785472BFD
:1053F00040F0148611F0F8FB0646842011F034FCCE
:10540000304611F03DFC6B4B0DF14008DD6806F1B4
:105410008003AB428CBFAD1B802505F0B1FE30464A
:105420002A46414607F05EFE0025064600F0C8BD4C
:105430004D2B00F04185642B00F00D814B2B40F08B
:10544000ED855B4D082011F00FFC95F8E00111F09F
:10545000D4FB95F8E10111F0D0FBB5F8E20111F0B1
:1054600006FC95F8E40111F0C8FBB5F8E60111F06F
:10547000FEFB95F8E80100F0CDBD742B00F02D8304
:1054800039D86C2B00F0F9811CD8682B00F0DE8134
:105490000AD8662B00F04481672B40F0BF851020AE
:1054A00011F0E2FB002564E16A2B00F0D58300F2E5
:1054B000F283414E00253078400000F0FE0011F0EC
:1054C000D3FBCFE16F2B00F0648207D86D2B00F087
:1054D000E3816E2B00F02A8200F0A0BD722B00F059
:1054E000608300F29783702B40F098851E2011F0A6
:1054F000BBFB00257AE27D2B00F07B8527D8772B3C
:1055000000F02D8307D8752B00F08482762B00F0F5
:10551000E88300F083BD792B00F0CD83C0F03181AA
:105520007C2B40F07B85224D082011F09DFBB5F8C7
:105530004C0111F09CFBB5F84E0111F098FBB5F849
:10554000500111F094FBB5F8520100F0ABBCA42B54
:1055500000F0398432D8962B00F08C80A02B00F01C
:10556000AA817E2B40F05A85114D032011F07CFB5F
:1055700095F8580111F041FB95F8590111F03DFBE8
:1055800095F85A0100F046BD6F330020A431002089
:10559000BC0C0020CC310020EDD40108F02E0020FE
:1055A000EFBEADDEF04F00200400FA0500ED00E094
:1055B0002428002008000020E82E0020F12B00F015
:1055C0001F81FE2B00F01884A62B40F02785C24DCA
:1055D000142011F049FB288811F049FB686811F08C
:1055E0004FFBA86811F04CFBE868BC4D11F048FB7C
:1055F000288D11F03CFBA88C11F039FBE88C00F0F1
:1056000051BC032011F030FB002011F0F6FA01200C
:1056100011F0F3FA112000F0FDBC184611F024FB44
:10562000012011F0EAFA012011F0E7FA002000F061
:10563000F1BC062011F018FB432011F0DEFA4320E4
:1056400011F0DBFA332011F0D8FA442011F0D5FA2A
:10565000002000F027BC072011F006FBE72011F026
:10566000CCFA9F4B587911F0C8FA002011F0C5FA16
:105670009C482DE10D2011F0F7FA9B4B188811F092
:10568000F6FA9A4B188880B211F0F1FA984B1B6821
:10569000C3F3C000C3F38002800040EA4200C3F3BA
:1056A00040021043C3F3401240EAC20003F010036B
:1056B000184311F0DCFA11F079F911F0E1FA884B96
:1056C00093F8540611F099FA8A4B08E30B2011F075
:1056D000CBFA854B188811F0CAFA844B188880B22F
:1056E00011F0C5FA824B1B68C3F3C000C3F38002FC
:1056F000800040EA4200C3F340021043C3F340126B
:1057000040EAC20003F01003184311F0B0FA11F0A0
:105710004DF911F0B5FA724B93F8540600F07ABCCB
:10572000122011F0A1FA744B00251B89B3F5806F8C
:105730008CBF08260126714B53F82500013590FBDC
:10574000F6F080B211F093FA032DF4D16C4D288C51
:1057500011F08DFAA88C11F08AFA288D694D11F09C
:1057600086FA288811F083FAA88811F080FA28892F
:1057700098E3654B585D013511F03FFA102DF8D1D3
:10578000C7E4702011F070FA4FF000080E2303FBFD
:1057900008F55E4E08F1010832682A44B2F8CB00E1
:1057A00011F065FA33682B44B3F8CD0011F05FFABD
:1057B00033682B44B3F8CF0011F059FA33682B4407
:1057C00093F8D10011F019FA33682B4493F8D20002
:1057D00011F013FA33682B4493F8D30011F00DFA4B
:1057E00033682B4493F8D40011F007FA33682B4444
:1057F000D3F8D50011F044FAB8F1080FC6D188E407
:10580000702011F031FA364D05F1700695F8D4008C
:1058100011F0F3F995F8D50011F0EFF995F8D600ED
:1058200011F0EBF995F8D70011F0E7F995F8D800E9
:1058300011F0E3F995F8D90011F0DFF9073595F883
:10584000D30011F0DAF9B542E0D162E4102011F092
:105850000BFA00252E4B585D013511F0CEF9102DB5
:10586000F8D156E433789D42BFF453AC294B33F85A
:10587000150011F0FCF90135F4E7274D11F0F4F9AA
:10588000288811F0F4F9688811F0F1F9B5F90430BD
:105890000A2093FBF0F074E0204D062011F0E4F9AB
:1058A000D5F8040114F0D6F811F0EAF9D5F8100192
:1058B00014F0D0F865E00C2011F0D6F9184B1868F8
:1058C00011F0DEF9174B186811F0DAF9164B186869
:1058D00011F0D6F91DE400BF343300206C0E002017
:1058E000242800203C000080663300207430002013
:1058F000643000206030002068300020480E002016
:10590000BC0C0020C83200200C1E0020880F002094
:10591000EC1D002080300020061E0020C424002042
:10592000E8F7FF1FECF7FF1FF0F7FF1F4FF6FF75BB
:10593000072011F099F9BD4B1888FF28A8BFFF2058
:10594000C0B211F05AF9BA4B1868A842A8BF28464D
:1059500020EAE07080B211F08AF9B64B188811F095
:1059600086F9B54B93F88F21B44B18683AB10A23E6
:105970005843A842A8BF284620EAE07001E000F39F
:105980000F0080B28EE2022011F06EF9AA4BD88986
:1059900088E2AB4D0B2011F067F92B682E46187882
:1059A00011F02BF92B684FF00008587811F025F909
:1059B0003368A34D4344187908F1010811F01DF92B
:1059C000B8F1030FF4D12B68D87911F016F92B68D0
:1059D000987811F012F92B68D87811F00EF92B682D
:1059E000588911F044F92B68187A13E3954E3368FF
:1059F000585D11F002F933682B44987A11F0FDF8E4
:105A000033682B44187D013511F0F7F80A2DEDD1DC
:105A1000FFF77FBB2F2011F027F98B4D15F8010FF1
:105A200000283FF476AB11F0E8F8F7E7012011F019
:105A30001BF90220EEE20C2202FB01F3834800F185
:105A4000300C13F80C2072451CD1034493F8380035
:105A500011F0D3F895F82F0011F0CFF895F8300039
:105A600011F0CBF8013695F8310011F0C6F8142E7C
:105A70003FF44FAB734B00211D6805EB860595F88D
:105A80002EE0D8E701311F29D5D10020E0E74820DA
:105A900011F0EAF800266B4B1D68062303FB065540
:105AA00095F8830011F0A9F895F87E0011F0A5F89B
:105AB00095F87F0011F0A1F895F8800011F09DF89D
:105AC00095F8810011F099F8013695F8820011F0EF
:105AD00094F80C2EDFD1FFF71CBB00264FF0010A13
